{
  "address": "0x5FbDB2315678afecb367f032d93F642f64180aa3",
  "abi": [
    {
      "inputs": [
        {
          "internalType": "string",
          "name": "_name",
          "type": "string"
        },
        {
          "internalType": "string",
          "name": "_symbol",
          "type": "string"
        }
      ],
      "stateMutability": "nonpayable",
      "type": "constructor"
    },
    {
      "anonymous": false,
      "inputs": [
        {
          "indexed": true,
          "internalType": "address",
          "name": "owner",
          "type": "address"
        },
        {
          "indexed": true,
          "internalType": "address",
          "name": "approved",
          "type": "address"
        },
        {
          "indexed": true,
          "internalType": "uint256",
          "name": "tokenId",
          "type": "uint256"
        }
      ],
      "name": "Approval",
      "type": "event"
    },
    {
      "anonymous": false,
      "inputs": [
        {
          "indexed": true,
          "internalType": "address",
          "name": "owner",
          "type": "address"
        },
        {
          "indexed": true,
          "internalType": "address",
          "name": "operator",
          "type": "address"
        },
        {
          "indexed": false,
          "internalType": "bool",
          "name": "approved",
          "type": "bool"
        }
      ],
      "name": "ApprovalForAll",
      "type": "event"
    },
    {
      "anonymous": false,
      "inputs": [
        {
          "indexed": true,
          "internalType": "address",
          "name": "previousOwner",
          "type": "address"
        },
        {
          "indexed": true,
          "internalType": "address",
          "name": "newOwner",
          "type": "address"
        }
      ],
      "name": "OwnershipTransferred",
      "type": "event"
    },
    {
      "anonymous": false,
      "inputs": [
        {
          "indexed": false,
          "internalType": "address",
          "name": "account",
          "type": "address"
        }
      ],
      "name": "Paused",
      "type": "event"
    },
    {
      "anonymous": false,
      "inputs": [
        {
          "indexed": true,
          "internalType": "address",
          "name": "from",
          "type": "address"
        },
        {
          "indexed": true,
          "internalType": "address",
          "name": "to",
          "type": "address"
        },
        {
          "indexed": true,
          "internalType": "uint256",
          "name": "tokenId",
          "type": "uint256"
        }
      ],
      "name": "Transfer",
      "type": "event"
    },
    {
      "anonymous": false,
      "inputs": [
        {
          "indexed": false,
          "internalType": "address",
          "name": "account",
          "type": "address"
        }
      ],
      "name": "Unpaused",
      "type": "event"
    },
    {
      "inputs": [
        {
          "internalType": "address",
          "name": "to",
          "type": "address"
        },
        {
          "internalType": "uint256",
          "name": "tokenId",
          "type": "uint256"
        }
      ],
      "name": "approve",
      "outputs": [],
      "stateMutability": "nonpayable",
      "type": "function"
    },
    {
      "inputs": [
        {
          "internalType": "address",
          "name": "owner",
          "type": "address"
        }
      ],
      "name": "balanceOf",
      "outputs": [
        {
          "internalType": "uint256",
          "name": "",
          "type": "uint256"
        }
      ],
      "stateMutability": "view",
      "type": "function"
    },
    {
      "inputs": [
        {
          "internalType": "uint256",
          "name": "_tokenId",
          "type": "uint256"
        }
      ],
      "name": "buildMetadata",
      "outputs": [
        {
          "internalType": "string",
          "name": "",
          "type": "string"
        }
      ],
      "stateMutability": "view",
      "type": "function"
    },
    {
      "inputs": [
        {
          "internalType": "uint256",
          "name": "_tokenId",
          "type": "uint256"
        }
      ],
      "name": "buildPolicy",
      "outputs": [
        {
          "internalType": "string",
          "name": "",
          "type": "string"
        }
      ],
      "stateMutability": "view",
      "type": "function"
    },
    {
      "inputs": [
        {
          "internalType": "uint256",
          "name": "tokenId",
          "type": "uint256"
        }
      ],
      "name": "getApproved",
      "outputs": [
        {
          "internalType": "address",
          "name": "",
          "type": "address"
        }
      ],
      "stateMutability": "view",
      "type": "function"
    },
    {
      "inputs": [
        {
          "internalType": "uint256",
          "name": "_policyID",
          "type": "uint256"
        }
      ],
      "name": "getHolder",
      "outputs": [
        {
          "components": [
            {
              "internalType": "uint256",
              "name": "policyID",
              "type": "uint256"
            },
            {
              "internalType": "string",
              "name": "policyType",
              "type": "string"
            },
            {
              "internalType": "uint256",
              "name": "coverageAmount",
              "type": "uint256"
            },
            {
              "internalType": "string",
              "name": "merchant",
              "type": "string"
            },
            {
              "internalType": "uint256",
              "name": "price",
              "type": "uint256"
            },
            {
              "internalType": "uint256",
              "name": "startTime",
              "type": "uint256"
            },
            {
              "internalType": "uint256",
              "name": "endTime",
              "type": "uint256"
            }
          ],
          "internalType": "struct SafeZen.Policy",
          "name": "",
          "type": "tuple"
        }
      ],
      "stateMutability": "view",
      "type": "function"
    },
    {
      "inputs": [
        {
          "internalType": "address",
          "name": "owner",
          "type": "address"
        },
        {
          "internalType": "address",
          "name": "operator",
          "type": "address"
        }
      ],
      "name": "isApprovedForAll",
      "outputs": [
        {
          "internalType": "bool",
          "name": "",
          "type": "bool"
        }
      ],
      "stateMutability": "view",
      "type": "function"
    },
    {
      "inputs": [
        {
          "internalType": "string",
          "name": "_policyType",
          "type": "string"
        },
        {
          "internalType": "uint256",
          "name": "_coverageAmount",
          "type": "uint256"
        },
        {
          "internalType": "string",
          "name": "_merchant",
          "type": "string"
        },
        {
          "internalType": "uint256",
          "name": "_price",
          "type": "uint256"
        },
        {
          "internalType": "uint256",
          "name": "_startTime",
          "type": "uint256"
        },
        {
          "internalType": "uint256",
          "name": "_endTime",
          "type": "uint256"
        }
      ],
      "name": "mint",
      "outputs": [],
      "stateMutability": "payable",
      "type": "function"
    },
    {
      "inputs": [],
      "name": "name",
      "outputs": [
        {
          "internalType": "string",
          "name": "",
          "type": "string"
        }
      ],
      "stateMutability": "view",
      "type": "function"
    },
    {
      "inputs": [],
      "name": "owner",
      "outputs": [
        {
          "internalType": "address",
          "name": "",
          "type": "address"
        }
      ],
      "stateMutability": "view",
      "type": "function"
    },
    {
      "inputs": [
        {
          "internalType": "uint256",
          "name": "tokenId",
          "type": "uint256"
        }
      ],
      "name": "ownerOf",
      "outputs": [
        {
          "internalType": "address",
          "name": "",
          "type": "address"
        }
      ],
      "stateMutability": "view",
      "type": "function"
    },
    {
      "inputs": [],
      "name": "pause",
      "outputs": [],
      "stateMutability": "nonpayable",
      "type": "function"
    },
    {
      "inputs": [],
      "name": "paused",
      "outputs": [
        {
          "internalType": "bool",
          "name": "",
          "type": "bool"
        }
      ],
      "stateMutability": "view",
      "type": "function"
    },
    {
      "inputs": [
        {
          "internalType": "uint256",
          "name": "",
          "type": "uint256"
        }
      ],
      "name": "policies",
      "outputs": [
        {
          "internalType": "uint256",
          "name": "policyID",
          "type": "uint256"
        },
        {
          "internalType": "string",
          "name": "policyType",
          "type": "string"
        },
        {
          "internalType": "uint256",
          "name": "coverageAmount",
          "type": "uint256"
        },
        {
          "internalType": "string",
          "name": "merchant",
          "type": "string"
        },
        {
          "internalType": "uint256",
          "name": "price",
          "type": "uint256"
        },
        {
          "internalType": "uint256",
          "name": "startTime",
          "type": "uint256"
        },
        {
          "internalType": "uint256",
          "name": "endTime",
          "type": "uint256"
        }
      ],
      "stateMutability": "view",
      "type": "function"
    },
    {
      "inputs": [
        {
          "internalType": "uint256",
          "name": "",
          "type": "uint256"
        }
      ],
      "name": "policyTypes",
      "outputs": [
        {
          "internalType": "string",
          "name": "",
          "type": "string"
        }
      ],
      "stateMutability": "view",
      "type": "function"
    },
    {
      "inputs": [
        {
          "internalType": "uint256",
          "name": "_mod",
          "type": "uint256"
        },
        {
          "internalType": "uint256",
          "name": "_seed",
          "type": "uint256"
        },
        {
          "internalType": "uint256",
          "name": "_salt",
          "type": "uint256"
        }
      ],
      "name": "randomNum",
      "outputs": [
        {
          "internalType": "uint256",
          "name": "",
          "type": "uint256"
        }
      ],
      "stateMutability": "view",
      "type": "function"
    },
    {
      "inputs": [],
      "name": "renounceOwnership",
      "outputs": [],
      "stateMutability": "nonpayable",
      "type": "function"
    },
    {
      "inputs": [
        {
          "internalType": "address",
          "name": "from",
          "type": "address"
        },
        {
          "internalType": "address",
          "name": "to",
          "type": "address"
        },
        {
          "internalType": "uint256",
          "name": "tokenId",
          "type": "uint256"
        }
      ],
      "name": "safeTransferFrom",
      "outputs": [],
      "stateMutability": "nonpayable",
      "type": "function"
    },
    {
      "inputs": [
        {
          "internalType": "address",
          "name": "from",
          "type": "address"
        },
        {
          "internalType": "address",
          "name": "to",
          "type": "address"
        },
        {
          "internalType": "uint256",
          "name": "tokenId",
          "type": "uint256"
        },
        {
          "internalType": "bytes",
          "name": "_data",
          "type": "bytes"
        }
      ],
      "name": "safeTransferFrom",
      "outputs": [],
      "stateMutability": "nonpayable",
      "type": "function"
    },
    {
      "inputs": [
        {
          "internalType": "address",
          "name": "operator",
          "type": "address"
        },
        {
          "internalType": "bool",
          "name": "approved",
          "type": "bool"
        }
      ],
      "name": "setApprovalForAll",
      "outputs": [],
      "stateMutability": "nonpayable",
      "type": "function"
    },
    {
      "inputs": [
        {
          "internalType": "bytes4",
          "name": "interfaceId",
          "type": "bytes4"
        }
      ],
      "name": "supportsInterface",
      "outputs": [
        {
          "internalType": "bool",
          "name": "",
          "type": "bool"
        }
      ],
      "stateMutability": "view",
      "type": "function"
    },
    {
      "inputs": [],
      "name": "symbol",
      "outputs": [
        {
          "internalType": "string",
          "name": "",
          "type": "string"
        }
      ],
      "stateMutability": "view",
      "type": "function"
    },
    {
      "inputs": [
        {
          "internalType": "uint256",
          "name": "index",
          "type": "uint256"
        }
      ],
      "name": "tokenByIndex",
      "outputs": [
        {
          "internalType": "uint256",
          "name": "",
          "type": "uint256"
        }
      ],
      "stateMutability": "view",
      "type": "function"
    },
    {
      "inputs": [
        {
          "internalType": "address",
          "name": "owner",
          "type": "address"
        },
        {
          "internalType": "uint256",
          "name": "index",
          "type": "uint256"
        }
      ],
      "name": "tokenOfOwnerByIndex",
      "outputs": [
        {
          "internalType": "uint256",
          "name": "",
          "type": "uint256"
        }
      ],
      "stateMutability": "view",
      "type": "function"
    },
    {
      "inputs": [
        {
          "internalType": "uint256",
          "name": "_tokenId",
          "type": "uint256"
        }
      ],
      "name": "tokenURI",
      "outputs": [
        {
          "internalType": "string",
          "name": "",
          "type": "string"
        }
      ],
      "stateMutability": "view",
      "type": "function"
    },
    {
      "inputs": [],
      "name": "totalSupply",
      "outputs": [
        {
          "internalType": "uint256",
          "name": "",
          "type": "uint256"
        }
      ],
      "stateMutability": "view",
      "type": "function"
    },
    {
      "inputs": [
        {
          "internalType": "address",
          "name": "from",
          "type": "address"
        },
        {
          "internalType": "address",
          "name": "to",
          "type": "address"
        },
        {
          "internalType": "uint256",
          "name": "tokenId",
          "type": "uint256"
        }
      ],
      "name": "transferFrom",
      "outputs": [],
      "stateMutability": "nonpayable",
      "type": "function"
    },
    {
      "inputs": [
        {
          "internalType": "address",
          "name": "newOwner",
          "type": "address"
        }
      ],
      "name": "transferOwnership",
      "outputs": [],
      "stateMutability": "nonpayable",
      "type": "function"
    },
    {
      "inputs": [],
      "name": "unpause",
      "outputs": [],
      "stateMutability": "nonpayable",
      "type": "function"
    }
  ],
  "transactionHash": "0xe320330f9ec755dd7eb4cea4b03f950f15b4afc66e5b3abe8d4adf272455b9ba",
  "args": [
    "SafeZen",
    "SZ"
  ],
  "numDeployments": 1,
  "solcInputHash": "04db3f3695feb5dfa20186054d9932bf",
  "bytecode": "0x600360e08181526221b0b960e91b6101005260809081526007610120908152661359591a58d85b60ca1b6101405260a0526101a0604052600661016090815265151c985d995b60d21b6101805260c0526200005e91600b919062000146565b503480156200006c57600080fd5b50604051620039b8380380620039b88339810160408190526200008f916200037c565b815182908290620000a8906000906020850190620001aa565b508051620000be906001906020840190620001aa565b505050620000db620000d5620000f060201b60201c565b620000f4565b5050600a805460ff60a01b1916905562000423565b3390565b600a80546001600160a01b038381166001600160a01b0319831681179093556040519116919082907f8be0079c531659141344cd1fd0a4f28419497f9722a3daafe3b4186f6b6457e090600090a35050565b82805482825590600052602060002090810192821562000198579160200282015b8281111562000198578251805162000187918491602090910190620001aa565b509160200191906001019062000167565b50620001a692915062000235565b5090565b828054620001b890620003e6565b90600052602060002090601f016020900481019282620001dc576000855562000227565b82601f10620001f757805160ff191683800117855562000227565b8280016001018555821562000227579182015b82811115620002275782518255916020019190600101906200020a565b50620001a692915062000256565b80821115620001a65760006200024c82826200026d565b5060010162000235565b5b80821115620001a6576000815560010162000257565b5080546200027b90620003e6565b6000825580601f106200028c575050565b601f016020900490600052602060002090810190620002ac919062000256565b50565b634e487b7160e01b600052604160045260246000fd5b600082601f830112620002d757600080fd5b81516001600160401b0380821115620002f457620002f4620002af565b604051601f8301601f19908116603f011681019082821181831017156200031f576200031f620002af565b816040528381526020925086838588010111156200033c57600080fd5b600091505b8382101562000360578582018301518183018401529082019062000341565b83821115620003725760008385830101525b9695505050505050565b600080604083850312156200039057600080fd5b82516001600160401b0380821115620003a857600080fd5b620003b686838701620002c5565b93506020850151915080821115620003cd57600080fd5b50620003dc85828601620002c5565b9150509250929050565b600181811c90821680620003fb57607f821691505b602082108114156200041d57634e487b7160e01b600052602260045260246000fd5b50919050565b61358580620004336000396000f3fe6080604052600436106101c25760003560e01c806370a08231116100f7578063a3481e7611610095578063e8a96b4611610064578063e8a96b46146104ee578063e985e9c51461051b578063edf8770414610564578063f2fde38b1461058457600080fd5b8063a3481e7614610468578063b88d4fde1461047b578063c87b56dd1461049b578063d3e89483146104bb57600080fd5b80638456cb59116100d15780638456cb59146104005780638da5cb5b1461041557806395d89b4114610433578063a22cb4651461044857600080fd5b806370a08231146103ab578063715018a6146103cb57806382772481146103e057600080fd5b8063282946401161016457806342842e0e1161013e57806342842e0e1461032c5780634f6ccce71461034c5780635c975abb1461036c5780636352211e1461038b57600080fd5b806328294640146102d75780632f745c59146102f75780633f4ba83a1461031757600080fd5b8063095ea7b3116101a0578063095ea7b3146102565780630d5510601461027857806318160ddd1461029857806323b872dd146102b757600080fd5b806301ffc9a7146101c757806306fdde03146101fc578063081812fc1461021e575b600080fd5b3480156101d357600080fd5b506101e76101e236600461264d565b6105a4565b60405190151581526020015b60405180910390f35b34801561020857600080fd5b506102116105cf565b6040516101f391906126c9565b34801561022a57600080fd5b5061023e6102393660046126dc565b610661565b6040516001600160a01b0390911681526020016101f3565b34801561026257600080fd5b50610276610271366004612711565b6106fb565b005b34801561028457600080fd5b506102116102933660046126dc565b610811565b3480156102a457600080fd5b506008545b6040519081526020016101f3565b3480156102c357600080fd5b506102766102d236600461273b565b6108bd565b3480156102e357600080fd5b506102a96102f2366004612777565b6108ee565b34801561030357600080fd5b506102a9610312366004612711565b610956565b34801561032357600080fd5b506102766109ec565b34801561033857600080fd5b5061027661034736600461273b565b610a20565b34801561035857600080fd5b506102a96103673660046126dc565b610a3b565b34801561037857600080fd5b50600a54600160a01b900460ff166101e7565b34801561039757600080fd5b5061023e6103a63660046126dc565b610ace565b3480156103b757600080fd5b506102a96103c63660046127a3565b610b45565b3480156103d757600080fd5b50610276610bcc565b3480156103ec57600080fd5b506102116103fb3660046126dc565b610c00565b34801561040c57600080fd5b50610276610edc565b34801561042157600080fd5b50600a546001600160a01b031661023e565b34801561043f57600080fd5b50610211610f0e565b34801561045457600080fd5b506102766104633660046127be565b610f1d565b6102766104763660046128a6565b610f2c565b34801561048757600080fd5b5061027661049636600461292f565b6110c5565b3480156104a757600080fd5b506102116104b63660046126dc565b6110fd565b3480156104c757600080fd5b506104db6104d63660046126dc565b611185565b6040516101f397969594939291906129ab565b3480156104fa57600080fd5b5061050e6105093660046126dc565b6112d0565b6040516101f391906129fc565b34801561052757600080fd5b506101e7610536366004612a75565b6001600160a01b03918216600090815260056020908152604080832093909416825291909152205460ff1690565b34801561057057600080fd5b5061021161057f3660046126dc565b61148b565b34801561059057600080fd5b5061027661059f3660046127a3565b61164d565b60006001600160e01b0319821663780e9d6360e01b14806105c957506105c9826116e8565b92915050565b6060600080546105de90612aa8565b80601f016020809104026020016040519081016040528092919081815260200182805461060a90612aa8565b80156106575780601f1061062c57610100808354040283529160200191610657565b820191906000526020600020905b81548152906001019060200180831161063a57829003601f168201915b5050505050905090565b6000818152600260205260408120546001600160a01b03166106df5760405162461bcd60e51b815260206004820152602c60248201527f4552433732313a20617070726f76656420717565727920666f72206e6f6e657860448201526b34b9ba32b73a103a37b5b2b760a11b60648201526084015b60405180910390fd5b506000908152600460205260409020546001600160a01b031690565b600061070682610ace565b9050806001600160a01b0316836001600160a01b031614156107745760405162461bcd60e51b815260206004820152602160248201527f4552433732313a20617070726f76616c20746f2063757272656e74206f776e656044820152603960f91b60648201526084016106d6565b336001600160a01b038216148061079057506107908133610536565b6108025760405162461bcd60e51b815260206004820152603860248201527f4552433732313a20617070726f76652063616c6c6572206973206e6f74206f7760448201527f6e6572206e6f7220617070726f76656420666f7220616c6c000000000000000060648201526084016106d6565b61080c8383611738565b505050565b600b818154811061082157600080fd5b90600052602060002001600091509050805461083c90612aa8565b80601f016020809104026020016040519081016040528092919081815260200182805461086890612aa8565b80156108b55780601f1061088a576101008083540402835291602001916108b5565b820191906000526020600020905b81548152906001019060200180831161089857829003601f168201915b505050505081565b6108c733826117a6565b6108e35760405162461bcd60e51b81526004016106d690612ae3565b61080c83838361189d565b604080514260208201526bffffffffffffffffffffffff193360601b16918101919091526054810183905260748101829052600090819085906094016040516020818303038152906040528051906020012060001c61094d9190612b4a565b95945050505050565b600061096183610b45565b82106109c35760405162461bcd60e51b815260206004820152602b60248201527f455243373231456e756d657261626c653a206f776e657220696e646578206f7560448201526a74206f6620626f756e647360a81b60648201526084016106d6565b506001600160a01b03919091166000908152600660209081526040808320938352929052205490565b600a546001600160a01b03163314610a165760405162461bcd60e51b81526004016106d690612b5e565b610a1e611a44565b565b61080c838383604051806020016040528060008152506110c5565b6000610a4660085490565b8210610aa95760405162461bcd60e51b815260206004820152602c60248201527f455243373231456e756d657261626c653a20676c6f62616c20696e646578206f60448201526b7574206f6620626f756e647360a01b60648201526084016106d6565b60088281548110610abc57610abc612b93565b90600052602060002001549050919050565b6000818152600260205260408120546001600160a01b0316806105c95760405162461bcd60e51b815260206004820152602960248201527f4552433732313a206f776e657220717565727920666f72206e6f6e657869737460448201526832b73a103a37b5b2b760b91b60648201526084016106d6565b60006001600160a01b038216610bb05760405162461bcd60e51b815260206004820152602a60248201527f4552433732313a2062616c616e636520717565727920666f7220746865207a65604482015269726f206164647265737360b01b60648201526084016106d6565b506001600160a01b031660009081526003602052604090205490565b600a546001600160a01b03163314610bf65760405162461bcd60e51b81526004016106d690612b5e565b610a1e6000611ae1565b6000818152600c60209081526040808320815160e08101909252805482526001810180546060959484019190610c3590612aa8565b80601f0160208091040260200160405190810160405280929190818152602001828054610c6190612aa8565b8015610cae5780601f10610c8357610100808354040283529160200191610cae565b820191906000526020600020905b815481529060010190602001808311610c9157829003601f168201915b5050505050815260200160028201548152602001600382018054610cd190612aa8565b80601f0160208091040260200160405190810160405280929190818152602001828054610cfd90612aa8565b8015610d4a5780601f10610d1f57610100808354040283529160200191610d4a565b820191906000526020600020905b815481529060010190602001808311610d2d57829003601f168201915b50505050508152602001600482015481526020016005820154815260200160068201548152505090506000806000610d858460a00151611b33565b9250925092506000806000610d9d8760c00151611b33565b92509250925060008760600151604051602001610dba9190612bc5565b60405160208183030381529060405290506000610dda8960000151611b59565b8960200151610dec8b60400151611b59565b604051602001610dfe93929190612d15565b60405160208183030381529060405290506000610e1e8a60800151611b59565b610e2788611b59565b610e308a611b59565b610e398c611b59565b604051602001610e4c9493929190612f17565b60405160208183030381529060405290506000610e6885611b59565b610e7187611b59565b610e7a89611b59565b604051602001610e8c93929190613025565b6040516020818303038152906040529050610ecb84848484604051602001610eb794939291906130c4565b604051602081830303815290604052611c57565b9d9c50505050505050505050505050565b600a546001600160a01b03163314610f065760405162461bcd60e51b81526004016106d690612b5e565b610a1e611dbf565b6060600180546105de90612aa8565b610f28338383611e47565b5050565b6000610f3760085490565b90506103e8610f47826001613131565b1115610f5257600080fd5b60006040518060e00160405280836001610f6c9190613131565b815260200189815260200188815260200187815260200186815260200185815260200184815250905080600c6000846001610fa79190613131565b8152602080820192909252604001600020825181558282015180519192610fd69260018501929091019061259e565b506040820151600282015560608201518051610ffc91600384019160209091019061259e565b506080820151600482015560a0820151600582015560c090910151600690910155336000908152600d60209081526040822080546001818101835591845292829020845160079094020192835583820151805185949361106093850192019061259e565b50604082015160028201556060820151805161108691600384019160209091019061259e565b506080820151600482015560a0820151600582015560c0909101516006909101556110bb336110b6846001613131565b611f16565b5050505050505050565b6110cf33836117a6565b6110eb5760405162461bcd60e51b81526004016106d690612ae3565b6110f784848484611f30565b50505050565b6000818152600260205260409020546060906001600160a01b031661117c5760405162461bcd60e51b815260206004820152602f60248201527f4552433732314d657461646174613a2055524920717565727920666f72206e6f60448201526e3732bc34b9ba32b73a103a37b5b2b760891b60648201526084016106d6565b6105c98261148b565b600c60205260009081526040902080546001820180549192916111a790612aa8565b80601f01602080910402602001604051908101604052809291908181526020018280546111d390612aa8565b80156112205780601f106111f557610100808354040283529160200191611220565b820191906000526020600020905b81548152906001019060200180831161120357829003601f168201915b50505050509080600201549080600301805461123b90612aa8565b80601f016020809104026020016040519081016040528092919081815260200182805461126790612aa8565b80156112b45780601f10611289576101008083540402835291602001916112b4565b820191906000526020600020905b81548152906001019060200180831161129757829003601f168201915b5050505050908060040154908060050154908060060154905087565b6113106040518060e00160405280600081526020016060815260200160008152602001606081526020016000815260200160008152602001600081525090565b600c60008381526020019081526020016000206040518060e00160405290816000820154815260200160018201805461134890612aa8565b80601f016020809104026020016040519081016040528092919081815260200182805461137490612aa8565b80156113c15780601f10611396576101008083540402835291602001916113c1565b820191906000526020600020905b8154815290600101906020018083116113a457829003601f168201915b50505050508152602001600282015481526020016003820180546113e490612aa8565b80601f016020809104026020016040519081016040528092919081815260200182805461141090612aa8565b801561145d5780601f106114325761010080835404028352916020019161145d565b820191906000526020600020905b81548152906001019060200180831161144057829003601f168201915b5050505050815260200160048201548152602001600582015481526020016006820154815250509050919050565b6000818152600c60209081526040808320815160e081019092528054825260018101805460609594840191906114c090612aa8565b80601f01602080910402602001604051908101604052809291908181526020018280546114ec90612aa8565b80156115395780601f1061150e57610100808354040283529160200191611539565b820191906000526020600020905b81548152906001019060200180831161151c57829003601f168201915b505050505081526020016002820154815260200160038201805461155c90612aa8565b80601f016020809104026020016040519081016040528092919081815260200182805461158890612aa8565b80156115d55780601f106115aa576101008083540402835291602001916115d5565b820191906000526020600020905b8154815290600101906020018083116115b857829003601f168201915b50505050508152602001600482015481526020016005820154815260200160068201548152505090506116268160200151826060015161161486610c00565b604051602001610eb793929190613149565b6040516020016116369190613210565b604051602081830303815290604052915050919050565b600a546001600160a01b031633146116775760405162461bcd60e51b81526004016106d690612b5e565b6001600160a01b0381166116dc5760405162461bcd60e51b815260206004820152602660248201527f4f776e61626c653a206e6577206f776e657220697320746865207a65726f206160448201526564647265737360d01b60648201526084016106d6565b6116e581611ae1565b50565b60006001600160e01b031982166380ac58cd60e01b148061171957506001600160e01b03198216635b5e139f60e01b145b806105c957506301ffc9a760e01b6001600160e01b03198316146105c9565b600081815260046020526040902080546001600160a01b0319166001600160a01b038416908117909155819061176d82610ace565b6001600160a01b03167f8c5be1e5ebec7d5bd14f71427d1e84f3dd0314c0f7b2291e5b200ac8c7c3b92560405160405180910390a45050565b6000818152600260205260408120546001600160a01b031661181f5760405162461bcd60e51b815260206004820152602c60248201527f4552433732313a206f70657261746f7220717565727920666f72206e6f6e657860448201526b34b9ba32b73a103a37b5b2b760a11b60648201526084016106d6565b600061182a83610ace565b9050806001600160a01b0316846001600160a01b0316148061187157506001600160a01b0380821660009081526005602090815260408083209388168352929052205460ff165b806118955750836001600160a01b031661188a84610661565b6001600160a01b0316145b949350505050565b826001600160a01b03166118b082610ace565b6001600160a01b0316146119145760405162461bcd60e51b815260206004820152602560248201527f4552433732313a207472616e736665722066726f6d20696e636f72726563742060448201526437bbb732b960d91b60648201526084016106d6565b6001600160a01b0382166119765760405162461bcd60e51b8152602060048201526024808201527f4552433732313a207472616e7366657220746f20746865207a65726f206164646044820152637265737360e01b60648201526084016106d6565b611981838383611f63565b61198c600082611738565b6001600160a01b03831660009081526003602052604081208054600192906119b5908490613255565b90915550506001600160a01b03821660009081526003602052604081208054600192906119e3908490613131565b909155505060008181526002602052604080822080546001600160a01b0319166001600160a01b0386811691821790925591518493918716917fddf252ad1be2c89b69c2b068fc378daa952ba7f163c4a11628f55a4df523b3ef91a4505050565b600a54600160a01b900460ff16611a945760405162461bcd60e51b815260206004820152601460248201527314185d5cd8589b194e881b9bdd081c185d5cd95960621b60448201526064016106d6565b600a805460ff60a01b191690557f5db9ee0a495bf2e6ff9c91a7834c1ba4fdd244a5e8aa4e537bd38aeae4b073aa335b6040516001600160a01b03909116815260200160405180910390a1565b600a80546001600160a01b038381166001600160a01b0319831681179093556040519116919082907f8be0079c531659141344cd1fd0a4f28419497f9722a3daafe3b4186f6b6457e090600090a35050565b60008080611b4c611b47620151808661326c565b61201b565b9196909550909350915050565b606081611b7d5750506040805180820190915260018152600360fc1b602082015290565b8160005b8115611ba75780611b9181613280565b9150611ba09050600a8361326c565b9150611b81565b60008167ffffffffffffffff811115611bc257611bc26127fa565b6040519080825280601f01601f191660200182016040528015611bec576020820181803683370190505b5090505b841561189557611c01600183613255565b9150611c0e600a86612b4a565b611c19906030613131565b60f81b818381518110611c2e57611c2e612b93565b60200101906001600160f81b031916908160001a905350611c50600a8661326c565b9450611bf0565b6060815160001415611c7757505060408051602081019091526000815290565b60006040518060600160405280604081526020016134f06040913990506000600384516002611ca69190613131565b611cb0919061326c565b611cbb90600461329b565b90506000611cca826020613131565b67ffffffffffffffff811115611ce257611ce26127fa565b6040519080825280601f01601f191660200182016040528015611d0c576020820181803683370190505b509050818152600183018586518101602084015b81831015611d7a5760039283018051603f601282901c811687015160f890811b8552600c83901c8216880151811b6001860152600683901c8216880151811b60028601529116860151901b93820193909352600401611d20565b600389510660018114611d945760028114611da557611db1565b613d3d60f01b600119830152611db1565b603d60f81b6000198301525b509398975050505050505050565b600a54600160a01b900460ff1615611e0c5760405162461bcd60e51b815260206004820152601060248201526f14185d5cd8589b194e881c185d5cd95960821b60448201526064016106d6565b600a805460ff60a01b1916600160a01b1790557f62e78cea01bee320cd4e420270b5ea74000d11b0c9f74754ebdbfc544b05a258611ac43390565b816001600160a01b0316836001600160a01b03161415611ea95760405162461bcd60e51b815260206004820152601960248201527f4552433732313a20617070726f766520746f2063616c6c65720000000000000060448201526064016106d6565b6001600160a01b03838116600081815260056020908152604080832094871680845294825291829020805460ff191686151590811790915591519182527f17307eab39ab6107e8899845ad3d59bd9653f200f220920489ca2b5937696c31910160405180910390a3505050565b610f2882826040518060200160405280600081525061218f565b611f3b84848461189d565b611f47848484846121c2565b6110f75760405162461bcd60e51b81526004016106d6906132ba565b6001600160a01b038316611fbe57611fb981600880546000838152600960205260408120829055600182018355919091527ff3f7a9fe364faab93b216da50a3214154f22a0a2b415b23a84c8169e8b636ee30155565b611fe1565b816001600160a01b0316836001600160a01b031614611fe157611fe183826122c0565b6001600160a01b038216611ff85761080c8161235d565b826001600160a01b0316826001600160a01b03161461080c5761080c828261240c565b60008080838162253d8c6120328362010bd961330c565b61203c919061330c565b9050600062023ab161204f83600461334d565b61205991906133d2565b9050600461206a8262023ab161334d565b61207590600361330c565b61207f91906133d2565b6120899083613400565b9150600062164b0961209c84600161330c565b6120a890610fa061334d565b6120b291906133d2565b905060046120c2826105b561334d565b6120cc91906133d2565b6120d69084613400565b6120e190601f61330c565b9250600061098f6120f385605061334d565b6120fd91906133d2565b90506000605061210f8361098f61334d565b61211991906133d2565b6121239086613400565b9050612130600b836133d2565b945061213d85600c61334d565b61214883600261330c565b6121529190613400565b91508483612161603187613400565b61216c90606461334d565b612176919061330c565b612180919061330c565b9a919950975095505050505050565b6121998383612450565b6121a660008484846121c2565b61080c5760405162461bcd60e51b81526004016106d6906132ba565b60006001600160a01b0384163b156122b557604051630a85bd0160e11b81526001600160a01b0385169063150b7a029061220690339089908890889060040161343f565b6020604051808303816000875af1925050508015612241575060408051601f3d908101601f1916820190925261223e9181019061347c565b60015b61229b573d80801561226f576040519150601f19603f3d011682016040523d82523d6000602084013e612274565b606091505b5080516122935760405162461bcd60e51b81526004016106d6906132ba565b805181602001fd5b6001600160e01b031916630a85bd0160e11b149050611895565b506001949350505050565b600060016122cd84610b45565b6122d79190613255565b60008381526007602052604090205490915080821461232a576001600160a01b03841660009081526006602090815260408083208584528252808320548484528184208190558352600790915290208190555b5060009182526007602090815260408084208490556001600160a01b039094168352600681528383209183525290812055565b60085460009061236f90600190613255565b6000838152600960205260408120546008805493945090928490811061239757612397612b93565b9060005260206000200154905080600883815481106123b8576123b8612b93565b60009182526020808320909101929092558281526009909152604080822084905585825281205560088054806123f0576123f0613499565b6001900381819060005260206000200160009055905550505050565b600061241783610b45565b6001600160a01b039093166000908152600660209081526040808320868452825280832085905593825260079052919091209190915550565b6001600160a01b0382166124a65760405162461bcd60e51b815260206004820181905260248201527f4552433732313a206d696e7420746f20746865207a65726f206164647265737360448201526064016106d6565b6000818152600260205260409020546001600160a01b03161561250b5760405162461bcd60e51b815260206004820152601c60248201527f4552433732313a20746f6b656e20616c7265616479206d696e7465640000000060448201526064016106d6565b61251760008383611f63565b6001600160a01b0382166000908152600360205260408120805460019290612540908490613131565b909155505060008181526002602052604080822080546001600160a01b0319166001600160a01b03861690811790915590518392907fddf252ad1be2c89b69c2b068fc378daa952ba7f163c4a11628f55a4df523b3ef908290a45050565b8280546125aa90612aa8565b90600052602060002090601f0160209004810192826125cc5760008555612612565b82601f106125e557805160ff1916838001178555612612565b82800160010185558215612612579182015b828111156126125782518255916020019190600101906125f7565b5061261e929150612622565b5090565b5b8082111561261e5760008155600101612623565b6001600160e01b0319811681146116e557600080fd5b60006020828403121561265f57600080fd5b813561266a81612637565b9392505050565b60005b8381101561268c578181015183820152602001612674565b838111156110f75750506000910152565b600081518084526126b5816020860160208601612671565b601f01601f19169290920160200192915050565b60208152600061266a602083018461269d565b6000602082840312156126ee57600080fd5b5035919050565b80356001600160a01b038116811461270c57600080fd5b919050565b6000806040838503121561272457600080fd5b61272d836126f5565b946020939093013593505050565b60008060006060848603121561275057600080fd5b612759846126f5565b9250612767602085016126f5565b9150604084013590509250925092565b60008060006060848603121561278c57600080fd5b505081359360208301359350604090920135919050565b6000602082840312156127b557600080fd5b61266a826126f5565b600080604083850312156127d157600080fd5b6127da836126f5565b9150602083013580151581146127ef57600080fd5b809150509250929050565b634e487b7160e01b600052604160045260246000fd5b600067ffffffffffffffff8084111561282b5761282b6127fa565b604051601f8501601f19908116603f01168101908282118183101715612853576128536127fa565b8160405280935085815286868601111561286c57600080fd5b858560208301376000602087830101525050509392505050565b600082601f83011261289757600080fd5b61266a83833560208501612810565b60008060008060008060c087890312156128bf57600080fd5b863567ffffffffffffffff808211156128d757600080fd5b6128e38a838b01612886565b975060208901359650604089013591508082111561290057600080fd5b5061290d89828a01612886565b945050606087013592506080870135915060a087013590509295509295509295565b6000806000806080858703121561294557600080fd5b61294e856126f5565b935061295c602086016126f5565b925060408501359150606085013567ffffffffffffffff81111561297f57600080fd5b8501601f8101871361299057600080fd5b61299f87823560208401612810565b91505092959194509250565b87815260e0602082015260006129c460e083018961269d565b87604084015282810360608401526129dc818861269d565b6080840196909652505060a081019290925260c090910152949350505050565b60208152815160208201526000602083015160e06040840152612a2361010084018261269d565b9050604084015160608401526060840151601f19848303016080850152612a4a828261269d565b915050608084015160a084015260a084015160c084015260c084015160e08401528091505092915050565b60008060408385031215612a8857600080fd5b612a91836126f5565b9150612a9f602084016126f5565b90509250929050565b600181811c90821680612abc57607f821691505b60208210811415612add57634e487b7160e01b600052602260045260246000fd5b50919050565b60208082526031908201527f4552433732313a207472616e736665722063616c6c6572206973206e6f74206f6040820152701ddb995c881b9bdc88185c1c1c9bdd9959607a1b606082015260800190565b634e487b7160e01b600052601260045260246000fd5b600082612b5957612b59612b34565b500690565b6020808252818101527f4f776e61626c653a2063616c6c6572206973206e6f7420746865206f776e6572604082015260600190565b634e487b7160e01b600052603260045260246000fd5b60008151612bbb818560208601612671565b9290920192915050565b7f3c7376672077696474683d2235303022206865696768743d223530302220786d81527f6c6e733d22687474703a2f2f7777772e77332e6f72672f323030302f737667226020820152601f60f91b60408201527f3c7265637420793d2230222066696c6c3d222330306666666622207374726f6b60418201527f653d22233030302220783d222d302e35222077696474683d223530302220686560618201526b34b3b43a1e911a981811179f60a11b60818201526000805160206134d0833981519152608d82015260008051602061353083398151915260ad8201526000805160206134b083398151915260cd8201527f793d2235302220783d22353025222066696c6c3d2223303030303030223e000060ed820152690283937bb34b232b91d160b51b61010b820152600061266a612d02610115840185612ba9565b661e17ba32bc3a1f60c91b815260070190565b60006000805160206134d08339815191528083526000805160206135308339815191528060208501526000805160206134b08339815191528060408601527f793d223130302220783d22353025222066696c6c3d2223303030303030223e0060608601526902837b634b1bca4a21d160b51b607f8601528751612d9f816089880160208c01612671565b8086019050661e17ba32bc3a1f60c91b60898201528360908201528260b08201528160d08201527f793d223135302220783d22353025222066696c6c3d2223303030303030223e0060f0820152612ea5612d02612e9f612e89612e24612d02612e1e61010f88016b02837b634b1bcaa3cb8329d160a51b8152600c0190565b8e612ba9565b6000805160206134d0833981519152815260008051602061353083398151915260208201526000805160206134b083398151915260408201527f793d223230302220783d22353025222066696c6c3d2223303030303030223e006060820152607f0190565b69021b7bb32b930b3b29d160b51b8152600a0190565b89612ba9565b9998505050505050505050565b6000805160206134d0833981519152815260008051602061353083398151915260208201526000805160206134b083398151915260408201527f793d223330302220783d22353025222066696c6c3d2223303030303030223e006060820152607f0190565b6000805160206134d0833981519152815260008051602061353083398151915260208201526000805160206134b083398151915260408201527f793d223235302220783d22353025222066696c6c3d2223303030303030223e006060820152660283934b1b29d160cd1b607f82015260008551612f9b816086850160208a01612671565b661e17ba32bc3a1f60c91b608691840191820152612fbb608d8201612eb2565b90506b029ba30b93a102230ba329d160a51b81528551612fe281600c840160208a01612671565b602f60f81b600c929091019182015261301a612d02613014613007600d850189612ba9565b602f60f81b815260010190565b86612ba9565b979650505050505050565b600061303082612eb2565b6b029ba30b93a102230ba329d160a51b8152855161305581600c840160208a01612671565b808201915050602f60f81b80600c830152855161307981600d850160208a01612671565b600d920191820152835161309481600e840160208801612671565b661e17ba32bc3a1f60c91b600e9290910191820152651e17b9bb339f60d11b6015820152601b0195945050505050565b600085516130d6818460208a01612671565b8551908301906130ea818360208a01612671565b85519101906130fd818360208901612671565b8451910190613110818360208801612671565b019695505050505050565b634e487b7160e01b600052601160045260246000fd5b600082198211156131445761314461311b565b500190565b683d913730b6b2911d1160b91b8152835160009061316e816009850160208901612671565b71111610113232b9b1b934b83a34b7b7111d1160711b60099184019182015284516131a081601b840160208901612671565b6c1116101134b6b0b3b2911d101160991b601b92909101918201527f646174613a696d6167652f7376672b786d6c3b6261736536342c000000000000602882015283516131f4816042840160208801612671565b61227d60f01b6042929091019182015260440195945050505050565b7f646174613a6170706c69636174696f6e2f6a736f6e3b6261736536342c00000081526000825161324881601d850160208701612671565b91909101601d0192915050565b6000828210156132675761326761311b565b500390565b60008261327b5761327b612b34565b500490565b60006000198214156132945761329461311b565b5060010190565b60008160001904831182151516156132b5576132b561311b565b500290565b60208082526032908201527f4552433732313a207472616e7366657220746f206e6f6e20455243373231526560408201527131b2b4bb32b91034b6b83632b6b2b73a32b960711b606082015260800190565b600080821280156001600160ff1b038490038513161561332e5761332e61311b565b600160ff1b83900384128116156133475761334761311b565b50500190565b60006001600160ff1b03818413828413808216868404861116156133735761337361311b565b600160ff1b60008712828116878305891216156133925761339261311b565b600087129250878205871284841616156133ae576133ae61311b565b878505871281841616156133c4576133c461311b565b505050929093029392505050565b6000826133e1576133e1612b34565b600160ff1b8214600019841416156133fb576133fb61311b565b500590565b60008083128015600160ff1b85018412161561341e5761341e61311b565b6001600160ff1b03840183138116156134395761343961311b565b50500390565b6001600160a01b03858116825284166020820152604081018390526080606082018190526000906134729083018461269d565b9695505050505050565b60006020828403121561348e57600080fd5b815161266a81612637565b634e487b7160e01b600052603160045260246000fdfe793d224e6f746f2053616e73204a502220666f6e742d73697a653d22323422203c7465787420646f6d696e616e742d626173656c696e653d226d6964646c65224142434445464748494a4b4c4d4e4f505152535455565758595a6162636465666768696a6b6c6d6e6f707172737475767778797a303132333435363738392b2f20746578742d616e63686f723d226d6964646c652220666f6e742d66616d696ca2646970667358221220a2a7bd3728db8586f364a523723121683039912092213a094a71b515d0276b5f64736f6c634300080a0033",
  "devdoc": {
    "kind": "dev",
    "methods": {
      "approve(address,uint256)": {
        "details": "See {IERC721-approve}."
      },
      "balanceOf(address)": {
        "details": "See {IERC721-balanceOf}."
      },
      "getApproved(uint256)": {
        "details": "See {IERC721-getApproved}."
      },
      "isApprovedForAll(address,address)": {
        "details": "See {IERC721-isApprovedForAll}."
      },
      "name()": {
        "details": "See {IERC721Metadata-name}."
      },
      "owner()": {
        "details": "Returns the address of the current owner."
      },
      "ownerOf(uint256)": {
        "details": "See {IERC721-ownerOf}."
      },
      "paused()": {
        "details": "Returns true if the contract is paused, and false otherwise."
      },
      "renounceOwnership()": {
        "details": "Leaves the contract without owner. It will not be possible to call `onlyOwner` functions anymore. Can only be called by the current owner. NOTE: Renouncing ownership will leave the contract without an owner, thereby removing any functionality that is only available to the owner."
      },
      "safeTransferFrom(address,address,uint256)": {
        "details": "See {IERC721-safeTransferFrom}."
      },
      "safeTransferFrom(address,address,uint256,bytes)": {
        "details": "See {IERC721-safeTransferFrom}."
      },
      "setApprovalForAll(address,bool)": {
        "details": "See {IERC721-setApprovalForAll}."
      },
      "supportsInterface(bytes4)": {
        "details": "See {IERC165-supportsInterface}."
      },
      "symbol()": {
        "details": "See {IERC721Metadata-symbol}."
      },
      "tokenByIndex(uint256)": {
        "details": "See {IERC721Enumerable-tokenByIndex}."
      },
      "tokenOfOwnerByIndex(address,uint256)": {
        "details": "See {IERC721Enumerable-tokenOfOwnerByIndex}."
      },
      "totalSupply()": {
        "details": "See {IERC721Enumerable-totalSupply}."
      },
      "transferFrom(address,address,uint256)": {
        "details": "See {IERC721-transferFrom}."
      },
      "transferOwnership(address)": {
        "details": "Transfers ownership of the contract to a new account (`newOwner`). Can only be called by the current owner."
      }
    },
    "version": 1
  },
  "userdoc": {
    "kind": "user",
    "methods": {},
    "version": 1
  },
  "storageLayout": {
    "storage": [
      {
        "astId": 222,
        "contract": "contracts/SafeZen.sol:SafeZen",
        "label": "_name",
        "offset": 0,
        "slot": "0",
        "type": "t_string_storage"
      },
      {
        "astId": 224,
        "contract": "contracts/SafeZen.sol:SafeZen",
        "label": "_symbol",
        "offset": 0,
        "slot": "1",
        "type": "t_string_storage"
      },
      {
        "astId": 228,
        "contract": "contracts/SafeZen.sol:SafeZen",
        "label": "_owners",
        "offset": 0,
        "slot": "2",
        "type": "t_mapping(t_uint256,t_address)"
      },
      {
        "astId": 232,
        "contract": "contracts/SafeZen.sol:SafeZen",
        "label": "_balances",
        "offset": 0,
        "slot": "3",
        "type": "t_mapping(t_address,t_uint256)"
      },
      {
        "astId": 236,
        "contract": "contracts/SafeZen.sol:SafeZen",
        "label": "_tokenApprovals",
        "offset": 0,
        "slot": "4",
        "type": "t_mapping(t_uint256,t_address)"
      },
      {
        "astId": 242,
        "contract": "contracts/SafeZen.sol:SafeZen",
        "label": "_operatorApprovals",
        "offset": 0,
        "slot": "5",
        "type": "t_mapping(t_address,t_mapping(t_address,t_bool))"
      },
      {
        "astId": 1211,
        "contract": "contracts/SafeZen.sol:SafeZen",
        "label": "_ownedTokens",
        "offset": 0,
        "slot": "6",
        "type": "t_mapping(t_address,t_mapping(t_uint256,t_uint256))"
      },
      {
        "astId": 1215,
        "contract": "contracts/SafeZen.sol:SafeZen",
        "label": "_ownedTokensIndex",
        "offset": 0,
        "slot": "7",
        "type": "t_mapping(t_uint256,t_uint256)"
      },
      {
        "astId": 1218,
        "contract": "contracts/SafeZen.sol:SafeZen",
        "label": "_allTokens",
        "offset": 0,
        "slot": "8",
        "type": "t_array(t_uint256)dyn_storage"
      },
      {
        "astId": 1222,
        "contract": "contracts/SafeZen.sol:SafeZen",
        "label": "_allTokensIndex",
        "offset": 0,
        "slot": "9",
        "type": "t_mapping(t_uint256,t_uint256)"
      },
      {
        "astId": 7,
        "contract": "contracts/SafeZen.sol:SafeZen",
        "label": "_owner",
        "offset": 0,
        "slot": "10",
        "type": "t_address"
      },
      {
        "astId": 122,
        "contract": "contracts/SafeZen.sol:SafeZen",
        "label": "_paused",
        "offset": 20,
        "slot": "10",
        "type": "t_bool"
      },
      {
        "astId": 3724,
        "contract": "contracts/SafeZen.sol:SafeZen",
        "label": "policyTypes",
        "offset": 0,
        "slot": "11",
        "type": "t_array(t_string_storage)dyn_storage"
      },
      {
        "astId": 3729,
        "contract": "contracts/SafeZen.sol:SafeZen",
        "label": "policies",
        "offset": 0,
        "slot": "12",
        "type": "t_mapping(t_uint256,t_struct(Policy)3752_storage)"
      },
      {
        "astId": 3735,
        "contract": "contracts/SafeZen.sol:SafeZen",
        "label": "AddressToPolicies",
        "offset": 0,
        "slot": "13",
        "type": "t_mapping(t_address,t_array(t_struct(Policy)3752_storage)dyn_storage)"
      },
      {
        "astId": 3737,
        "contract": "contracts/SafeZen.sol:SafeZen",
        "label": "_baseURIextended",
        "offset": 0,
        "slot": "14",
        "type": "t_string_storage"
      }
    ],
    "types": {
      "t_address": {
        "encoding": "inplace",
        "label": "address",
        "numberOfBytes": "20"
      },
      "t_array(t_string_storage)dyn_storage": {
        "base": "t_string_storage",
        "encoding": "dynamic_array",
        "label": "string[]",
        "numberOfBytes": "32"
      },
      "t_array(t_struct(Policy)3752_storage)dyn_storage": {
        "base": "t_struct(Policy)3752_storage",
        "encoding": "dynamic_array",
        "label": "struct SafeZen.Policy[]",
        "numberOfBytes": "32"
      },
      "t_array(t_uint256)dyn_storage": {
        "base": "t_uint256",
        "encoding": "dynamic_array",
        "label": "uint256[]",
        "numberOfBytes": "32"
      },
      "t_bool": {
        "encoding": "inplace",
        "label": "bool",
        "numberOfBytes": "1"
      },
      "t_mapping(t_address,t_array(t_struct(Policy)3752_storage)dyn_storage)": {
        "encoding": "mapping",
        "key": "t_address",
        "label": "mapping(address => struct SafeZen.Policy[])",
        "numberOfBytes": "32",
        "value": "t_array(t_struct(Policy)3752_storage)dyn_storage"
      },
      "t_mapping(t_address,t_bool)": {
        "encoding": "mapping",
        "key": "t_address",
        "label": "mapping(address => bool)",
        "numberOfBytes": "32",
        "value": "t_bool"
      },
      "t_mapping(t_address,t_mapping(t_address,t_bool))": {
        "encoding": "mapping",
        "key": "t_address",
        "label": "mapping(address => mapping(address => bool))",
        "numberOfBytes": "32",
        "value": "t_mapping(t_address,t_bool)"
      },
      "t_mapping(t_address,t_mapping(t_uint256,t_uint256))": {
        "encoding": "mapping",
        "key": "t_address",
        "label": "mapping(address => mapping(uint256 => uint256))",
        "numberOfBytes": "32",
        "value": "t_mapping(t_uint256,t_uint256)"
      },
      "t_mapping(t_address,t_uint256)": {
        "encoding": "mapping",
        "key": "t_address",
        "label": "mapping(address => uint256)",
        "numberOfBytes": "32",
        "value": "t_uint256"
      },
      "t_mapping(t_uint256,t_address)": {
        "encoding": "mapping",
        "key": "t_uint256",
        "label": "mapping(uint256 => address)",
        "numberOfBytes": "32",
        "value": "t_address"
      },
      "t_mapping(t_uint256,t_struct(Policy)3752_storage)": {
        "encoding": "mapping",
        "key": "t_uint256",
        "label": "mapping(uint256 => struct SafeZen.Policy)",
        "numberOfBytes": "32",
        "value": "t_struct(Policy)3752_storage"
      },
      "t_mapping(t_uint256,t_uint256)": {
        "encoding": "mapping",
        "key": "t_uint256",
        "label": "mapping(uint256 => uint256)",
        "numberOfBytes": "32",
        "value": "t_uint256"
      },
      "t_string_storage": {
        "encoding": "bytes",
        "label": "string",
        "numberOfBytes": "32"
      },
      "t_struct(Policy)3752_storage": {
        "encoding": "inplace",
        "label": "struct SafeZen.Policy",
        "members": [
          {
            "astId": 3739,
            "contract": "contracts/SafeZen.sol:SafeZen",
            "label": "policyID",
            "offset": 0,
            "slot": "0",
            "type": "t_uint256"
          },
          {
            "astId": 3741,
            "contract": "contracts/SafeZen.sol:SafeZen",
            "label": "policyType",
            "offset": 0,
            "slot": "1",
            "type": "t_string_storage"
          },
          {
            "astId": 3743,
            "contract": "contracts/SafeZen.sol:SafeZen",
            "label": "coverageAmount",
            "offset": 0,
            "slot": "2",
            "type": "t_uint256"
          },
          {
            "astId": 3745,
            "contract": "contracts/SafeZen.sol:SafeZen",
            "label": "merchant",
            "offset": 0,
            "slot": "3",
            "type": "t_string_storage"
          },
          {
            "astId": 3747,
            "contract": "contracts/SafeZen.sol:SafeZen",
            "label": "price",
            "offset": 0,
            "slot": "4",
            "type": "t_uint256"
          },
          {
            "astId": 3749,
            "contract": "contracts/SafeZen.sol:SafeZen",
            "label": "startTime",
            "offset": 0,
            "slot": "5",
            "type": "t_uint256"
          },
          {
            "astId": 3751,
            "contract": "contracts/SafeZen.sol:SafeZen",
            "label": "endTime",
            "offset": 0,
            "slot": "6",
            "type": "t_uint256"
          }
        ],
        "numberOfBytes": "224"
      },
      "t_uint256": {
        "encoding": "inplace",
        "label": "uint256",
        "numberOfBytes": "32"
      }
    }
  }
}