{
  "address": "0x9fE46736679d2D9a65F0992F2272dE9f3c7fa6e0",
  "abi": [
    {
      "inputs": [
        {
          "internalType": "string",
          "name": "_name",
          "type": "string"
        },
        {
          "internalType": "string",
          "name": "_symbol",
          "type": "string"
        },
        {
          "internalType": "contract ISuperfluid",
          "name": "host",
          "type": "address"
        },
        {
          "internalType": "contract IConstantFlowAgreementV1",
          "name": "cfa",
          "type": "address"
        },
        {
          "internalType": "contract ISuperToken",
          "name": "acceptedToken",
          "type": "address"
        },
        {
          "internalType": "address",
          "name": "stakingCA",
          "type": "address"
        },
        {
          "internalType": "address",
          "name": "govCA",
          "type": "address"
        }
      ],
      "stateMutability": "nonpayable",
      "type": "constructor"
    },
    {
      "anonymous": false,
      "inputs": [
        {
          "indexed": true,
          "internalType": "address",
          "name": "owner",
          "type": "address"
        },
        {
          "indexed": true,
          "internalType": "address",
          "name": "approved",
          "type": "address"
        },
        {
          "indexed": true,
          "internalType": "uint256",
          "name": "tokenId",
          "type": "uint256"
        }
      ],
      "name": "Approval",
      "type": "event"
    },
    {
      "anonymous": false,
      "inputs": [
        {
          "indexed": true,
          "internalType": "address",
          "name": "owner",
          "type": "address"
        },
        {
          "indexed": true,
          "internalType": "address",
          "name": "operator",
          "type": "address"
        },
        {
          "indexed": false,
          "internalType": "bool",
          "name": "approved",
          "type": "bool"
        }
      ],
      "name": "ApprovalForAll",
      "type": "event"
    },
    {
      "anonymous": false,
      "inputs": [
        {
          "indexed": true,
          "internalType": "address",
          "name": "previousOwner",
          "type": "address"
        },
        {
          "indexed": true,
          "internalType": "address",
          "name": "newOwner",
          "type": "address"
        }
      ],
      "name": "OwnershipTransferred",
      "type": "event"
    },
    {
      "anonymous": false,
      "inputs": [
        {
          "indexed": false,
          "internalType": "address",
          "name": "account",
          "type": "address"
        }
      ],
      "name": "Paused",
      "type": "event"
    },
    {
      "anonymous": false,
      "inputs": [
        {
          "indexed": true,
          "internalType": "address",
          "name": "from",
          "type": "address"
        },
        {
          "indexed": true,
          "internalType": "address",
          "name": "to",
          "type": "address"
        },
        {
          "indexed": true,
          "internalType": "uint256",
          "name": "tokenId",
          "type": "uint256"
        }
      ],
      "name": "Transfer",
      "type": "event"
    },
    {
      "anonymous": false,
      "inputs": [
        {
          "indexed": false,
          "internalType": "address",
          "name": "account",
          "type": "address"
        }
      ],
      "name": "Unpaused",
      "type": "event"
    },
    {
      "inputs": [],
      "name": "_acceptedToken",
      "outputs": [
        {
          "internalType": "contract ISuperToken",
          "name": "",
          "type": "address"
        }
      ],
      "stateMutability": "view",
      "type": "function"
    },
    {
      "inputs": [
        {
          "internalType": "address",
          "name": "to",
          "type": "address"
        },
        {
          "internalType": "uint256",
          "name": "tokenId",
          "type": "uint256"
        }
      ],
      "name": "approve",
      "outputs": [],
      "stateMutability": "nonpayable",
      "type": "function"
    },
    {
      "inputs": [
        {
          "internalType": "address",
          "name": "owner",
          "type": "address"
        }
      ],
      "name": "balanceOf",
      "outputs": [
        {
          "internalType": "uint256",
          "name": "",
          "type": "uint256"
        }
      ],
      "stateMutability": "view",
      "type": "function"
    },
    {
      "inputs": [
        {
          "internalType": "uint256",
          "name": "_tokenId",
          "type": "uint256"
        }
      ],
      "name": "buildMetadata",
      "outputs": [
        {
          "internalType": "string",
          "name": "",
          "type": "string"
        }
      ],
      "stateMutability": "view",
      "type": "function"
    },
    {
      "inputs": [
        {
          "internalType": "uint256",
          "name": "_tokenId",
          "type": "uint256"
        }
      ],
      "name": "buildPolicy",
      "outputs": [
        {
          "internalType": "string",
          "name": "",
          "type": "string"
        }
      ],
      "stateMutability": "view",
      "type": "function"
    },
    {
      "inputs": [
        {
          "internalType": "uint256",
          "name": "tokenId",
          "type": "uint256"
        }
      ],
      "name": "getApproved",
      "outputs": [
        {
          "internalType": "address",
          "name": "",
          "type": "address"
        }
      ],
      "stateMutability": "view",
      "type": "function"
    },
    {
      "inputs": [
        {
          "internalType": "uint256",
          "name": "_policyID",
          "type": "uint256"
        }
      ],
      "name": "getHolder",
      "outputs": [
        {
          "internalType": "address",
          "name": "",
          "type": "address"
        }
      ],
      "stateMutability": "view",
      "type": "function"
    },
    {
      "inputs": [
        {
          "internalType": "uint256",
          "name": "_policyId",
          "type": "uint256"
        }
      ],
      "name": "isActive",
      "outputs": [
        {
          "internalType": "bool",
          "name": "",
          "type": "bool"
        }
      ],
      "stateMutability": "view",
      "type": "function"
    },
    {
      "inputs": [
        {
          "internalType": "address",
          "name": "owner",
          "type": "address"
        },
        {
          "internalType": "address",
          "name": "operator",
          "type": "address"
        }
      ],
      "name": "isApprovedForAll",
      "outputs": [
        {
          "internalType": "bool",
          "name": "",
          "type": "bool"
        }
      ],
      "stateMutability": "view",
      "type": "function"
    },
    {
      "inputs": [
        {
          "internalType": "string",
          "name": "_policyType",
          "type": "string"
        },
        {
          "internalType": "uint256",
          "name": "_coverageAmount",
          "type": "uint256"
        },
        {
          "internalType": "string",
          "name": "_merchant",
          "type": "string"
        },
        {
          "internalType": "uint256",
          "name": "_minFlowRate",
          "type": "uint256"
        },
        {
          "internalType": "uint256",
          "name": "_purchaseTime",
          "type": "uint256"
        },
        {
          "internalType": "uint256",
          "name": "_baseAmount",
          "type": "uint256"
        }
      ],
      "name": "mint",
      "outputs": [],
      "stateMutability": "payable",
      "type": "function"
    },
    {
      "inputs": [],
      "name": "name",
      "outputs": [
        {
          "internalType": "string",
          "name": "",
          "type": "string"
        }
      ],
      "stateMutability": "view",
      "type": "function"
    },
    {
      "inputs": [],
      "name": "owner",
      "outputs": [
        {
          "internalType": "address",
          "name": "",
          "type": "address"
        }
      ],
      "stateMutability": "view",
      "type": "function"
    },
    {
      "inputs": [
        {
          "internalType": "uint256",
          "name": "tokenId",
          "type": "uint256"
        }
      ],
      "name": "ownerOf",
      "outputs": [
        {
          "internalType": "address",
          "name": "",
          "type": "address"
        }
      ],
      "stateMutability": "view",
      "type": "function"
    },
    {
      "inputs": [],
      "name": "pause",
      "outputs": [],
      "stateMutability": "nonpayable",
      "type": "function"
    },
    {
      "inputs": [],
      "name": "paused",
      "outputs": [
        {
          "internalType": "bool",
          "name": "",
          "type": "bool"
        }
      ],
      "stateMutability": "view",
      "type": "function"
    },
    {
      "inputs": [
        {
          "internalType": "uint256",
          "name": "",
          "type": "uint256"
        }
      ],
      "name": "policies",
      "outputs": [
        {
          "internalType": "address",
          "name": "policyHolder",
          "type": "address"
        },
        {
          "internalType": "uint256",
          "name": "policyID",
          "type": "uint256"
        },
        {
          "internalType": "string",
          "name": "policyType",
          "type": "string"
        },
        {
          "internalType": "uint256",
          "name": "coverageAmount",
          "type": "uint256"
        },
        {
          "internalType": "string",
          "name": "merchant",
          "type": "string"
        },
        {
          "internalType": "uint256",
          "name": "minFlowRate",
          "type": "uint256"
        },
        {
          "internalType": "uint256",
          "name": "purchaseTime",
          "type": "uint256"
        },
        {
          "internalType": "bool",
          "name": "isActive",
          "type": "bool"
        },
        {
          "internalType": "uint256",
          "name": "amountPaid",
          "type": "uint256"
        },
        {
          "internalType": "uint256",
          "name": "baseAmount",
          "type": "uint256"
        },
        {
          "internalType": "string",
          "name": "textHue",
          "type": "string"
        },
        {
          "internalType": "string",
          "name": "bgHue",
          "type": "string"
        }
      ],
      "stateMutability": "view",
      "type": "function"
    },
    {
      "inputs": [
        {
          "internalType": "uint256",
          "name": "_mod",
          "type": "uint256"
        },
        {
          "internalType": "uint256",
          "name": "_seed",
          "type": "uint256"
        },
        {
          "internalType": "uint256",
          "name": "_salt",
          "type": "uint256"
        }
      ],
      "name": "randomNum",
      "outputs": [
        {
          "internalType": "uint256",
          "name": "",
          "type": "uint256"
        }
      ],
      "stateMutability": "view",
      "type": "function"
    },
    {
      "inputs": [],
      "name": "renounceOwnership",
      "outputs": [],
      "stateMutability": "nonpayable",
      "type": "function"
    },
    {
      "inputs": [
        {
          "internalType": "address",
          "name": "from",
          "type": "address"
        },
        {
          "internalType": "address",
          "name": "to",
          "type": "address"
        },
        {
          "internalType": "uint256",
          "name": "tokenId",
          "type": "uint256"
        }
      ],
      "name": "safeTransferFrom",
      "outputs": [],
      "stateMutability": "nonpayable",
      "type": "function"
    },
    {
      "inputs": [
        {
          "internalType": "address",
          "name": "from",
          "type": "address"
        },
        {
          "internalType": "address",
          "name": "to",
          "type": "address"
        },
        {
          "internalType": "uint256",
          "name": "tokenId",
          "type": "uint256"
        },
        {
          "internalType": "bytes",
          "name": "_data",
          "type": "bytes"
        }
      ],
      "name": "safeTransferFrom",
      "outputs": [],
      "stateMutability": "nonpayable",
      "type": "function"
    },
    {
      "inputs": [
        {
          "internalType": "address",
          "name": "operator",
          "type": "address"
        },
        {
          "internalType": "bool",
          "name": "approved",
          "type": "bool"
        }
      ],
      "name": "setApprovalForAll",
      "outputs": [],
      "stateMutability": "nonpayable",
      "type": "function"
    },
    {
      "inputs": [
        {
          "internalType": "bytes4",
          "name": "interfaceId",
          "type": "bytes4"
        }
      ],
      "name": "supportsInterface",
      "outputs": [
        {
          "internalType": "bool",
          "name": "",
          "type": "bool"
        }
      ],
      "stateMutability": "view",
      "type": "function"
    },
    {
      "inputs": [],
      "name": "symbol",
      "outputs": [
        {
          "internalType": "string",
          "name": "",
          "type": "string"
        }
      ],
      "stateMutability": "view",
      "type": "function"
    },
    {
      "inputs": [
        {
          "internalType": "uint256",
          "name": "index",
          "type": "uint256"
        }
      ],
      "name": "tokenByIndex",
      "outputs": [
        {
          "internalType": "uint256",
          "name": "",
          "type": "uint256"
        }
      ],
      "stateMutability": "view",
      "type": "function"
    },
    {
      "inputs": [
        {
          "internalType": "address",
          "name": "owner",
          "type": "address"
        },
        {
          "internalType": "uint256",
          "name": "index",
          "type": "uint256"
        }
      ],
      "name": "tokenOfOwnerByIndex",
      "outputs": [
        {
          "internalType": "uint256",
          "name": "",
          "type": "uint256"
        }
      ],
      "stateMutability": "view",
      "type": "function"
    },
    {
      "inputs": [
        {
          "internalType": "uint256",
          "name": "_tokenId",
          "type": "uint256"
        }
      ],
      "name": "tokenURI",
      "outputs": [
        {
          "internalType": "string",
          "name": "",
          "type": "string"
        }
      ],
      "stateMutability": "view",
      "type": "function"
    },
    {
      "inputs": [],
      "name": "totalSupply",
      "outputs": [
        {
          "internalType": "uint256",
          "name": "",
          "type": "uint256"
        }
      ],
      "stateMutability": "view",
      "type": "function"
    },
    {
      "inputs": [
        {
          "internalType": "address",
          "name": "from",
          "type": "address"
        },
        {
          "internalType": "address",
          "name": "to",
          "type": "address"
        },
        {
          "internalType": "uint256",
          "name": "tokenId",
          "type": "uint256"
        }
      ],
      "name": "transferFrom",
      "outputs": [],
      "stateMutability": "nonpayable",
      "type": "function"
    },
    {
      "inputs": [
        {
          "internalType": "address",
          "name": "newOwner",
          "type": "address"
        }
      ],
      "name": "transferOwnership",
      "outputs": [],
      "stateMutability": "nonpayable",
      "type": "function"
    },
    {
      "inputs": [],
      "name": "unpause",
      "outputs": [],
      "stateMutability": "nonpayable",
      "type": "function"
    }
  ],
  "transactionHash": "0xb40a78950f13a5fc703865f3d9c1d9200a848a44399153eff3615349b6171c36",
  "args": [
    "SafeZen",
    "SZ",
    "0xeD5B5b32110c3Ded02a07c8b8e97513FAfb883B6",
    "0xF4C5310E51F6079F601a5fb7120bC72a70b96e2A",
    "0x15F0Ca26781C3852f8166eD2ebce5D18265cceb7",
    "0xe7f1725E7734CE288F8367e1Bb143E90bb3F0512",
    "0x5FbDB2315678afecb367f032d93F642f64180aa3"
  ],
  "numDeployments": 1,
  "solcInputHash": "b8db27ae7301b8d0129cc619a3c6decd",
  "bytecode": "0x60806040523480156200001157600080fd5b506040516200438a3803806200438a833981016040819052620000349162000327565b8651879087906200004d9060009060208501906200019b565b508051620000639060019060208401906200019b565b505050620000806200007a6200014560201b60201c565b62000149565b600a805460ff60a01b19169055600b80546001600160a01b038088166001600160a01b03199283168117909355600c8054888316908416179055600d805491871691909216179055620000d757620000d7620003fe565b600c546001600160a01b0316620000f257620000f2620003fe565b600d546001600160a01b03166200010d576200010d620003fe565b600e80546001600160a01b039384166001600160a01b031991821617909155600f805492909316911617905550620004519350505050565b3390565b600a80546001600160a01b038381166001600160a01b0319831681179093556040519116919082907f8be0079c531659141344cd1fd0a4f28419497f9722a3daafe3b4186f6b6457e090600090a35050565b828054620001a99062000414565b90600052602060002090601f016020900481019282620001cd576000855562000218565b82601f10620001e857805160ff191683800117855562000218565b8280016001018555821562000218579182015b8281111562000218578251825591602001919060010190620001fb565b50620002269291506200022a565b5090565b5b808211156200022657600081556001016200022b565b634e487b7160e01b600052604160045260246000fd5b600082601f8301126200026957600080fd5b81516001600160401b038082111562000286576200028662000241565b604051601f8301601f19908116603f01168101908282118183101715620002b157620002b162000241565b81604052838152602092508683858801011115620002ce57600080fd5b600091505b83821015620002f25785820183015181830184015290820190620002d3565b83821115620003045760008385830101525b9695505050505050565b6001600160a01b03811681146200032457600080fd5b50565b600080600080600080600060e0888a0312156200034357600080fd5b87516001600160401b03808211156200035b57600080fd5b620003698b838c0162000257565b985060208a01519150808211156200038057600080fd5b506200038f8a828b0162000257565b9650506040880151620003a2816200030e565b6060890151909550620003b5816200030e565b6080890151909450620003c8816200030e565b60a0890151909350620003db816200030e565b60c0890151909250620003ee816200030e565b8091505092959891949750929550565b634e487b7160e01b600052600160045260246000fd5b600181811c908216806200042957607f821691505b602082108114156200044b57634e487b7160e01b600052602260045260246000fd5b50919050565b613f2980620004616000396000f3fe6080604052600436106101cd5760003560e01c8063715018a6116100f7578063a3481e7611610095578063e8a96b4611610064578063e8a96b461461051e578063e985e9c51461053e578063edf8770414610587578063f2fde38b146105a757600080fd5b8063a3481e7614610493578063b88d4fde146104a6578063c87b56dd146104c6578063d3e89483146104e657600080fd5b80638456cb59116100d15780638456cb591461042b5780638da5cb5b1461044057806395d89b411461045e578063a22cb4651461047357600080fd5b8063715018a6146103d657806382772481146103eb57806382afd23b1461040b57600080fd5b80632f745c591161016f5780634f6ccce71161013e5780634f6ccce7146103575780635c975abb146103775780636352211e1461039657806370a08231146103b657600080fd5b80632f745c59146102e25780633f4ba83a1461030257806342842e0e146103175780634e5b3c7c1461033757600080fd5b8063095ea7b3116101ab578063095ea7b31461026157806318160ddd1461028357806323b872dd146102a257806328294640146102c257600080fd5b806301ffc9a7146101d257806306fdde0314610207578063081812fc14610229575b600080fd5b3480156101de57600080fd5b506101f26101ed366004612e12565b6105c7565b60405190151581526020015b60405180910390f35b34801561021357600080fd5b5061021c6105f2565b6040516101fe9190612e8e565b34801561023557600080fd5b50610249610244366004612ea1565b610684565b6040516001600160a01b0390911681526020016101fe565b34801561026d57600080fd5b5061028161027c366004612ed1565b61071e565b005b34801561028f57600080fd5b506008545b6040519081526020016101fe565b3480156102ae57600080fd5b506102816102bd366004612efb565b610834565b3480156102ce57600080fd5b506102946102dd366004612f37565b610865565b3480156102ee57600080fd5b506102946102fd366004612ed1565b6108cd565b34801561030e57600080fd5b50610281610963565b34801561032357600080fd5b50610281610332366004612efb565b610997565b34801561034357600080fd5b50600d54610249906001600160a01b031681565b34801561036357600080fd5b50610294610372366004612ea1565b6109b2565b34801561038357600080fd5b50600a54600160a01b900460ff166101f2565b3480156103a257600080fd5b506102496103b1366004612ea1565b610a45565b3480156103c257600080fd5b506102946103d1366004612f63565b610abc565b3480156103e257600080fd5b50610281610b43565b3480156103f757600080fd5b5061021c610406366004612ea1565b610b77565b34801561041757600080fd5b506101f2610426366004612ea1565b61102d565b34801561043757600080fd5b506102816110fa565b34801561044c57600080fd5b50600a546001600160a01b0316610249565b34801561046a57600080fd5b5061021c61112c565b34801561047f57600080fd5b5061028161048e366004612f7e565b61113b565b6102816104a1366004613066565b61114a565b3480156104b257600080fd5b506102816104c13660046130ef565b61130f565b3480156104d257600080fd5b5061021c6104e1366004612ea1565b611347565b3480156104f257600080fd5b50610506610501366004612ea1565b6113cf565b6040516101fe9c9b9a9998979695949392919061316b565b34801561052a57600080fd5b50610249610539366004612ea1565b61165f565b34801561054a57600080fd5b506101f2610559366004613210565b6001600160a01b03918216600090815260056020908152604080832093909416825291909152205460ff1690565b34801561059357600080fd5b5061021c6105a2366004612ea1565b61192f565b3480156105b357600080fd5b506102816105c2366004612f63565b611c4b565b60006001600160e01b0319821663780e9d6360e01b14806105ec57506105ec82611ce6565b92915050565b60606000805461060190613243565b80601f016020809104026020016040519081016040528092919081815260200182805461062d90613243565b801561067a5780601f1061064f5761010080835404028352916020019161067a565b820191906000526020600020905b81548152906001019060200180831161065d57829003601f168201915b5050505050905090565b6000818152600260205260408120546001600160a01b03166107025760405162461bcd60e51b815260206004820152602c60248201527f4552433732313a20617070726f76656420717565727920666f72206e6f6e657860448201526b34b9ba32b73a103a37b5b2b760a11b60648201526084015b60405180910390fd5b506000908152600460205260409020546001600160a01b031690565b600061072982610a45565b9050806001600160a01b0316836001600160a01b031614156107975760405162461bcd60e51b815260206004820152602160248201527f4552433732313a20617070726f76616c20746f2063757272656e74206f776e656044820152603960f91b60648201526084016106f9565b336001600160a01b03821614806107b357506107b38133610559565b6108255760405162461bcd60e51b815260206004820152603860248201527f4552433732313a20617070726f76652063616c6c6572206973206e6f74206f7760448201527f6e6572206e6f7220617070726f76656420666f7220616c6c000000000000000060648201526084016106f9565b61082f8383611d36565b505050565b61083e3382611da4565b61085a5760405162461bcd60e51b81526004016106f99061327e565b61082f838383611e9b565b604080514260208201526bffffffffffffffffffffffff193360601b16918101919091526054810183905260748101829052600090819085906094016040516020818303038152906040528051906020012060001c6108c491906132e5565b95945050505050565b60006108d883610abc565b821061093a5760405162461bcd60e51b815260206004820152602b60248201527f455243373231456e756d657261626c653a206f776e657220696e646578206f7560448201526a74206f6620626f756e647360a81b60648201526084016106f9565b506001600160a01b03919091166000908152600660209081526040808320938352929052205490565b600a546001600160a01b0316331461098d5760405162461bcd60e51b81526004016106f9906132f9565b610995612042565b565b61082f8383836040518060200160405280600081525061130f565b60006109bd60085490565b8210610a205760405162461bcd60e51b815260206004820152602c60248201527f455243373231456e756d657261626c653a20676c6f62616c20696e646578206f60448201526b7574206f6620626f756e647360a01b60648201526084016106f9565b60088281548110610a3357610a3361332e565b90600052602060002001549050919050565b6000818152600260205260408120546001600160a01b0316806105ec5760405162461bcd60e51b815260206004820152602960248201527f4552433732313a206f776e657220717565727920666f72206e6f6e657869737460448201526832b73a103a37b5b2b760b91b60648201526084016106f9565b60006001600160a01b038216610b275760405162461bcd60e51b815260206004820152602a60248201527f4552433732313a2062616c616e636520717565727920666f7220746865207a65604482015269726f206164647265737360b01b60648201526084016106f9565b506001600160a01b031660009081526003602052604090205490565b600a546001600160a01b03163314610b6d5760405162461bcd60e51b81526004016106f9906132f9565b61099560006120df565b600081815260106020908152604080832081516101808101835281546001600160a01b03168152600182015493810193909352600281018054606095949384019190610bc290613243565b80601f0160208091040260200160405190810160405280929190818152602001828054610bee90613243565b8015610c3b5780601f10610c1057610100808354040283529160200191610c3b565b820191906000526020600020905b815481529060010190602001808311610c1e57829003601f168201915b5050505050815260200160038201548152602001600482018054610c5e90613243565b80601f0160208091040260200160405190810160405280929190818152602001828054610c8a90613243565b8015610cd75780601f10610cac57610100808354040283529160200191610cd7565b820191906000526020600020905b815481529060010190602001808311610cba57829003601f168201915b50505091835250506005820154602082015260068201546040820152600782015460ff161515606082015260088201546080820152600982015460a0820152600a8201805460c090920191610d2b90613243565b80601f0160208091040260200160405190810160405280929190818152602001828054610d5790613243565b8015610da45780601f10610d7957610100808354040283529160200191610da4565b820191906000526020600020905b815481529060010190602001808311610d8757829003601f168201915b50505050508152602001600b82018054610dbd90613243565b80601f0160208091040260200160405190810160405280929190818152602001828054610de990613243565b8015610e365780601f10610e0b57610100808354040283529160200191610e36565b820191906000526020600020905b815481529060010190602001808311610e1957829003601f168201915b50505050508152505090506000806000610e538460c00151612131565b9250925092506000846101600151610e6e8660000151612157565b8660800151604051602001610e8593929190613360565b60405160208183030381529060405290506000610ea5866020015161229e565b8660400151610eb7886060015161229e565b604051602001610ec993929190613583565b60405160208183030381529060405290506000610ee98760a0015161229e565b610ef28561229e565b610efb8761229e565b610f048961229e565b604051602001610f179493929190613720565b60405160208183030381529060405290506000610f338a61102d565b604051602001610fe09190600080516020613e548339815191528152600080516020613ed48339815191526020820152600080516020613e7483398151915260408201527f793d223430302220783d22353025222066696c6c3d2223303030303030223e00606082015269034b9a0b1ba34bb329d160b51b607f82015290151560f81b6089820152661e17ba32bc3a1f60c91b608a820152651e17b9bb339f60d11b609182015260970190565b604051602081830303815290604052905061101f8484848460405160200161100b9493929190613842565b60405160208183030381529060405261239c565b9a9950505050505050505050565b600c54600d5460009182916001600160a01b039182169163e6a1e88891166110548661165f565b6040516001600160e01b031960e085901b1681526001600160a01b03928316600482015291166024820152306044820152606401608060405180830381865afa1580156110a5573d6000803e3d6000fd5b505050506040513d601f19601f820116820180604052508101906110c99190613899565b5050600094855260106020526040909420600501546bffffffffffffffffffffffff90941693909310159392505050565b600a546001600160a01b031633146111245760405162461bcd60e51b81526004016106f9906132f9565b610995612504565b60606001805461060190613243565b61114633838361258c565b5050565b600061115560085490565b90506000604051806101800160405280336001600160a01b0316815260200183600161118191906138f3565b8152602001898152602001888152602001878152602001868152602001858152602001600015158152602001600081526020018481526020016111cf6111ca6101694487610865565b61229e565b81526020016111e46111ca6101694287610865565b9052905080601060006111f88560016138f3565b81526020808201929092526040908101600020835181546001600160a01b0319166001600160a01b03909116178155838301516001820155908301518051919261124a92600285019290910190612d63565b506060820151600382015560808201518051611270916004840191602090910190612d63565b5060a0820151600582015560c0820151600682015560e082015160078201805460ff19169115159190911790556101008201516008820155610120820151600982015561014082015180516112cf91600a840191602090910190612d63565b5061016082015180516112ec91600b840191602090910190612d63565b5061130591503390506113008460016138f3565b61265b565b5050505050505050565b6113193383611da4565b6113355760405162461bcd60e51b81526004016106f99061327e565b61134184848484612675565b50505050565b6000818152600260205260409020546060906001600160a01b03166113c65760405162461bcd60e51b815260206004820152602f60248201527f4552433732314d657461646174613a2055524920717565727920666f72206e6f60448201526e3732bc34b9ba32b73a103a37b5b2b760891b60648201526084016106f9565b6105ec8261192f565b6010602052600090815260409020805460018201546002830180546001600160a01b0390931693919261140190613243565b80601f016020809104026020016040519081016040528092919081815260200182805461142d90613243565b801561147a5780601f1061144f5761010080835404028352916020019161147a565b820191906000526020600020905b81548152906001019060200180831161145d57829003601f168201915b50505050509080600301549080600401805461149590613243565b80601f01602080910402602001604051908101604052809291908181526020018280546114c190613243565b801561150e5780601f106114e35761010080835404028352916020019161150e565b820191906000526020600020905b8154815290600101906020018083116114f157829003601f168201915b5050505050908060050154908060060154908060070160009054906101000a900460ff169080600801549080600901549080600a01805461154e90613243565b80601f016020809104026020016040519081016040528092919081815260200182805461157a90613243565b80156115c75780601f1061159c576101008083540402835291602001916115c7565b820191906000526020600020905b8154815290600101906020018083116115aa57829003601f168201915b50505050509080600b0180546115dc90613243565b80601f016020809104026020016040519081016040528092919081815260200182805461160890613243565b80156116555780601f1061162a57610100808354040283529160200191611655565b820191906000526020600020905b81548152906001019060200180831161163857829003601f168201915b505050505090508c565b600081815260106020908152604080832081516101808101835281546001600160a01b03168152600182015493810193909352600281018054859493840191906116a890613243565b80601f01602080910402602001604051908101604052809291908181526020018280546116d490613243565b80156117215780601f106116f657610100808354040283529160200191611721565b820191906000526020600020905b81548152906001019060200180831161170457829003601f168201915b505050505081526020016003820154815260200160048201805461174490613243565b80601f016020809104026020016040519081016040528092919081815260200182805461177090613243565b80156117bd5780601f10611792576101008083540402835291602001916117bd565b820191906000526020600020905b8154815290600101906020018083116117a057829003601f168201915b50505091835250506005820154602082015260068201546040820152600782015460ff161515606082015260088201546080820152600982015460a0820152600a8201805460c09092019161181190613243565b80601f016020809104026020016040519081016040528092919081815260200182805461183d90613243565b801561188a5780601f1061185f5761010080835404028352916020019161188a565b820191906000526020600020905b81548152906001019060200180831161186d57829003601f168201915b50505050508152602001600b820180546118a390613243565b80601f01602080910402602001604051908101604052809291908181526020018280546118cf90613243565b801561191c5780601f106118f15761010080835404028352916020019161191c565b820191906000526020600020905b8154815290600101906020018083116118ff57829003601f168201915b5050509190925250509051949350505050565b600081815260106020908152604080832081516101808101835281546001600160a01b0316815260018201549381019390935260028101805460609594938401919061197a90613243565b80601f01602080910402602001604051908101604052809291908181526020018280546119a690613243565b80156119f35780601f106119c8576101008083540402835291602001916119f3565b820191906000526020600020905b8154815290600101906020018083116119d657829003601f168201915b5050505050815260200160038201548152602001600482018054611a1690613243565b80601f0160208091040260200160405190810160405280929190818152602001828054611a4290613243565b8015611a8f5780601f10611a6457610100808354040283529160200191611a8f565b820191906000526020600020905b815481529060010190602001808311611a7257829003601f168201915b50505091835250506005820154602082015260068201546040820152600782015460ff161515606082015260088201546080820152600982015460a0820152600a8201805460c090920191611ae390613243565b80601f0160208091040260200160405190810160405280929190818152602001828054611b0f90613243565b8015611b5c5780601f10611b3157610100808354040283529160200191611b5c565b820191906000526020600020905b815481529060010190602001808311611b3f57829003601f168201915b50505050508152602001600b82018054611b7590613243565b80601f0160208091040260200160405190810160405280929190818152602001828054611ba190613243565b8015611bee5780601f10611bc357610100808354040283529160200191611bee565b820191906000526020600020905b815481529060010190602001808311611bd157829003601f168201915b5050505050815250509050611c2481604001518260800151611c0f86610b77565b845160405161100b949392919060200161390b565b604051602001611c349190613a43565b604051602081830303815290604052915050919050565b600a546001600160a01b03163314611c755760405162461bcd60e51b81526004016106f9906132f9565b6001600160a01b038116611cda5760405162461bcd60e51b815260206004820152602660248201527f4f776e61626c653a206e6577206f776e657220697320746865207a65726f206160448201526564647265737360d01b60648201526084016106f9565b611ce3816120df565b50565b60006001600160e01b031982166380ac58cd60e01b1480611d1757506001600160e01b03198216635b5e139f60e01b145b806105ec57506301ffc9a760e01b6001600160e01b03198316146105ec565b600081815260046020526040902080546001600160a01b0319166001600160a01b0384169081179091558190611d6b82610a45565b6001600160a01b03167f8c5be1e5ebec7d5bd14f71427d1e84f3dd0314c0f7b2291e5b200ac8c7c3b92560405160405180910390a45050565b6000818152600260205260408120546001600160a01b0316611e1d5760405162461bcd60e51b815260206004820152602c60248201527f4552433732313a206f70657261746f7220717565727920666f72206e6f6e657860448201526b34b9ba32b73a103a37b5b2b760a11b60648201526084016106f9565b6000611e2883610a45565b9050806001600160a01b0316846001600160a01b03161480611e6f57506001600160a01b0380821660009081526005602090815260408083209388168352929052205460ff165b80611e935750836001600160a01b0316611e8884610684565b6001600160a01b0316145b949350505050565b826001600160a01b0316611eae82610a45565b6001600160a01b031614611f125760405162461bcd60e51b815260206004820152602560248201527f4552433732313a207472616e736665722066726f6d20696e636f72726563742060448201526437bbb732b960d91b60648201526084016106f9565b6001600160a01b038216611f745760405162461bcd60e51b8152602060048201526024808201527f4552433732313a207472616e7366657220746f20746865207a65726f206164646044820152637265737360e01b60648201526084016106f9565b611f7f8383836126a8565b611f8a600082611d36565b6001600160a01b0383166000908152600360205260408120805460019290611fb3908490613a88565b90915550506001600160a01b0382166000908152600360205260408120805460019290611fe19084906138f3565b909155505060008181526002602052604080822080546001600160a01b0319166001600160a01b0386811691821790925591518493918716917fddf252ad1be2c89b69c2b068fc378daa952ba7f163c4a11628f55a4df523b3ef91a4505050565b600a54600160a01b900460ff166120925760405162461bcd60e51b815260206004820152601460248201527314185d5cd8589b194e881b9bdd081c185d5cd95960621b60448201526064016106f9565b600a805460ff60a01b191690557f5db9ee0a495bf2e6ff9c91a7834c1ba4fdd244a5e8aa4e537bd38aeae4b073aa335b6040516001600160a01b03909116815260200160405180910390a1565b600a80546001600160a01b038381166001600160a01b0319831681179093556040519116919082907f8be0079c531659141344cd1fd0a4f28419497f9722a3daafe3b4186f6b6457e090600090a35050565b6000808061214a6121456201518086613a9f565b6126ed565b9196909550909350915050565b60408051602880825260608281019093526000919060208201818036833701905050905060005b6014811015612297576000612194826013613a88565b61219f906008613ab3565b6121aa906002613bb6565b6121bd906001600160a01b038716613a9f565b60f81b9050600060108260f81c6121d49190613bc2565b60f81b905060008160f81c60106121eb9190613be4565b8360f81c6121f99190613c05565b60f81b905061220782612861565b85612213866002613ab3565b815181106122235761222361332e565b60200101906001600160f81b031916908160001a90535061224381612861565b8561224f866002613ab3565b61225a9060016138f3565b8151811061226a5761226a61332e565b60200101906001600160f81b031916908160001a905350505050808061228f90613c28565b91505061217e565b5092915050565b6060816122c25750506040805180820190915260018152600360fc1b602082015290565b8160005b81156122ec57806122d681613c28565b91506122e59050600a83613a9f565b91506122c6565b60008167ffffffffffffffff81111561230757612307612fba565b6040519080825280601f01601f191660200182016040528015612331576020820181803683370190505b5090505b8415611e9357612346600183613a88565b9150612353600a866132e5565b61235e9060306138f3565b60f81b8183815181106123735761237361332e565b60200101906001600160f81b031916908160001a905350612395600a86613a9f565b9450612335565b60608151600014156123bc57505060408051602081019091526000815290565b6000604051806060016040528060408152602001613e9460409139905060006003845160026123eb91906138f3565b6123f59190613a9f565b612400906004613ab3565b9050600061240f8260206138f3565b67ffffffffffffffff81111561242757612427612fba565b6040519080825280601f01601f191660200182016040528015612451576020820181803683370190505b509050818152600183018586518101602084015b818310156124bf5760039283018051603f601282901c811687015160f890811b8552600c83901c8216880151811b6001860152600683901c8216880151811b60028601529116860151901b93820193909352600401612465565b6003895106600181146124d957600281146124ea576124f6565b613d3d60f01b6001198301526124f6565b603d60f81b6000198301525b509398975050505050505050565b600a54600160a01b900460ff16156125515760405162461bcd60e51b815260206004820152601060248201526f14185d5cd8589b194e881c185d5cd95960821b60448201526064016106f9565b600a805460ff60a01b1916600160a01b1790557f62e78cea01bee320cd4e420270b5ea74000d11b0c9f74754ebdbfc544b05a2586120c23390565b816001600160a01b0316836001600160a01b031614156125ee5760405162461bcd60e51b815260206004820152601960248201527f4552433732313a20617070726f766520746f2063616c6c65720000000000000060448201526064016106f9565b6001600160a01b03838116600081815260056020908152604080832094871680845294825291829020805460ff191686151590811790915591519182527f17307eab39ab6107e8899845ad3d59bd9653f200f220920489ca2b5937696c31910160405180910390a3505050565b61114682826040518060200160405280600081525061289c565b612680848484611e9b565b61268c848484846128cf565b6113415760405162461bcd60e51b81526004016106f990613c43565b6126b38383836129cd565b600090815260106020526040902080546001600160a01b0319166001600160a01b0392909216919091178155600701805460ff1916905550565b60008080838162253d8c6127048362010bd9613c95565b61270e9190613c95565b9050600062023ab1612721836004613cd6565b61272b9190613d5b565b9050600461273c8262023ab1613cd6565b612747906003613c95565b6127519190613d5b565b61275b9083613d89565b9150600062164b0961276e846001613c95565b61277a90610fa0613cd6565b6127849190613d5b565b90506004612794826105b5613cd6565b61279e9190613d5b565b6127a89084613d89565b6127b390601f613c95565b9250600061098f6127c5856050613cd6565b6127cf9190613d5b565b9050600060506127e18361098f613cd6565b6127eb9190613d5b565b6127f59086613d89565b9050612802600b83613d5b565b945061280f85600c613cd6565b61281a836002613c95565b6128249190613d89565b91508483612833603187613d89565b61283e906064613cd6565b6128489190613c95565b6128529190613c95565b9a919950975095505050505050565b6000600a60f883901c10156128885761287f60f883901c6030613dc8565b60f81b92915050565b61287f60f883901c6057613dc8565b919050565b6128a68383612a85565b6128b360008484846128cf565b61082f5760405162461bcd60e51b81526004016106f990613c43565b60006001600160a01b0384163b156129c257604051630a85bd0160e11b81526001600160a01b0385169063150b7a0290612913903390899088908890600401613ded565b6020604051808303816000875af192505050801561294e575060408051601f3d908101601f1916820190925261294b91810190613e20565b60015b6129a8573d80801561297c576040519150601f19603f3d011682016040523d82523d6000602084013e612981565b606091505b5080516129a05760405162461bcd60e51b81526004016106f990613c43565b805181602001fd5b6001600160e01b031916630a85bd0160e11b149050611e93565b506001949350505050565b6001600160a01b038316612a2857612a2381600880546000838152600960205260408120829055600182018355919091527ff3f7a9fe364faab93b216da50a3214154f22a0a2b415b23a84c8169e8b636ee30155565b612a4b565b816001600160a01b0316836001600160a01b031614612a4b57612a4b8382612bd3565b6001600160a01b038216612a625761082f81612c70565b826001600160a01b0316826001600160a01b03161461082f5761082f8282612d1f565b6001600160a01b038216612adb5760405162461bcd60e51b815260206004820181905260248201527f4552433732313a206d696e7420746f20746865207a65726f206164647265737360448201526064016106f9565b6000818152600260205260409020546001600160a01b031615612b405760405162461bcd60e51b815260206004820152601c60248201527f4552433732313a20746f6b656e20616c7265616479206d696e7465640000000060448201526064016106f9565b612b4c600083836126a8565b6001600160a01b0382166000908152600360205260408120805460019290612b759084906138f3565b909155505060008181526002602052604080822080546001600160a01b0319166001600160a01b03861690811790915590518392907fddf252ad1be2c89b69c2b068fc378daa952ba7f163c4a11628f55a4df523b3ef908290a45050565b60006001612be084610abc565b612bea9190613a88565b600083815260076020526040902054909150808214612c3d576001600160a01b03841660009081526006602090815260408083208584528252808320548484528184208190558352600790915290208190555b5060009182526007602090815260408084208490556001600160a01b039094168352600681528383209183525290812055565b600854600090612c8290600190613a88565b60008381526009602052604081205460088054939450909284908110612caa57612caa61332e565b906000526020600020015490508060088381548110612ccb57612ccb61332e565b6000918252602080832090910192909255828152600990915260408082208490558582528120556008805480612d0357612d03613e3d565b6001900381819060005260206000200160009055905550505050565b6000612d2a83610abc565b6001600160a01b039093166000908152600660209081526040808320868452825280832085905593825260079052919091209190915550565b828054612d6f90613243565b90600052602060002090601f016020900481019282612d915760008555612dd7565b82601f10612daa57805160ff1916838001178555612dd7565b82800160010185558215612dd7579182015b82811115612dd7578251825591602001919060010190612dbc565b50612de3929150612de7565b5090565b5b80821115612de35760008155600101612de8565b6001600160e01b031981168114611ce357600080fd5b600060208284031215612e2457600080fd5b8135612e2f81612dfc565b9392505050565b60005b83811015612e51578181015183820152602001612e39565b838111156113415750506000910152565b60008151808452612e7a816020860160208601612e36565b601f01601f19169290920160200192915050565b602081526000612e2f6020830184612e62565b600060208284031215612eb357600080fd5b5035919050565b80356001600160a01b038116811461289757600080fd5b60008060408385031215612ee457600080fd5b612eed83612eba565b946020939093013593505050565b600080600060608486031215612f1057600080fd5b612f1984612eba565b9250612f2760208501612eba565b9150604084013590509250925092565b600080600060608486031215612f4c57600080fd5b505081359360208301359350604090920135919050565b600060208284031215612f7557600080fd5b612e2f82612eba565b60008060408385031215612f9157600080fd5b612f9a83612eba565b915060208301358015158114612faf57600080fd5b809150509250929050565b634e487b7160e01b600052604160045260246000fd5b600067ffffffffffffffff80841115612feb57612feb612fba565b604051601f8501601f19908116603f0116810190828211818310171561301357613013612fba565b8160405280935085815286868601111561302c57600080fd5b858560208301376000602087830101525050509392505050565b600082601f83011261305757600080fd5b612e2f83833560208501612fd0565b60008060008060008060c0878903121561307f57600080fd5b863567ffffffffffffffff8082111561309757600080fd5b6130a38a838b01613046565b97506020890135965060408901359150808211156130c057600080fd5b506130cd89828a01613046565b945050606087013592506080870135915060a087013590509295509295509295565b6000806000806080858703121561310557600080fd5b61310e85612eba565b935061311c60208601612eba565b925060408501359150606085013567ffffffffffffffff81111561313f57600080fd5b8501601f8101871361315057600080fd5b61315f87823560208401612fd0565b91505092959194509250565b6001600160a01b038d168152602081018c9052610180604082018190526000906131978382018e612e62565b90508b606084015282810360808401526131b1818c612e62565b90508960a08401528860c084015287151560e084015286610100840152856101208401528281036101408401526131e88186612e62565b90508281036101608401526131fd8185612e62565b9f9e505050505050505050505050505050565b6000806040838503121561322357600080fd5b61322c83612eba565b915061323a60208401612eba565b90509250929050565b600181811c9082168061325757607f821691505b6020821081141561327857634e487b7160e01b600052602260045260246000fd5b50919050565b60208082526031908201527f4552433732313a207472616e736665722063616c6c6572206973206e6f74206f6040820152701ddb995c881b9bdc88185c1c1c9bdd9959607a1b606082015260800190565b634e487b7160e01b600052601260045260246000fd5b6000826132f4576132f46132cf565b500690565b6020808252818101527f4f776e61626c653a2063616c6c6572206973206e6f7420746865206f776e6572604082015260600190565b634e487b7160e01b600052603260045260246000fd5b60008151613356818560208601612e36565b9290920192915050565b7f3c7376672077696474683d2235303022206865696768743d223530302220786d81527f6c6e733d22687474703a2f2f7777772e77332e6f72672f323030302f737667226020820152601f60f91b604082015275078e4cac6e840f27a44604440ccd2d8d87a44d0e6d8560531b6041820152600084516133e7816057850160208901612e36565b7f2c313030252c3830252922207374726f6b653d22233030302220783d222d302e6057918401918201527f35222077696474683d2235303022206865696768743d22353030222f3e0000006077820152600080516020613e548339815191526094820152600080516020613ed483398151915260b48201527f793d224e6f746f2053616e73204a502220666f6e742d73697a653d223134222060d48201527f793d2235302220783d22353025222066696c6c3d2223303030303030223e000060f48201526135796134e561357361355d6134f8836134df61011288016f0a0ded8d2c6f290ded8c8cae4744060f60831b815260100190565b8b613344565b661e17ba32bc3a1f60c91b815260070190565b600080516020613e548339815191528152600080516020613ed48339815191526020820152600080516020613e7483398151915260408201527f793d223130302220783d22353025222066696c6c3d2223303030303030223e006060820152607f0190565b690283937bb34b232b91d160b51b8152600a0190565b86613344565b9695505050505050565b6000600080516020613e54833981519152808352600080516020613ed4833981519152806020850152600080516020613e748339815191528060408601527f793d223135302220783d22353025222066696c6c3d2223303030303030223e0060608601526902837b634b1bca4a21d160b51b607f860152875161360d816089880160208c01612e36565b8086019050661e17ba32bc3a1f60c91b60898201528360908201528260b08201528160d08201527f793d223230302220783d22353025222066696c6c3d2223303030303030223e0060f08201526137136134e561370d6136f76136926134e561368c61010f88016b02837b634b1bcaa3cb8329d160a51b8152600c0190565b8e613344565b600080516020613e548339815191528152600080516020613ed48339815191526020820152600080516020613e7483398151915260408201527f793d223235302220783d22353025222066696c6c3d2223303030303030223e006060820152607f0190565b69021b7bb32b930b3b29d160b51b8152600a0190565b89613344565b9998505050505050505050565b6000600080516020613e54833981519152808352600080516020613ed4833981519152806020850152600080516020613e748339815191528060408601527f793d223330302220783d22353025222066696c6c3d2223303030303030223e006060860152660283934b1b29d160cd1b607f86015288516137a7816086880160208d01612e36565b8086019050661e17ba32bc3a1f60c91b608682015283608d8201528260ad8201528160cd8201527f793d223335302220783d22353025222066696c6c3d2223303030303030223e0060ed82015261101f6134e561370d61382f61383c61382f61382961010c88016e0283ab931b430b9b2902230ba329d1608d1b8152600f0190565b8f613344565b602f60f81b815260010190565b8c613344565b60008551613854818460208a01612e36565b855190830190613868818360208a01612e36565b855191019061387b818360208901612e36565b845191019061388e818360208801612e36565b019695505050505050565b600080600080608085870312156138af57600080fd5b84519350602085015180600b0b81146138c757600080fd5b6040860151606090960151949790965092505050565b634e487b7160e01b600052601160045260246000fd5b60008219821115613906576139066138dd565b500190565b683d913730b6b2911d1160b91b81528451600090613930816009850160208a01612e36565b71111610113232b9b1b934b83a34b7b7111d1160711b600991840191820152855161396281601b840160208a01612e36565b6c1116101134b6b0b3b2911d101160991b601b92909101918201527f646174613a696d6167652f7376672b786d6c3b6261736536342c000000000000602882015284516139b6816042840160208901612e36565b7f222c202261747472696275746573223a205b7b2274726169745f74797065223a604292909101918201526d112837b634b1bca437b63232b91160911b60628201526916113b30b63ab2911d1160b11b6070820152613a29607a82018560601b6bffffffffffffffffffffffff19169052565b63227d5d7d60e01b608e8201526092019695505050505050565b7f646174613a6170706c69636174696f6e2f6a736f6e3b6261736536342c000000815260008251613a7b81601d850160208701612e36565b91909101601d0192915050565b600082821015613a9a57613a9a6138dd565b500390565b600082613aae57613aae6132cf565b500490565b6000816000190483118215151615613acd57613acd6138dd565b500290565b600181815b80851115613b0d578160001904821115613af357613af36138dd565b80851615613b0057918102915b93841c9390800290613ad7565b509250929050565b600082613b24575060016105ec565b81613b31575060006105ec565b8160018114613b475760028114613b5157613b6d565b60019150506105ec565b60ff841115613b6257613b626138dd565b50506001821b6105ec565b5060208310610133831016604e8410600b8410161715613b90575081810a6105ec565b613b9a8383613ad2565b8060001904821115613bae57613bae6138dd565b029392505050565b6000612e2f8383613b15565b600060ff831680613bd557613bd56132cf565b8060ff84160491505092915050565b600060ff821660ff84168160ff0481118215151615613bae57613bae6138dd565b600060ff821660ff841680821015613c1f57613c1f6138dd565b90039392505050565b6000600019821415613c3c57613c3c6138dd565b5060010190565b60208082526032908201527f4552433732313a207472616e7366657220746f206e6f6e20455243373231526560408201527131b2b4bb32b91034b6b83632b6b2b73a32b960711b606082015260800190565b600080821280156001600160ff1b0384900385131615613cb757613cb76138dd565b600160ff1b8390038412811615613cd057613cd06138dd565b50500190565b60006001600160ff1b0381841382841380821686840486111615613cfc57613cfc6138dd565b600160ff1b6000871282811687830589121615613d1b57613d1b6138dd565b60008712925087820587128484161615613d3757613d376138dd565b87850587128184161615613d4d57613d4d6138dd565b505050929093029392505050565b600082613d6a57613d6a6132cf565b600160ff1b821460001984141615613d8457613d846138dd565b500590565b60008083128015600160ff1b850184121615613da757613da76138dd565b6001600160ff1b0384018313811615613dc257613dc26138dd565b50500390565b600060ff821660ff84168060ff03821115613de557613de56138dd565b019392505050565b6001600160a01b038581168252841660208201526040810183905260806060820181905260009061357990830184612e62565b600060208284031215613e3257600080fd5b8151612e2f81612dfc565b634e487b7160e01b600052603160045260246000fdfe3c7465787420646f6d696e616e742d626173656c696e653d226d6964646c6522793d224e6f746f2053616e73204a502220666f6e742d73697a653d22323022204142434445464748494a4b4c4d4e4f505152535455565758595a6162636465666768696a6b6c6d6e6f707172737475767778797a303132333435363738392b2f20746578742d616e63686f723d226d6964646c652220666f6e742d66616d696ca26469706673582212203bc1bcc8fd9faa7d298c280c69c2f89ab6b4659bf9aae7e3326da9e01b62e10a64736f6c634300080a0033",
  "devdoc": {
    "kind": "dev",
    "methods": {
      "approve(address,uint256)": {
        "details": "See {IERC721-approve}."
      },
      "balanceOf(address)": {
        "details": "See {IERC721-balanceOf}."
      },
      "getApproved(uint256)": {
        "details": "See {IERC721-getApproved}."
      },
      "isApprovedForAll(address,address)": {
        "details": "See {IERC721-isApprovedForAll}."
      },
      "name()": {
        "details": "See {IERC721Metadata-name}."
      },
      "owner()": {
        "details": "Returns the address of the current owner."
      },
      "ownerOf(uint256)": {
        "details": "See {IERC721-ownerOf}."
      },
      "paused()": {
        "details": "Returns true if the contract is paused, and false otherwise."
      },
      "renounceOwnership()": {
        "details": "Leaves the contract without owner. It will not be possible to call `onlyOwner` functions anymore. Can only be called by the current owner. NOTE: Renouncing ownership will leave the contract without an owner, thereby removing any functionality that is only available to the owner."
      },
      "safeTransferFrom(address,address,uint256)": {
        "details": "See {IERC721-safeTransferFrom}."
      },
      "safeTransferFrom(address,address,uint256,bytes)": {
        "details": "See {IERC721-safeTransferFrom}."
      },
      "setApprovalForAll(address,bool)": {
        "details": "See {IERC721-setApprovalForAll}."
      },
      "supportsInterface(bytes4)": {
        "details": "See {IERC165-supportsInterface}."
      },
      "symbol()": {
        "details": "See {IERC721Metadata-symbol}."
      },
      "tokenByIndex(uint256)": {
        "details": "See {IERC721Enumerable-tokenByIndex}."
      },
      "tokenOfOwnerByIndex(address,uint256)": {
        "details": "See {IERC721Enumerable-tokenOfOwnerByIndex}."
      },
      "totalSupply()": {
        "details": "See {IERC721Enumerable-totalSupply}."
      },
      "transferFrom(address,address,uint256)": {
        "details": "See {IERC721-transferFrom}."
      },
      "transferOwnership(address)": {
        "details": "Transfers ownership of the contract to a new account (`newOwner`). Can only be called by the current owner."
      }
    },
    "version": 1
  },
  "userdoc": {
    "kind": "user",
    "methods": {},
    "version": 1
  },
  "storageLayout": {
    "storage": [
      {
        "astId": 911,
        "contract": "contracts/SafeZen.sol:SafeZen",
        "label": "_name",
        "offset": 0,
        "slot": "0",
        "type": "t_string_storage"
      },
      {
        "astId": 913,
        "contract": "contracts/SafeZen.sol:SafeZen",
        "label": "_symbol",
        "offset": 0,
        "slot": "1",
        "type": "t_string_storage"
      },
      {
        "astId": 917,
        "contract": "contracts/SafeZen.sol:SafeZen",
        "label": "_owners",
        "offset": 0,
        "slot": "2",
        "type": "t_mapping(t_uint256,t_address)"
      },
      {
        "astId": 921,
        "contract": "contracts/SafeZen.sol:SafeZen",
        "label": "_balances",
        "offset": 0,
        "slot": "3",
        "type": "t_mapping(t_address,t_uint256)"
      },
      {
        "astId": 925,
        "contract": "contracts/SafeZen.sol:SafeZen",
        "label": "_tokenApprovals",
        "offset": 0,
        "slot": "4",
        "type": "t_mapping(t_uint256,t_address)"
      },
      {
        "astId": 931,
        "contract": "contracts/SafeZen.sol:SafeZen",
        "label": "_operatorApprovals",
        "offset": 0,
        "slot": "5",
        "type": "t_mapping(t_address,t_mapping(t_address,t_bool))"
      },
      {
        "astId": 1900,
        "contract": "contracts/SafeZen.sol:SafeZen",
        "label": "_ownedTokens",
        "offset": 0,
        "slot": "6",
        "type": "t_mapping(t_address,t_mapping(t_uint256,t_uint256))"
      },
      {
        "astId": 1904,
        "contract": "contracts/SafeZen.sol:SafeZen",
        "label": "_ownedTokensIndex",
        "offset": 0,
        "slot": "7",
        "type": "t_mapping(t_uint256,t_uint256)"
      },
      {
        "astId": 1907,
        "contract": "contracts/SafeZen.sol:SafeZen",
        "label": "_allTokens",
        "offset": 0,
        "slot": "8",
        "type": "t_array(t_uint256)dyn_storage"
      },
      {
        "astId": 1911,
        "contract": "contracts/SafeZen.sol:SafeZen",
        "label": "_allTokensIndex",
        "offset": 0,
        "slot": "9",
        "type": "t_mapping(t_uint256,t_uint256)"
      },
      {
        "astId": 7,
        "contract": "contracts/SafeZen.sol:SafeZen",
        "label": "_owner",
        "offset": 0,
        "slot": "10",
        "type": "t_address"
      },
      {
        "astId": 122,
        "contract": "contracts/SafeZen.sol:SafeZen",
        "label": "_paused",
        "offset": 20,
        "slot": "10",
        "type": "t_bool"
      },
      {
        "astId": 6901,
        "contract": "contracts/SafeZen.sol:SafeZen",
        "label": "_host",
        "offset": 0,
        "slot": "11",
        "type": "t_contract(ISuperfluid)4883"
      },
      {
        "astId": 6904,
        "contract": "contracts/SafeZen.sol:SafeZen",
        "label": "_cfa",
        "offset": 0,
        "slot": "12",
        "type": "t_contract(IConstantFlowAgreementV1)3340"
      },
      {
        "astId": 6907,
        "contract": "contracts/SafeZen.sol:SafeZen",
        "label": "_acceptedToken",
        "offset": 0,
        "slot": "13",
        "type": "t_contract(ISuperToken)4320"
      },
      {
        "astId": 6910,
        "contract": "contracts/SafeZen.sol:SafeZen",
        "label": "stakingContract",
        "offset": 0,
        "slot": "14",
        "type": "t_contract(StakingContract)7605"
      },
      {
        "astId": 6913,
        "contract": "contracts/SafeZen.sol:SafeZen",
        "label": "govContract",
        "offset": 0,
        "slot": "15",
        "type": "t_contract(GovContract)6872"
      },
      {
        "astId": 6918,
        "contract": "contracts/SafeZen.sol:SafeZen",
        "label": "policies",
        "offset": 0,
        "slot": "16",
        "type": "t_mapping(t_uint256,t_struct(Policy)6943_storage)"
      }
    ],
    "types": {
      "t_address": {
        "encoding": "inplace",
        "label": "address",
        "numberOfBytes": "20"
      },
      "t_array(t_uint256)dyn_storage": {
        "base": "t_uint256",
        "encoding": "dynamic_array",
        "label": "uint256[]",
        "numberOfBytes": "32"
      },
      "t_bool": {
        "encoding": "inplace",
        "label": "bool",
        "numberOfBytes": "1"
      },
      "t_contract(GovContract)6872": {
        "encoding": "inplace",
        "label": "contract GovContract",
        "numberOfBytes": "20"
      },
      "t_contract(IConstantFlowAgreementV1)3340": {
        "encoding": "inplace",
        "label": "contract IConstantFlowAgreementV1",
        "numberOfBytes": "20"
      },
      "t_contract(ISuperToken)4320": {
        "encoding": "inplace",
        "label": "contract ISuperToken",
        "numberOfBytes": "20"
      },
      "t_contract(ISuperfluid)4883": {
        "encoding": "inplace",
        "label": "contract ISuperfluid",
        "numberOfBytes": "20"
      },
      "t_contract(StakingContract)7605": {
        "encoding": "inplace",
        "label": "contract StakingContract",
        "numberOfBytes": "20"
      },
      "t_mapping(t_address,t_bool)": {
        "encoding": "mapping",
        "key": "t_address",
        "label": "mapping(address => bool)",
        "numberOfBytes": "32",
        "value": "t_bool"
      },
      "t_mapping(t_address,t_mapping(t_address,t_bool))": {
        "encoding": "mapping",
        "key": "t_address",
        "label": "mapping(address => mapping(address => bool))",
        "numberOfBytes": "32",
        "value": "t_mapping(t_address,t_bool)"
      },
      "t_mapping(t_address,t_mapping(t_uint256,t_uint256))": {
        "encoding": "mapping",
        "key": "t_address",
        "label": "mapping(address => mapping(uint256 => uint256))",
        "numberOfBytes": "32",
        "value": "t_mapping(t_uint256,t_uint256)"
      },
      "t_mapping(t_address,t_uint256)": {
        "encoding": "mapping",
        "key": "t_address",
        "label": "mapping(address => uint256)",
        "numberOfBytes": "32",
        "value": "t_uint256"
      },
      "t_mapping(t_uint256,t_address)": {
        "encoding": "mapping",
        "key": "t_uint256",
        "label": "mapping(uint256 => address)",
        "numberOfBytes": "32",
        "value": "t_address"
      },
      "t_mapping(t_uint256,t_struct(Policy)6943_storage)": {
        "encoding": "mapping",
        "key": "t_uint256",
        "label": "mapping(uint256 => struct SafeZen.Policy)",
        "numberOfBytes": "32",
        "value": "t_struct(Policy)6943_storage"
      },
      "t_mapping(t_uint256,t_uint256)": {
        "encoding": "mapping",
        "key": "t_uint256",
        "label": "mapping(uint256 => uint256)",
        "numberOfBytes": "32",
        "value": "t_uint256"
      },
      "t_string_storage": {
        "encoding": "bytes",
        "label": "string",
        "numberOfBytes": "32"
      },
      "t_struct(Policy)6943_storage": {
        "encoding": "inplace",
        "label": "struct SafeZen.Policy",
        "members": [
          {
            "astId": 6920,
            "contract": "contracts/SafeZen.sol:SafeZen",
            "label": "policyHolder",
            "offset": 0,
            "slot": "0",
            "type": "t_address"
          },
          {
            "astId": 6922,
            "contract": "contracts/SafeZen.sol:SafeZen",
            "label": "policyID",
            "offset": 0,
            "slot": "1",
            "type": "t_uint256"
          },
          {
            "astId": 6924,
            "contract": "contracts/SafeZen.sol:SafeZen",
            "label": "policyType",
            "offset": 0,
            "slot": "2",
            "type": "t_string_storage"
          },
          {
            "astId": 6926,
            "contract": "contracts/SafeZen.sol:SafeZen",
            "label": "coverageAmount",
            "offset": 0,
            "slot": "3",
            "type": "t_uint256"
          },
          {
            "astId": 6928,
            "contract": "contracts/SafeZen.sol:SafeZen",
            "label": "merchant",
            "offset": 0,
            "slot": "4",
            "type": "t_string_storage"
          },
          {
            "astId": 6930,
            "contract": "contracts/SafeZen.sol:SafeZen",
            "label": "minFlowRate",
            "offset": 0,
            "slot": "5",
            "type": "t_uint256"
          },
          {
            "astId": 6932,
            "contract": "contracts/SafeZen.sol:SafeZen",
            "label": "purchaseTime",
            "offset": 0,
            "slot": "6",
            "type": "t_uint256"
          },
          {
            "astId": 6934,
            "contract": "contracts/SafeZen.sol:SafeZen",
            "label": "isActive",
            "offset": 0,
            "slot": "7",
            "type": "t_bool"
          },
          {
            "astId": 6936,
            "contract": "contracts/SafeZen.sol:SafeZen",
            "label": "amountPaid",
            "offset": 0,
            "slot": "8",
            "type": "t_uint256"
          },
          {
            "astId": 6938,
            "contract": "contracts/SafeZen.sol:SafeZen",
            "label": "baseAmount",
            "offset": 0,
            "slot": "9",
            "type": "t_uint256"
          },
          {
            "astId": 6940,
            "contract": "contracts/SafeZen.sol:SafeZen",
            "label": "textHue",
            "offset": 0,
            "slot": "10",
            "type": "t_string_storage"
          },
          {
            "astId": 6942,
            "contract": "contracts/SafeZen.sol:SafeZen",
            "label": "bgHue",
            "offset": 0,
            "slot": "11",
            "type": "t_string_storage"
          }
        ],
        "numberOfBytes": "384"
      },
      "t_uint256": {
        "encoding": "inplace",
        "label": "uint256",
        "numberOfBytes": "32"
      }
    }
  }
}