{
  "address": "0x5FbDB2315678afecb367f032d93F642f64180aa3",
  "abi": [
    {
      "inputs": [
        {
          "internalType": "string",
          "name": "_name",
          "type": "string"
        },
        {
          "internalType": "string",
          "name": "_symbol",
          "type": "string"
        }
      ],
      "stateMutability": "nonpayable",
      "type": "constructor"
    },
    {
      "anonymous": false,
      "inputs": [
        {
          "indexed": true,
          "internalType": "address",
          "name": "owner",
          "type": "address"
        },
        {
          "indexed": true,
          "internalType": "address",
          "name": "approved",
          "type": "address"
        },
        {
          "indexed": true,
          "internalType": "uint256",
          "name": "tokenId",
          "type": "uint256"
        }
      ],
      "name": "Approval",
      "type": "event"
    },
    {
      "anonymous": false,
      "inputs": [
        {
          "indexed": true,
          "internalType": "address",
          "name": "owner",
          "type": "address"
        },
        {
          "indexed": true,
          "internalType": "address",
          "name": "operator",
          "type": "address"
        },
        {
          "indexed": false,
          "internalType": "bool",
          "name": "approved",
          "type": "bool"
        }
      ],
      "name": "ApprovalForAll",
      "type": "event"
    },
    {
      "anonymous": false,
      "inputs": [
        {
          "indexed": true,
          "internalType": "address",
          "name": "previousOwner",
          "type": "address"
        },
        {
          "indexed": true,
          "internalType": "address",
          "name": "newOwner",
          "type": "address"
        }
      ],
      "name": "OwnershipTransferred",
      "type": "event"
    },
    {
      "anonymous": false,
      "inputs": [
        {
          "indexed": false,
          "internalType": "address",
          "name": "account",
          "type": "address"
        }
      ],
      "name": "Paused",
      "type": "event"
    },
    {
      "anonymous": false,
      "inputs": [
        {
          "indexed": true,
          "internalType": "address",
          "name": "from",
          "type": "address"
        },
        {
          "indexed": true,
          "internalType": "address",
          "name": "to",
          "type": "address"
        },
        {
          "indexed": true,
          "internalType": "uint256",
          "name": "tokenId",
          "type": "uint256"
        }
      ],
      "name": "Transfer",
      "type": "event"
    },
    {
      "anonymous": false,
      "inputs": [
        {
          "indexed": false,
          "internalType": "address",
          "name": "account",
          "type": "address"
        }
      ],
      "name": "Unpaused",
      "type": "event"
    },
    {
      "inputs": [
        {
          "internalType": "address",
          "name": "to",
          "type": "address"
        },
        {
          "internalType": "uint256",
          "name": "tokenId",
          "type": "uint256"
        }
      ],
      "name": "approve",
      "outputs": [],
      "stateMutability": "nonpayable",
      "type": "function"
    },
    {
      "inputs": [
        {
          "internalType": "address",
          "name": "owner",
          "type": "address"
        }
      ],
      "name": "balanceOf",
      "outputs": [
        {
          "internalType": "uint256",
          "name": "",
          "type": "uint256"
        }
      ],
      "stateMutability": "view",
      "type": "function"
    },
    {
      "inputs": [
        {
          "internalType": "uint256",
          "name": "_tokenId",
          "type": "uint256"
        }
      ],
      "name": "buildMetadata",
      "outputs": [
        {
          "internalType": "string",
          "name": "",
          "type": "string"
        }
      ],
      "stateMutability": "view",
      "type": "function"
    },
    {
      "inputs": [
        {
          "internalType": "uint256",
          "name": "_tokenId",
          "type": "uint256"
        }
      ],
      "name": "buildPolicy",
      "outputs": [
        {
          "internalType": "string",
          "name": "",
          "type": "string"
        }
      ],
      "stateMutability": "view",
      "type": "function"
    },
    {
      "inputs": [
        {
          "internalType": "uint256",
          "name": "tokenId",
          "type": "uint256"
        }
      ],
      "name": "getApproved",
      "outputs": [
        {
          "internalType": "address",
          "name": "",
          "type": "address"
        }
      ],
      "stateMutability": "view",
      "type": "function"
    },
    {
      "inputs": [
        {
          "internalType": "uint256",
          "name": "_policyID",
          "type": "uint256"
        }
      ],
      "name": "getHolder",
      "outputs": [
        {
          "components": [
            {
              "internalType": "address",
              "name": "policyHolder",
              "type": "address"
            },
            {
              "internalType": "uint256",
              "name": "policyID",
              "type": "uint256"
            },
            {
              "internalType": "string",
              "name": "policyType",
              "type": "string"
            },
            {
              "internalType": "uint256",
              "name": "coverageAmount",
              "type": "uint256"
            },
            {
              "internalType": "string",
              "name": "merchant",
              "type": "string"
            },
            {
              "internalType": "uint256",
              "name": "price",
              "type": "uint256"
            },
            {
              "internalType": "uint256",
              "name": "startTime",
              "type": "uint256"
            },
            {
              "internalType": "uint256",
              "name": "endTime",
              "type": "uint256"
            }
          ],
          "internalType": "struct SafeZen.Policy",
          "name": "",
          "type": "tuple"
        }
      ],
      "stateMutability": "view",
      "type": "function"
    },
    {
      "inputs": [
        {
          "internalType": "address",
          "name": "owner",
          "type": "address"
        },
        {
          "internalType": "address",
          "name": "operator",
          "type": "address"
        }
      ],
      "name": "isApprovedForAll",
      "outputs": [
        {
          "internalType": "bool",
          "name": "",
          "type": "bool"
        }
      ],
      "stateMutability": "view",
      "type": "function"
    },
    {
      "inputs": [
        {
          "internalType": "string",
          "name": "_policyType",
          "type": "string"
        },
        {
          "internalType": "uint256",
          "name": "_coverageAmount",
          "type": "uint256"
        },
        {
          "internalType": "string",
          "name": "_merchant",
          "type": "string"
        },
        {
          "internalType": "uint256",
          "name": "_price",
          "type": "uint256"
        },
        {
          "internalType": "uint256",
          "name": "_startTime",
          "type": "uint256"
        },
        {
          "internalType": "uint256",
          "name": "_endTime",
          "type": "uint256"
        }
      ],
      "name": "mint",
      "outputs": [],
      "stateMutability": "payable",
      "type": "function"
    },
    {
      "inputs": [],
      "name": "name",
      "outputs": [
        {
          "internalType": "string",
          "name": "",
          "type": "string"
        }
      ],
      "stateMutability": "view",
      "type": "function"
    },
    {
      "inputs": [],
      "name": "owner",
      "outputs": [
        {
          "internalType": "address",
          "name": "",
          "type": "address"
        }
      ],
      "stateMutability": "view",
      "type": "function"
    },
    {
      "inputs": [
        {
          "internalType": "uint256",
          "name": "tokenId",
          "type": "uint256"
        }
      ],
      "name": "ownerOf",
      "outputs": [
        {
          "internalType": "address",
          "name": "",
          "type": "address"
        }
      ],
      "stateMutability": "view",
      "type": "function"
    },
    {
      "inputs": [],
      "name": "pause",
      "outputs": [],
      "stateMutability": "nonpayable",
      "type": "function"
    },
    {
      "inputs": [],
      "name": "paused",
      "outputs": [
        {
          "internalType": "bool",
          "name": "",
          "type": "bool"
        }
      ],
      "stateMutability": "view",
      "type": "function"
    },
    {
      "inputs": [
        {
          "internalType": "uint256",
          "name": "",
          "type": "uint256"
        }
      ],
      "name": "policies",
      "outputs": [
        {
          "internalType": "address",
          "name": "policyHolder",
          "type": "address"
        },
        {
          "internalType": "uint256",
          "name": "policyID",
          "type": "uint256"
        },
        {
          "internalType": "string",
          "name": "policyType",
          "type": "string"
        },
        {
          "internalType": "uint256",
          "name": "coverageAmount",
          "type": "uint256"
        },
        {
          "internalType": "string",
          "name": "merchant",
          "type": "string"
        },
        {
          "internalType": "uint256",
          "name": "price",
          "type": "uint256"
        },
        {
          "internalType": "uint256",
          "name": "startTime",
          "type": "uint256"
        },
        {
          "internalType": "uint256",
          "name": "endTime",
          "type": "uint256"
        }
      ],
      "stateMutability": "view",
      "type": "function"
    },
    {
      "inputs": [
        {
          "internalType": "uint256",
          "name": "_mod",
          "type": "uint256"
        },
        {
          "internalType": "uint256",
          "name": "_seed",
          "type": "uint256"
        },
        {
          "internalType": "uint256",
          "name": "_salt",
          "type": "uint256"
        }
      ],
      "name": "randomNum",
      "outputs": [
        {
          "internalType": "uint256",
          "name": "",
          "type": "uint256"
        }
      ],
      "stateMutability": "view",
      "type": "function"
    },
    {
      "inputs": [],
      "name": "renounceOwnership",
      "outputs": [],
      "stateMutability": "nonpayable",
      "type": "function"
    },
    {
      "inputs": [
        {
          "internalType": "address",
          "name": "from",
          "type": "address"
        },
        {
          "internalType": "address",
          "name": "to",
          "type": "address"
        },
        {
          "internalType": "uint256",
          "name": "tokenId",
          "type": "uint256"
        }
      ],
      "name": "safeTransferFrom",
      "outputs": [],
      "stateMutability": "nonpayable",
      "type": "function"
    },
    {
      "inputs": [
        {
          "internalType": "address",
          "name": "from",
          "type": "address"
        },
        {
          "internalType": "address",
          "name": "to",
          "type": "address"
        },
        {
          "internalType": "uint256",
          "name": "tokenId",
          "type": "uint256"
        },
        {
          "internalType": "bytes",
          "name": "_data",
          "type": "bytes"
        }
      ],
      "name": "safeTransferFrom",
      "outputs": [],
      "stateMutability": "nonpayable",
      "type": "function"
    },
    {
      "inputs": [
        {
          "internalType": "address",
          "name": "operator",
          "type": "address"
        },
        {
          "internalType": "bool",
          "name": "approved",
          "type": "bool"
        }
      ],
      "name": "setApprovalForAll",
      "outputs": [],
      "stateMutability": "nonpayable",
      "type": "function"
    },
    {
      "inputs": [
        {
          "internalType": "bytes4",
          "name": "interfaceId",
          "type": "bytes4"
        }
      ],
      "name": "supportsInterface",
      "outputs": [
        {
          "internalType": "bool",
          "name": "",
          "type": "bool"
        }
      ],
      "stateMutability": "view",
      "type": "function"
    },
    {
      "inputs": [],
      "name": "symbol",
      "outputs": [
        {
          "internalType": "string",
          "name": "",
          "type": "string"
        }
      ],
      "stateMutability": "view",
      "type": "function"
    },
    {
      "inputs": [
        {
          "internalType": "uint256",
          "name": "index",
          "type": "uint256"
        }
      ],
      "name": "tokenByIndex",
      "outputs": [
        {
          "internalType": "uint256",
          "name": "",
          "type": "uint256"
        }
      ],
      "stateMutability": "view",
      "type": "function"
    },
    {
      "inputs": [
        {
          "internalType": "address",
          "name": "owner",
          "type": "address"
        },
        {
          "internalType": "uint256",
          "name": "index",
          "type": "uint256"
        }
      ],
      "name": "tokenOfOwnerByIndex",
      "outputs": [
        {
          "internalType": "uint256",
          "name": "",
          "type": "uint256"
        }
      ],
      "stateMutability": "view",
      "type": "function"
    },
    {
      "inputs": [
        {
          "internalType": "uint256",
          "name": "_tokenId",
          "type": "uint256"
        }
      ],
      "name": "tokenURI",
      "outputs": [
        {
          "internalType": "string",
          "name": "",
          "type": "string"
        }
      ],
      "stateMutability": "view",
      "type": "function"
    },
    {
      "inputs": [],
      "name": "totalSupply",
      "outputs": [
        {
          "internalType": "uint256",
          "name": "",
          "type": "uint256"
        }
      ],
      "stateMutability": "view",
      "type": "function"
    },
    {
      "inputs": [
        {
          "internalType": "address",
          "name": "from",
          "type": "address"
        },
        {
          "internalType": "address",
          "name": "to",
          "type": "address"
        },
        {
          "internalType": "uint256",
          "name": "tokenId",
          "type": "uint256"
        }
      ],
      "name": "transferFrom",
      "outputs": [],
      "stateMutability": "nonpayable",
      "type": "function"
    },
    {
      "inputs": [
        {
          "internalType": "address",
          "name": "newOwner",
          "type": "address"
        }
      ],
      "name": "transferOwnership",
      "outputs": [],
      "stateMutability": "nonpayable",
      "type": "function"
    },
    {
      "inputs": [],
      "name": "unpause",
      "outputs": [],
      "stateMutability": "nonpayable",
      "type": "function"
    }
  ],
  "transactionHash": "0xb0f1e4d89a7d2f3b7c84ef14d4517bb7264e76377807afdfa8bb5f160edfdba7",
  "args": [
    "SafeZen",
    "SZ"
  ],
  "numDeployments": 1,
  "solcInputHash": "a3cf610f9c8df73eb9535a407a28b9f2",
  "bytecode": "0x60806040523480156200001157600080fd5b5060405162003bf938038062003bf983398101604081905262000034916200025e565b8151829082906200004d906000906020850190620000eb565b50805162000063906001906020840190620000eb565b505050620000806200007a6200009560201b60201c565b62000099565b5050600a805460ff60a01b1916905562000305565b3390565b600a80546001600160a01b038381166001600160a01b0319831681179093556040519116919082907f8be0079c531659141344cd1fd0a4f28419497f9722a3daafe3b4186f6b6457e090600090a35050565b828054620000f990620002c8565b90600052602060002090601f0160209004810192826200011d576000855562000168565b82601f106200013857805160ff191683800117855562000168565b8280016001018555821562000168579182015b82811115620001685782518255916020019190600101906200014b565b50620001769291506200017a565b5090565b5b808211156200017657600081556001016200017b565b634e487b7160e01b600052604160045260246000fd5b600082601f830112620001b957600080fd5b81516001600160401b0380821115620001d657620001d662000191565b604051601f8301601f19908116603f0116810190828211818310171562000201576200020162000191565b816040528381526020925086838588010111156200021e57600080fd5b600091505b8382101562000242578582018301518183018401529082019062000223565b83821115620002545760008385830101525b9695505050505050565b600080604083850312156200027257600080fd5b82516001600160401b03808211156200028a57600080fd5b6200029886838701620001a7565b93506020850151915080821115620002af57600080fd5b50620002be85828601620001a7565b9150509250929050565b600181811c90821680620002dd57607f821691505b60208210811415620002ff57634e487b7160e01b600052602260045260246000fd5b50919050565b6138e480620003156000396000f3fe6080604052600436106101b75760003560e01c8063715018a6116100ec578063b88d4fde1161008a578063e8a96b4611610064578063e8a96b46146104c4578063e985e9c5146104f1578063edf877041461053a578063f2fde38b1461055a57600080fd5b8063b88d4fde14610450578063c87b56dd14610470578063d3e894831461049057600080fd5b80638da5cb5b116100c65780638da5cb5b146103ea57806395d89b4114610408578063a22cb4651461041d578063a3481e761461043d57600080fd5b8063715018a6146103a057806382772481146103b55780638456cb59146103d557600080fd5b80632f745c59116101595780634f6ccce7116101335780634f6ccce7146103215780635c975abb146103415780636352211e1461036057806370a082311461038057600080fd5b80632f745c59146102cc5780633f4ba83a146102ec57806342842e0e1461030157600080fd5b8063095ea7b311610195578063095ea7b31461024b57806318160ddd1461026d57806323b872dd1461028c57806328294640146102ac57600080fd5b806301ffc9a7146101bc57806306fdde03146101f1578063081812fc14610213575b600080fd5b3480156101c857600080fd5b506101dc6101d7366004612770565b61057a565b60405190151581526020015b60405180910390f35b3480156101fd57600080fd5b506102066105a5565b6040516101e891906127ec565b34801561021f57600080fd5b5061023361022e3660046127ff565b610637565b6040516001600160a01b0390911681526020016101e8565b34801561025757600080fd5b5061026b61026636600461282f565b6106d1565b005b34801561027957600080fd5b506008545b6040519081526020016101e8565b34801561029857600080fd5b5061026b6102a7366004612859565b6107e7565b3480156102b857600080fd5b5061027e6102c7366004612895565b610818565b3480156102d857600080fd5b5061027e6102e736600461282f565b610880565b3480156102f857600080fd5b5061026b610916565b34801561030d57600080fd5b5061026b61031c366004612859565b61094a565b34801561032d57600080fd5b5061027e61033c3660046127ff565b610965565b34801561034d57600080fd5b50600a54600160a01b900460ff166101dc565b34801561036c57600080fd5b5061023361037b3660046127ff565b6109f8565b34801561038c57600080fd5b5061027e61039b3660046128c1565b610a6f565b3480156103ac57600080fd5b5061026b610af6565b3480156103c157600080fd5b506102066103d03660046127ff565b610b2a565b3480156103e157600080fd5b5061026b610e3f565b3480156103f657600080fd5b50600a546001600160a01b0316610233565b34801561041457600080fd5b50610206610e71565b34801561042957600080fd5b5061026b6104383660046128dc565b610e80565b61026b61044b3660046129c4565b610e8f565b34801561045c57600080fd5b5061026b61046b366004612a4d565b610fb8565b34801561047c57600080fd5b5061020661048b3660046127ff565b610ff0565b34801561049c57600080fd5b506104b06104ab3660046127ff565b611078565b6040516101e8989796959493929190612ac9565b3480156104d057600080fd5b506104e46104df3660046127ff565b6111d3565b6040516101e89190612b30565b3480156104fd57600080fd5b506101dc61050c366004612bbd565b6001600160a01b03918216600090815260056020908152604080832093909416825291909152205460ff1690565b34801561054657600080fd5b506102066105553660046127ff565b6113b2565b34801561056657600080fd5b5061026b6105753660046128c1565b61158a565b60006001600160e01b0319821663780e9d6360e01b148061059f575061059f82611625565b92915050565b6060600080546105b490612bf0565b80601f01602080910402602001604051908101604052809291908181526020018280546105e090612bf0565b801561062d5780601f106106025761010080835404028352916020019161062d565b820191906000526020600020905b81548152906001019060200180831161061057829003601f168201915b5050505050905090565b6000818152600260205260408120546001600160a01b03166106b55760405162461bcd60e51b815260206004820152602c60248201527f4552433732313a20617070726f76656420717565727920666f72206e6f6e657860448201526b34b9ba32b73a103a37b5b2b760a11b60648201526084015b60405180910390fd5b506000908152600460205260409020546001600160a01b031690565b60006106dc826109f8565b9050806001600160a01b0316836001600160a01b0316141561074a5760405162461bcd60e51b815260206004820152602160248201527f4552433732313a20617070726f76616c20746f2063757272656e74206f776e656044820152603960f91b60648201526084016106ac565b336001600160a01b03821614806107665750610766813361050c565b6107d85760405162461bcd60e51b815260206004820152603860248201527f4552433732313a20617070726f76652063616c6c6572206973206e6f74206f7760448201527f6e6572206e6f7220617070726f76656420666f7220616c6c000000000000000060648201526084016106ac565b6107e28383611675565b505050565b6107f133826116e3565b61080d5760405162461bcd60e51b81526004016106ac90612c2b565b6107e28383836117da565b604080514260208201526bffffffffffffffffffffffff193360601b16918101919091526054810183905260748101829052600090819085906094016040516020818303038152906040528051906020012060001c6108779190612c92565b95945050505050565b600061088b83610a6f565b82106108ed5760405162461bcd60e51b815260206004820152602b60248201527f455243373231456e756d657261626c653a206f776e657220696e646578206f7560448201526a74206f6620626f756e647360a81b60648201526084016106ac565b506001600160a01b03919091166000908152600660209081526040808320938352929052205490565b600a546001600160a01b031633146109405760405162461bcd60e51b81526004016106ac90612ca6565b610948611981565b565b6107e283838360405180602001604052806000815250610fb8565b600061097060085490565b82106109d35760405162461bcd60e51b815260206004820152602c60248201527f455243373231456e756d657261626c653a20676c6f62616c20696e646578206f60448201526b7574206f6620626f756e647360a01b60648201526084016106ac565b600882815481106109e6576109e6612cdb565b90600052602060002001549050919050565b6000818152600260205260408120546001600160a01b03168061059f5760405162461bcd60e51b815260206004820152602960248201527f4552433732313a206f776e657220717565727920666f72206e6f6e657869737460448201526832b73a103a37b5b2b760b91b60648201526084016106ac565b60006001600160a01b038216610ada5760405162461bcd60e51b815260206004820152602a60248201527f4552433732313a2062616c616e636520717565727920666f7220746865207a65604482015269726f206164647265737360b01b60648201526084016106ac565b506001600160a01b031660009081526003602052604090205490565b600a546001600160a01b03163314610b205760405162461bcd60e51b81526004016106ac90612ca6565b6109486000611a1e565b6000818152600b6020908152604080832081516101008101835281546001600160a01b03168152600182015493810193909352600281018054606095949384019190610b7590612bf0565b80601f0160208091040260200160405190810160405280929190818152602001828054610ba190612bf0565b8015610bee5780601f10610bc357610100808354040283529160200191610bee565b820191906000526020600020905b815481529060010190602001808311610bd157829003601f168201915b5050505050815260200160038201548152602001600482018054610c1190612bf0565b80601f0160208091040260200160405190810160405280929190818152602001828054610c3d90612bf0565b8015610c8a5780601f10610c5f57610100808354040283529160200191610c8a565b820191906000526020600020905b815481529060010190602001808311610c6d57829003601f168201915b50505050508152602001600582015481526020016006820154815260200160078201548152505090506000806000610cc58460c00151611a70565b9250925092506000806000610cdd8760e00151611a70565b925092509250610cf8610cf38860000151611a96565b611bdd565b6000610d078860000151611a96565b8860800151604051602001610d1d929190612d0d565b60405160208183030381529060405290506000610d3d8960200151611c20565b8960400151610d4f8b60600151611c20565b604051602001610d6193929190612eee565b60405160208183030381529060405290506000610d818a60a00151611c20565b610d8a88611c20565b610d938a611c20565b610d9c8c611c20565b604051602001610daf949392919061308b565b60405160208183030381529060405290506000610dcb85611c20565b610dd487611c20565b610ddd89611c20565b604051602001610def939291906131b8565b6040516020818303038152906040529050610e2e84848484604051602001610e1a94939291906132b2565b604051602081830303815290604052611d1e565b9d9c50505050505050505050505050565b600a546001600160a01b03163314610e695760405162461bcd60e51b81526004016106ac90612ca6565b610948611e86565b6060600180546105b490612bf0565b610e8b338383611f0e565b5050565b6000610e9a60085490565b90506000604051806101000160405280336001600160a01b03168152602001836001610ec6919061331f565b815260200189815260200188815260200187815260200186815260200185815260200184815250905080600b6000846001610f01919061331f565b81526020808201929092526040908101600020835181546001600160a01b0319166001600160a01b039091161781558383015160018201559083015180519192610f53926002850192909101906126c1565b506060820151600382015560808201518051610f799160048401916020909101906126c1565b5060a0820151600582015560c0820151600682015560e090910151600790910155610fae33610fa984600161331f565b611fdd565b5050505050505050565b610fc233836116e3565b610fde5760405162461bcd60e51b81526004016106ac90612c2b565b610fea84848484611ff7565b50505050565b6000818152600260205260409020546060906001600160a01b031661106f5760405162461bcd60e51b815260206004820152602f60248201527f4552433732314d657461646174613a2055524920717565727920666f72206e6f60448201526e3732bc34b9ba32b73a103a37b5b2b760891b60648201526084016106ac565b61059f826113b2565b600b602052600090815260409020805460018201546002830180546001600160a01b039093169391926110aa90612bf0565b80601f01602080910402602001604051908101604052809291908181526020018280546110d690612bf0565b80156111235780601f106110f857610100808354040283529160200191611123565b820191906000526020600020905b81548152906001019060200180831161110657829003601f168201915b50505050509080600301549080600401805461113e90612bf0565b80601f016020809104026020016040519081016040528092919081815260200182805461116a90612bf0565b80156111b75780601f1061118c576101008083540402835291602001916111b7565b820191906000526020600020905b81548152906001019060200180831161119a57829003601f168201915b5050505050908060050154908060060154908060070154905088565b61122460405180610100016040528060006001600160a01b03168152602001600081526020016060815260200160008152602001606081526020016000815260200160008152602001600081525090565b6000828152600b602090815260409182902082516101008101845281546001600160a01b03168152600182015492810192909252600281018054929391929184019161126f90612bf0565b80601f016020809104026020016040519081016040528092919081815260200182805461129b90612bf0565b80156112e85780601f106112bd576101008083540402835291602001916112e8565b820191906000526020600020905b8154815290600101906020018083116112cb57829003601f168201915b505050505081526020016003820154815260200160048201805461130b90612bf0565b80601f016020809104026020016040519081016040528092919081815260200182805461133790612bf0565b80156113845780601f1061135957610100808354040283529160200191611384565b820191906000526020600020905b81548152906001019060200180831161136757829003601f168201915b5050505050815260200160058201548152602001600682015481526020016007820154815250509050919050565b6000818152600b6020908152604080832081516101008101835281546001600160a01b031681526001820154938101939093526002810180546060959493840191906113fd90612bf0565b80601f016020809104026020016040519081016040528092919081815260200182805461142990612bf0565b80156114765780601f1061144b57610100808354040283529160200191611476565b820191906000526020600020905b81548152906001019060200180831161145957829003601f168201915b505050505081526020016003820154815260200160048201805461149990612bf0565b80601f01602080910402602001604051908101604052809291908181526020018280546114c590612bf0565b80156115125780601f106114e757610100808354040283529160200191611512565b820191906000526020600020905b8154815290600101906020018083116114f557829003601f168201915b50505050508152602001600582015481526020016006820154815260200160078201548152505090506115638160400151826080015161155186610b2a565b604051602001610e1a93929190613337565b60405160200161157391906133fe565b604051602081830303815290604052915050919050565b600a546001600160a01b031633146115b45760405162461bcd60e51b81526004016106ac90612ca6565b6001600160a01b0381166116195760405162461bcd60e51b815260206004820152602660248201527f4f776e61626c653a206e6577206f776e657220697320746865207a65726f206160448201526564647265737360d01b60648201526084016106ac565b61162281611a1e565b50565b60006001600160e01b031982166380ac58cd60e01b148061165657506001600160e01b03198216635b5e139f60e01b145b8061059f57506301ffc9a760e01b6001600160e01b031983161461059f565b600081815260046020526040902080546001600160a01b0319166001600160a01b03841690811790915581906116aa826109f8565b6001600160a01b03167f8c5be1e5ebec7d5bd14f71427d1e84f3dd0314c0f7b2291e5b200ac8c7c3b92560405160405180910390a45050565b6000818152600260205260408120546001600160a01b031661175c5760405162461bcd60e51b815260206004820152602c60248201527f4552433732313a206f70657261746f7220717565727920666f72206e6f6e657860448201526b34b9ba32b73a103a37b5b2b760a11b60648201526084016106ac565b6000611767836109f8565b9050806001600160a01b0316846001600160a01b031614806117ae57506001600160a01b0380821660009081526005602090815260408083209388168352929052205460ff165b806117d25750836001600160a01b03166117c784610637565b6001600160a01b0316145b949350505050565b826001600160a01b03166117ed826109f8565b6001600160a01b0316146118515760405162461bcd60e51b815260206004820152602560248201527f4552433732313a207472616e736665722066726f6d20696e636f72726563742060448201526437bbb732b960d91b60648201526084016106ac565b6001600160a01b0382166118b35760405162461bcd60e51b8152602060048201526024808201527f4552433732313a207472616e7366657220746f20746865207a65726f206164646044820152637265737360e01b60648201526084016106ac565b6118be83838361202a565b6118c9600082611675565b6001600160a01b03831660009081526003602052604081208054600192906118f2908490613443565b90915550506001600160a01b038216600090815260036020526040812080546001929061192090849061331f565b909155505060008181526002602052604080822080546001600160a01b0319166001600160a01b0386811691821790925591518493918716917fddf252ad1be2c89b69c2b068fc378daa952ba7f163c4a11628f55a4df523b3ef91a4505050565b600a54600160a01b900460ff166119d15760405162461bcd60e51b815260206004820152601460248201527314185d5cd8589b194e881b9bdd081c185d5cd95960621b60448201526064016106ac565b600a805460ff60a01b191690557f5db9ee0a495bf2e6ff9c91a7834c1ba4fdd244a5e8aa4e537bd38aeae4b073aa335b6040516001600160a01b03909116815260200160405180910390a1565b600a80546001600160a01b038381166001600160a01b0319831681179093556040519116919082907f8be0079c531659141344cd1fd0a4f28419497f9722a3daafe3b4186f6b6457e090600090a35050565b60008080611a89611a84620151808661345a565b6120e2565b9196909550909350915050565b60408051602880825260608281019093526000919060208201818036833701905050905060005b6014811015611bd6576000611ad3826013613443565b611ade90600861346e565b611ae9906002613571565b611afc906001600160a01b03871661345a565b60f81b9050600060108260f81c611b13919061357d565b60f81b905060008160f81c6010611b2a919061359f565b8360f81c611b3891906135c0565b60f81b9050611b4682612256565b85611b5286600261346e565b81518110611b6257611b62612cdb565b60200101906001600160f81b031916908160001a905350611b8281612256565b85611b8e86600261346e565b611b9990600161331f565b81518110611ba957611ba9612cdb565b60200101906001600160f81b031916908160001a9053505050508080611bce906135e3565b915050611abd565b5092915050565b61162281604051602401611bf191906127ec565b60408051601f198184030181529190526020810180516001600160e01b031663104c13eb60e21b179052612291565b606081611c445750506040805180820190915260018152600360fc1b602082015290565b8160005b8115611c6e5780611c58816135e3565b9150611c679050600a8361345a565b9150611c48565b60008167ffffffffffffffff811115611c8957611c89612918565b6040519080825280601f01601f191660200182016040528015611cb3576020820181803683370190505b5090505b84156117d257611cc8600183613443565b9150611cd5600a86612c92565b611ce090603061331f565b60f81b818381518110611cf557611cf5612cdb565b60200101906001600160f81b031916908160001a905350611d17600a8661345a565b9450611cb7565b6060815160001415611d3e57505060408051602081019091526000815290565b600060405180606001604052806040815260200161384f6040913990506000600384516002611d6d919061331f565b611d77919061345a565b611d8290600461346e565b90506000611d9182602061331f565b67ffffffffffffffff811115611da957611da9612918565b6040519080825280601f01601f191660200182016040528015611dd3576020820181803683370190505b509050818152600183018586518101602084015b81831015611e415760039283018051603f601282901c811687015160f890811b8552600c83901c8216880151811b6001860152600683901c8216880151811b60028601529116860151901b93820193909352600401611de7565b600389510660018114611e5b5760028114611e6c57611e78565b613d3d60f01b600119830152611e78565b603d60f81b6000198301525b509398975050505050505050565b600a54600160a01b900460ff1615611ed35760405162461bcd60e51b815260206004820152601060248201526f14185d5cd8589b194e881c185d5cd95960821b60448201526064016106ac565b600a805460ff60a01b1916600160a01b1790557f62e78cea01bee320cd4e420270b5ea74000d11b0c9f74754ebdbfc544b05a258611a013390565b816001600160a01b0316836001600160a01b03161415611f705760405162461bcd60e51b815260206004820152601960248201527f4552433732313a20617070726f766520746f2063616c6c65720000000000000060448201526064016106ac565b6001600160a01b03838116600081815260056020908152604080832094871680845294825291829020805460ff191686151590811790915591519182527f17307eab39ab6107e8899845ad3d59bd9653f200f220920489ca2b5937696c31910160405180910390a3505050565b610e8b8282604051806020016040528060008152506122b2565b6120028484846117da565b61200e848484846122e5565b610fea5760405162461bcd60e51b81526004016106ac906135fe565b6001600160a01b0383166120855761208081600880546000838152600960205260408120829055600182018355919091527ff3f7a9fe364faab93b216da50a3214154f22a0a2b415b23a84c8169e8b636ee30155565b6120a8565b816001600160a01b0316836001600160a01b0316146120a8576120a883826123e3565b6001600160a01b0382166120bf576107e281612480565b826001600160a01b0316826001600160a01b0316146107e2576107e2828261252f565b60008080838162253d8c6120f98362010bd9613650565b6121039190613650565b9050600062023ab1612116836004613691565b6121209190613716565b905060046121318262023ab1613691565b61213c906003613650565b6121469190613716565b6121509083613744565b9150600062164b09612163846001613650565b61216f90610fa0613691565b6121799190613716565b90506004612189826105b5613691565b6121939190613716565b61219d9084613744565b6121a890601f613650565b9250600061098f6121ba856050613691565b6121c49190613716565b9050600060506121d68361098f613691565b6121e09190613716565b6121ea9086613744565b90506121f7600b83613716565b945061220485600c613691565b61220f836002613650565b6122199190613744565b91508483612228603187613744565b612233906064613691565b61223d9190613650565b6122479190613650565b9a919950975095505050505050565b6000600a60f883901c101561227d5761227460f883901c6030613783565b60f81b92915050565b61227460f883901c6057613783565b919050565b80516a636f6e736f6c652e6c6f67602083016000808483855afa5050505050565b6122bc8383612573565b6122c960008484846122e5565b6107e25760405162461bcd60e51b81526004016106ac906135fe565b60006001600160a01b0384163b156123d857604051630a85bd0160e11b81526001600160a01b0385169063150b7a02906123299033908990889088906004016137a8565b6020604051808303816000875af1925050508015612364575060408051601f3d908101601f19168201909252612361918101906137db565b60015b6123be573d808015612392576040519150601f19603f3d011682016040523d82523d6000602084013e612397565b606091505b5080516123b65760405162461bcd60e51b81526004016106ac906135fe565b805181602001fd5b6001600160e01b031916630a85bd0160e11b1490506117d2565b506001949350505050565b600060016123f084610a6f565b6123fa9190613443565b60008381526007602052604090205490915080821461244d576001600160a01b03841660009081526006602090815260408083208584528252808320548484528184208190558352600790915290208190555b5060009182526007602090815260408084208490556001600160a01b039094168352600681528383209183525290812055565b60085460009061249290600190613443565b600083815260096020526040812054600880549394509092849081106124ba576124ba612cdb565b9060005260206000200154905080600883815481106124db576124db612cdb565b6000918252602080832090910192909255828152600990915260408082208490558582528120556008805480612513576125136137f8565b6001900381819060005260206000200160009055905550505050565b600061253a83610a6f565b6001600160a01b039093166000908152600660209081526040808320868452825280832085905593825260079052919091209190915550565b6001600160a01b0382166125c95760405162461bcd60e51b815260206004820181905260248201527f4552433732313a206d696e7420746f20746865207a65726f206164647265737360448201526064016106ac565b6000818152600260205260409020546001600160a01b03161561262e5760405162461bcd60e51b815260206004820152601c60248201527f4552433732313a20746f6b656e20616c7265616479206d696e7465640000000060448201526064016106ac565b61263a6000838361202a565b6001600160a01b038216600090815260036020526040812080546001929061266390849061331f565b909155505060008181526002602052604080822080546001600160a01b0319166001600160a01b03861690811790915590518392907fddf252ad1be2c89b69c2b068fc378daa952ba7f163c4a11628f55a4df523b3ef908290a45050565b8280546126cd90612bf0565b90600052602060002090601f0160209004810192826126ef5760008555612735565b82601f1061270857805160ff1916838001178555612735565b82800160010185558215612735579182015b8281111561273557825182559160200191906001019061271a565b50612741929150612745565b5090565b5b808211156127415760008155600101612746565b6001600160e01b03198116811461162257600080fd5b60006020828403121561278257600080fd5b813561278d8161275a565b9392505050565b60005b838110156127af578181015183820152602001612797565b83811115610fea5750506000910152565b600081518084526127d8816020860160208601612794565b601f01601f19169290920160200192915050565b60208152600061278d60208301846127c0565b60006020828403121561281157600080fd5b5035919050565b80356001600160a01b038116811461228c57600080fd5b6000806040838503121561284257600080fd5b61284b83612818565b946020939093013593505050565b60008060006060848603121561286e57600080fd5b61287784612818565b925061288560208501612818565b9150604084013590509250925092565b6000806000606084860312156128aa57600080fd5b505081359360208301359350604090920135919050565b6000602082840312156128d357600080fd5b61278d82612818565b600080604083850312156128ef57600080fd5b6128f883612818565b91506020830135801515811461290d57600080fd5b809150509250929050565b634e487b7160e01b600052604160045260246000fd5b600067ffffffffffffffff8084111561294957612949612918565b604051601f8501601f19908116603f0116810190828211818310171561297157612971612918565b8160405280935085815286868601111561298a57600080fd5b858560208301376000602087830101525050509392505050565b600082601f8301126129b557600080fd5b61278d8383356020850161292e565b60008060008060008060c087890312156129dd57600080fd5b863567ffffffffffffffff808211156129f557600080fd5b612a018a838b016129a4565b9750602089013596506040890135915080821115612a1e57600080fd5b50612a2b89828a016129a4565b945050606087013592506080870135915060a087013590509295509295509295565b60008060008060808587031215612a6357600080fd5b612a6c85612818565b9350612a7a60208601612818565b925060408501359150606085013567ffffffffffffffff811115612a9d57600080fd5b8501601f81018713612aae57600080fd5b612abd8782356020840161292e565b91505092959194509250565b6001600160a01b03891681526020810188905261010060408201819052600090612af58382018a6127c0565b90508760608401528281036080840152612b0f81886127c0565b60a0840196909652505060c081019290925260e09091015295945050505050565b6020815260018060a01b0382511660208201526020820151604082015260006040830151610100806060850152612b6b6101208501836127c0565b9150606085015160808501526080850151601f198584030160a0860152612b9283826127c0565b92505060a085015160c085015260c085015160e085015260e085015181850152508091505092915050565b60008060408385031215612bd057600080fd5b612bd983612818565b9150612be760208401612818565b90509250929050565b600181811c90821680612c0457607f821691505b60208210811415612c2557634e487b7160e01b600052602260045260246000fd5b50919050565b60208082526031908201527f4552433732313a207472616e736665722063616c6c6572206973206e6f74206f6040820152701ddb995c881b9bdc88185c1c1c9bdd9959607a1b606082015260800190565b634e487b7160e01b600052601260045260246000fd5b600082612ca157612ca1612c7c565b500690565b6020808252818101527f4f776e61626c653a2063616c6c6572206973206e6f7420746865206f776e6572604082015260600190565b634e487b7160e01b600052603260045260246000fd5b60008151612d03818560208601612794565b9290920192915050565b7f3c7376672077696474683d2235303022206865696768743d223530302220786d81527f6c6e733d22687474703a2f2f7777772e77332e6f72672f323030302f737667226020820152601f60f91b60408201527f3c7265637420793d2230222066696c6c3d222330306666666622207374726f6b60418201527f653d22233030302220783d222d302e35222077696474683d223530302220686560618201526b34b3b43a1e911a981811179f60a11b608182015260008051602061380f833981519152608d82015260008051602061388f83398151915260ad82015260008051602061382f83398151915260cd8201527f793d2235302220783d22353025222066696c6c3d2223303030303030223e000060ed8201526f0a0ded8d2c6f290ded8c8cae4744060f60831b61010b82015260006117d2612e5a612ee8612ed2612e6d8361011b88018a612cf1565b661e17ba32bc3a1f60c91b815260070190565b60008051602061380f833981519152815260008051602061388f833981519152602082015260008051602061382f83398151915260408201527f793d223130302220783d22353025222066696c6c3d2223303030303030223e006060820152607f0190565b690283937bb34b232b91d160b51b8152600a0190565b85612cf1565b600060008051602061380f83398151915280835260008051602061388f83398151915280602085015260008051602061382f8339815191528060408601527f793d223135302220783d22353025222066696c6c3d2223303030303030223e0060608601526902837b634b1bca4a21d160b51b607f8601528751612f78816089880160208c01612794565b8086019050661e17ba32bc3a1f60c91b60898201528360908201528260b08201528160d08201527f793d223230302220783d22353025222066696c6c3d2223303030303030223e0060f082015261307e612e5a613078613062612ffd612e5a612ff761010f88016b02837b634b1bcaa3cb8329d160a51b8152600c0190565b8e612cf1565b60008051602061380f833981519152815260008051602061388f833981519152602082015260008051602061382f83398151915260408201527f793d223235302220783d22353025222066696c6c3d2223303030303030223e006060820152607f0190565b69021b7bb32b930b3b29d160b51b8152600a0190565b89612cf1565b9998505050505050505050565b600060008051602061380f83398151915280835260008051602061388f83398151915280602085015260008051602061382f8339815191528060408601527f793d223330302220783d22353025222066696c6c3d2223303030303030223e006060860152660283934b1b29d160cd1b607f8601528851613112816086880160208d01612794565b8086019050661e17ba32bc3a1f60c91b608682015283608d8201528260ad8201528160cd8201527f793d223335302220783d22353025222066696c6c3d2223303030303030223e0060ed8201526131aa612e5a6130786131976131a461319761319161010c88016b029ba30b93a102230ba329d160a51b8152600c0190565b8f612cf1565b602f60f81b815260010190565b8c612cf1565b9a9950505050505050505050565b60008051602061380f833981519152815260008051602061388f833981519152602082015260008051602061382f83398151915260408201527f793d223430302220783d22353025222066696c6c3d2223303030303030223e0060608201526b029ba30b93a102230ba329d160a51b607f8201526000845161324181608b850160208901612794565b8083019050602f60f81b80608b830152855161326481608c850160208a01612794565b608c920191820152835161327f81608d840160208801612794565b661e17ba32bc3a1f60c91b9101608d810191909152651e17b9bb339f60d11b6094820152609a81015b9695505050505050565b600085516132c4818460208a01612794565b8551908301906132d8818360208a01612794565b85519101906132eb818360208901612794565b84519101906132fe818360208801612794565b019695505050505050565b634e487b7160e01b600052601160045260246000fd5b6000821982111561333257613332613309565b500190565b683d913730b6b2911d1160b91b8152835160009061335c816009850160208901612794565b71111610113232b9b1b934b83a34b7b7111d1160711b600991840191820152845161338e81601b840160208901612794565b6c1116101134b6b0b3b2911d101160991b601b92909101918201527f646174613a696d6167652f7376672b786d6c3b6261736536342c000000000000602882015283516133e2816042840160208801612794565b61227d60f01b6042929091019182015260440195945050505050565b7f646174613a6170706c69636174696f6e2f6a736f6e3b6261736536342c00000081526000825161343681601d850160208701612794565b91909101601d0192915050565b60008282101561345557613455613309565b500390565b60008261346957613469612c7c565b500490565b600081600019048311821515161561348857613488613309565b500290565b600181815b808511156134c85781600019048211156134ae576134ae613309565b808516156134bb57918102915b93841c9390800290613492565b509250929050565b6000826134df5750600161059f565b816134ec5750600061059f565b8160018114613502576002811461350c57613528565b600191505061059f565b60ff84111561351d5761351d613309565b50506001821b61059f565b5060208310610133831016604e8410600b841016171561354b575081810a61059f565b613555838361348d565b806000190482111561356957613569613309565b029392505050565b600061278d83836134d0565b600060ff83168061359057613590612c7c565b8060ff84160491505092915050565b600060ff821660ff84168160ff048111821515161561356957613569613309565b600060ff821660ff8416808210156135da576135da613309565b90039392505050565b60006000198214156135f7576135f7613309565b5060010190565b60208082526032908201527f4552433732313a207472616e7366657220746f206e6f6e20455243373231526560408201527131b2b4bb32b91034b6b83632b6b2b73a32b960711b606082015260800190565b600080821280156001600160ff1b038490038513161561367257613672613309565b600160ff1b839003841281161561368b5761368b613309565b50500190565b60006001600160ff1b03818413828413808216868404861116156136b7576136b7613309565b600160ff1b60008712828116878305891216156136d6576136d6613309565b600087129250878205871284841616156136f2576136f2613309565b8785058712818416161561370857613708613309565b505050929093029392505050565b60008261372557613725612c7c565b600160ff1b82146000198414161561373f5761373f613309565b500590565b60008083128015600160ff1b85018412161561376257613762613309565b6001600160ff1b038401831381161561377d5761377d613309565b50500390565b600060ff821660ff84168060ff038211156137a0576137a0613309565b019392505050565b6001600160a01b03858116825284166020820152604081018390526080606082018190526000906132a8908301846127c0565b6000602082840312156137ed57600080fd5b815161278d8161275a565b634e487b7160e01b600052603160045260246000fdfe3c7465787420646f6d696e616e742d626173656c696e653d226d6964646c6522793d224e6f746f2053616e73204a502220666f6e742d73697a653d22313422204142434445464748494a4b4c4d4e4f505152535455565758595a6162636465666768696a6b6c6d6e6f707172737475767778797a303132333435363738392b2f20746578742d616e63686f723d226d6964646c652220666f6e742d66616d696ca2646970667358221220ed8877318d8c822cf43dcc5bec6513252eb25a0b9204b14082cc285a7181ec3e64736f6c634300080a0033",
  "devdoc": {
    "kind": "dev",
    "methods": {
      "approve(address,uint256)": {
        "details": "See {IERC721-approve}."
      },
      "balanceOf(address)": {
        "details": "See {IERC721-balanceOf}."
      },
      "getApproved(uint256)": {
        "details": "See {IERC721-getApproved}."
      },
      "isApprovedForAll(address,address)": {
        "details": "See {IERC721-isApprovedForAll}."
      },
      "name()": {
        "details": "See {IERC721Metadata-name}."
      },
      "owner()": {
        "details": "Returns the address of the current owner."
      },
      "ownerOf(uint256)": {
        "details": "See {IERC721-ownerOf}."
      },
      "paused()": {
        "details": "Returns true if the contract is paused, and false otherwise."
      },
      "renounceOwnership()": {
        "details": "Leaves the contract without owner. It will not be possible to call `onlyOwner` functions anymore. Can only be called by the current owner. NOTE: Renouncing ownership will leave the contract without an owner, thereby removing any functionality that is only available to the owner."
      },
      "safeTransferFrom(address,address,uint256)": {
        "details": "See {IERC721-safeTransferFrom}."
      },
      "safeTransferFrom(address,address,uint256,bytes)": {
        "details": "See {IERC721-safeTransferFrom}."
      },
      "setApprovalForAll(address,bool)": {
        "details": "See {IERC721-setApprovalForAll}."
      },
      "supportsInterface(bytes4)": {
        "details": "See {IERC165-supportsInterface}."
      },
      "symbol()": {
        "details": "See {IERC721Metadata-symbol}."
      },
      "tokenByIndex(uint256)": {
        "details": "See {IERC721Enumerable-tokenByIndex}."
      },
      "tokenOfOwnerByIndex(address,uint256)": {
        "details": "See {IERC721Enumerable-tokenOfOwnerByIndex}."
      },
      "totalSupply()": {
        "details": "See {IERC721Enumerable-totalSupply}."
      },
      "transferFrom(address,address,uint256)": {
        "details": "See {IERC721-transferFrom}."
      },
      "transferOwnership(address)": {
        "details": "Transfers ownership of the contract to a new account (`newOwner`). Can only be called by the current owner."
      }
    },
    "version": 1
  },
  "userdoc": {
    "kind": "user",
    "methods": {},
    "version": 1
  },
  "storageLayout": {
    "storage": [
      {
        "astId": 222,
        "contract": "contracts/SafeZen.sol:SafeZen",
        "label": "_name",
        "offset": 0,
        "slot": "0",
        "type": "t_string_storage"
      },
      {
        "astId": 224,
        "contract": "contracts/SafeZen.sol:SafeZen",
        "label": "_symbol",
        "offset": 0,
        "slot": "1",
        "type": "t_string_storage"
      },
      {
        "astId": 228,
        "contract": "contracts/SafeZen.sol:SafeZen",
        "label": "_owners",
        "offset": 0,
        "slot": "2",
        "type": "t_mapping(t_uint256,t_address)"
      },
      {
        "astId": 232,
        "contract": "contracts/SafeZen.sol:SafeZen",
        "label": "_balances",
        "offset": 0,
        "slot": "3",
        "type": "t_mapping(t_address,t_uint256)"
      },
      {
        "astId": 236,
        "contract": "contracts/SafeZen.sol:SafeZen",
        "label": "_tokenApprovals",
        "offset": 0,
        "slot": "4",
        "type": "t_mapping(t_uint256,t_address)"
      },
      {
        "astId": 242,
        "contract": "contracts/SafeZen.sol:SafeZen",
        "label": "_operatorApprovals",
        "offset": 0,
        "slot": "5",
        "type": "t_mapping(t_address,t_mapping(t_address,t_bool))"
      },
      {
        "astId": 1211,
        "contract": "contracts/SafeZen.sol:SafeZen",
        "label": "_ownedTokens",
        "offset": 0,
        "slot": "6",
        "type": "t_mapping(t_address,t_mapping(t_uint256,t_uint256))"
      },
      {
        "astId": 1215,
        "contract": "contracts/SafeZen.sol:SafeZen",
        "label": "_ownedTokensIndex",
        "offset": 0,
        "slot": "7",
        "type": "t_mapping(t_uint256,t_uint256)"
      },
      {
        "astId": 1218,
        "contract": "contracts/SafeZen.sol:SafeZen",
        "label": "_allTokens",
        "offset": 0,
        "slot": "8",
        "type": "t_array(t_uint256)dyn_storage"
      },
      {
        "astId": 1222,
        "contract": "contracts/SafeZen.sol:SafeZen",
        "label": "_allTokensIndex",
        "offset": 0,
        "slot": "9",
        "type": "t_mapping(t_uint256,t_uint256)"
      },
      {
        "astId": 7,
        "contract": "contracts/SafeZen.sol:SafeZen",
        "label": "_owner",
        "offset": 0,
        "slot": "10",
        "type": "t_address"
      },
      {
        "astId": 122,
        "contract": "contracts/SafeZen.sol:SafeZen",
        "label": "_paused",
        "offset": 20,
        "slot": "10",
        "type": "t_bool"
      },
      {
        "astId": 3722,
        "contract": "contracts/SafeZen.sol:SafeZen",
        "label": "policies",
        "offset": 0,
        "slot": "11",
        "type": "t_mapping(t_uint256,t_struct(Policy)3741_storage)"
      },
      {
        "astId": 3724,
        "contract": "contracts/SafeZen.sol:SafeZen",
        "label": "_baseURIextended",
        "offset": 0,
        "slot": "12",
        "type": "t_string_storage"
      }
    ],
    "types": {
      "t_address": {
        "encoding": "inplace",
        "label": "address",
        "numberOfBytes": "20"
      },
      "t_array(t_uint256)dyn_storage": {
        "base": "t_uint256",
        "encoding": "dynamic_array",
        "label": "uint256[]",
        "numberOfBytes": "32"
      },
      "t_bool": {
        "encoding": "inplace",
        "label": "bool",
        "numberOfBytes": "1"
      },
      "t_mapping(t_address,t_bool)": {
        "encoding": "mapping",
        "key": "t_address",
        "label": "mapping(address => bool)",
        "numberOfBytes": "32",
        "value": "t_bool"
      },
      "t_mapping(t_address,t_mapping(t_address,t_bool))": {
        "encoding": "mapping",
        "key": "t_address",
        "label": "mapping(address => mapping(address => bool))",
        "numberOfBytes": "32",
        "value": "t_mapping(t_address,t_bool)"
      },
      "t_mapping(t_address,t_mapping(t_uint256,t_uint256))": {
        "encoding": "mapping",
        "key": "t_address",
        "label": "mapping(address => mapping(uint256 => uint256))",
        "numberOfBytes": "32",
        "value": "t_mapping(t_uint256,t_uint256)"
      },
      "t_mapping(t_address,t_uint256)": {
        "encoding": "mapping",
        "key": "t_address",
        "label": "mapping(address => uint256)",
        "numberOfBytes": "32",
        "value": "t_uint256"
      },
      "t_mapping(t_uint256,t_address)": {
        "encoding": "mapping",
        "key": "t_uint256",
        "label": "mapping(uint256 => address)",
        "numberOfBytes": "32",
        "value": "t_address"
      },
      "t_mapping(t_uint256,t_struct(Policy)3741_storage)": {
        "encoding": "mapping",
        "key": "t_uint256",
        "label": "mapping(uint256 => struct SafeZen.Policy)",
        "numberOfBytes": "32",
        "value": "t_struct(Policy)3741_storage"
      },
      "t_mapping(t_uint256,t_uint256)": {
        "encoding": "mapping",
        "key": "t_uint256",
        "label": "mapping(uint256 => uint256)",
        "numberOfBytes": "32",
        "value": "t_uint256"
      },
      "t_string_storage": {
        "encoding": "bytes",
        "label": "string",
        "numberOfBytes": "32"
      },
      "t_struct(Policy)3741_storage": {
        "encoding": "inplace",
        "label": "struct SafeZen.Policy",
        "members": [
          {
            "astId": 3726,
            "contract": "contracts/SafeZen.sol:SafeZen",
            "label": "policyHolder",
            "offset": 0,
            "slot": "0",
            "type": "t_address"
          },
          {
            "astId": 3728,
            "contract": "contracts/SafeZen.sol:SafeZen",
            "label": "policyID",
            "offset": 0,
            "slot": "1",
            "type": "t_uint256"
          },
          {
            "astId": 3730,
            "contract": "contracts/SafeZen.sol:SafeZen",
            "label": "policyType",
            "offset": 0,
            "slot": "2",
            "type": "t_string_storage"
          },
          {
            "astId": 3732,
            "contract": "contracts/SafeZen.sol:SafeZen",
            "label": "coverageAmount",
            "offset": 0,
            "slot": "3",
            "type": "t_uint256"
          },
          {
            "astId": 3734,
            "contract": "contracts/SafeZen.sol:SafeZen",
            "label": "merchant",
            "offset": 0,
            "slot": "4",
            "type": "t_string_storage"
          },
          {
            "astId": 3736,
            "contract": "contracts/SafeZen.sol:SafeZen",
            "label": "price",
            "offset": 0,
            "slot": "5",
            "type": "t_uint256"
          },
          {
            "astId": 3738,
            "contract": "contracts/SafeZen.sol:SafeZen",
            "label": "startTime",
            "offset": 0,
            "slot": "6",
            "type": "t_uint256"
          },
          {
            "astId": 3740,
            "contract": "contracts/SafeZen.sol:SafeZen",
            "label": "endTime",
            "offset": 0,
            "slot": "7",
            "type": "t_uint256"
          }
        ],
        "numberOfBytes": "256"
      },
      "t_uint256": {
        "encoding": "inplace",
        "label": "uint256",
        "numberOfBytes": "32"
      }
    }
  }
}