{
  "address": "0xbe4511EBaa8530d17143e394c5e735C810a0b88a",
  "abi": [
    {
      "inputs": [
        {
          "internalType": "string",
          "name": "_name",
          "type": "string"
        },
        {
          "internalType": "string",
          "name": "_symbol",
          "type": "string"
        },
        {
          "internalType": "contract ISuperfluid",
          "name": "host",
          "type": "address"
        },
        {
          "internalType": "contract IConstantFlowAgreementV1",
          "name": "cfa",
          "type": "address"
        },
        {
          "internalType": "contract ISuperToken",
          "name": "acceptedToken",
          "type": "address"
        },
        {
          "internalType": "address",
          "name": "stakingCA",
          "type": "address"
        },
        {
          "internalType": "address",
          "name": "govCA",
          "type": "address"
        }
      ],
      "stateMutability": "nonpayable",
      "type": "constructor"
    },
    {
      "anonymous": false,
      "inputs": [
        {
          "indexed": true,
          "internalType": "address",
          "name": "owner",
          "type": "address"
        },
        {
          "indexed": true,
          "internalType": "address",
          "name": "approved",
          "type": "address"
        },
        {
          "indexed": true,
          "internalType": "uint256",
          "name": "tokenId",
          "type": "uint256"
        }
      ],
      "name": "Approval",
      "type": "event"
    },
    {
      "anonymous": false,
      "inputs": [
        {
          "indexed": true,
          "internalType": "address",
          "name": "owner",
          "type": "address"
        },
        {
          "indexed": true,
          "internalType": "address",
          "name": "operator",
          "type": "address"
        },
        {
          "indexed": false,
          "internalType": "bool",
          "name": "approved",
          "type": "bool"
        }
      ],
      "name": "ApprovalForAll",
      "type": "event"
    },
    {
      "anonymous": false,
      "inputs": [
        {
          "indexed": true,
          "internalType": "address",
          "name": "previousOwner",
          "type": "address"
        },
        {
          "indexed": true,
          "internalType": "address",
          "name": "newOwner",
          "type": "address"
        }
      ],
      "name": "OwnershipTransferred",
      "type": "event"
    },
    {
      "anonymous": false,
      "inputs": [
        {
          "indexed": false,
          "internalType": "address",
          "name": "account",
          "type": "address"
        }
      ],
      "name": "Paused",
      "type": "event"
    },
    {
      "anonymous": false,
      "inputs": [
        {
          "indexed": true,
          "internalType": "address",
          "name": "from",
          "type": "address"
        },
        {
          "indexed": true,
          "internalType": "address",
          "name": "to",
          "type": "address"
        },
        {
          "indexed": true,
          "internalType": "uint256",
          "name": "tokenId",
          "type": "uint256"
        }
      ],
      "name": "Transfer",
      "type": "event"
    },
    {
      "anonymous": false,
      "inputs": [
        {
          "indexed": false,
          "internalType": "address",
          "name": "account",
          "type": "address"
        }
      ],
      "name": "Unpaused",
      "type": "event"
    },
    {
      "inputs": [],
      "name": "_acceptedToken",
      "outputs": [
        {
          "internalType": "contract ISuperToken",
          "name": "",
          "type": "address"
        }
      ],
      "stateMutability": "view",
      "type": "function"
    },
    {
      "inputs": [
        {
          "internalType": "address",
          "name": "to",
          "type": "address"
        },
        {
          "internalType": "uint256",
          "name": "tokenId",
          "type": "uint256"
        }
      ],
      "name": "approve",
      "outputs": [],
      "stateMutability": "nonpayable",
      "type": "function"
    },
    {
      "inputs": [
        {
          "internalType": "address",
          "name": "owner",
          "type": "address"
        }
      ],
      "name": "balanceOf",
      "outputs": [
        {
          "internalType": "uint256",
          "name": "",
          "type": "uint256"
        }
      ],
      "stateMutability": "view",
      "type": "function"
    },
    {
      "inputs": [
        {
          "internalType": "uint256",
          "name": "_tokenId",
          "type": "uint256"
        }
      ],
      "name": "buildMetadata",
      "outputs": [
        {
          "internalType": "string",
          "name": "",
          "type": "string"
        }
      ],
      "stateMutability": "view",
      "type": "function"
    },
    {
      "inputs": [
        {
          "internalType": "uint256",
          "name": "_tokenId",
          "type": "uint256"
        }
      ],
      "name": "buildPolicy",
      "outputs": [
        {
          "internalType": "string",
          "name": "",
          "type": "string"
        }
      ],
      "stateMutability": "view",
      "type": "function"
    },
    {
      "inputs": [
        {
          "internalType": "uint256",
          "name": "tokenId",
          "type": "uint256"
        }
      ],
      "name": "getApproved",
      "outputs": [
        {
          "internalType": "address",
          "name": "",
          "type": "address"
        }
      ],
      "stateMutability": "view",
      "type": "function"
    },
    {
      "inputs": [
        {
          "internalType": "uint256",
          "name": "_policyId",
          "type": "uint256"
        }
      ],
      "name": "getHolder",
      "outputs": [
        {
          "internalType": "address",
          "name": "",
          "type": "address"
        }
      ],
      "stateMutability": "view",
      "type": "function"
    },
    {
      "inputs": [
        {
          "internalType": "uint256",
          "name": "_policyId",
          "type": "uint256"
        }
      ],
      "name": "getRewardData",
      "outputs": [
        {
          "internalType": "address",
          "name": "policyHolder",
          "type": "address"
        },
        {
          "internalType": "uint256",
          "name": "purchaseTime",
          "type": "uint256"
        },
        {
          "internalType": "uint256",
          "name": "baseAmount",
          "type": "uint256"
        },
        {
          "internalType": "bool",
          "name": "hasClaimed",
          "type": "bool"
        }
      ],
      "stateMutability": "view",
      "type": "function"
    },
    {
      "inputs": [
        {
          "internalType": "uint256",
          "name": "_policyId",
          "type": "uint256"
        }
      ],
      "name": "isActive",
      "outputs": [
        {
          "internalType": "bool",
          "name": "",
          "type": "bool"
        }
      ],
      "stateMutability": "view",
      "type": "function"
    },
    {
      "inputs": [
        {
          "internalType": "address",
          "name": "owner",
          "type": "address"
        },
        {
          "internalType": "address",
          "name": "operator",
          "type": "address"
        }
      ],
      "name": "isApprovedForAll",
      "outputs": [
        {
          "internalType": "bool",
          "name": "",
          "type": "bool"
        }
      ],
      "stateMutability": "view",
      "type": "function"
    },
    {
      "inputs": [
        {
          "internalType": "string",
          "name": "_policyType",
          "type": "string"
        },
        {
          "internalType": "uint256",
          "name": "_coverageAmount",
          "type": "uint256"
        },
        {
          "internalType": "string",
          "name": "_merchant",
          "type": "string"
        },
        {
          "internalType": "int96",
          "name": "_minFlowRate",
          "type": "int96"
        },
        {
          "internalType": "uint256",
          "name": "_baseAmount",
          "type": "uint256"
        }
      ],
      "name": "mint",
      "outputs": [],
      "stateMutability": "payable",
      "type": "function"
    },
    {
      "inputs": [],
      "name": "name",
      "outputs": [
        {
          "internalType": "string",
          "name": "",
          "type": "string"
        }
      ],
      "stateMutability": "view",
      "type": "function"
    },
    {
      "inputs": [],
      "name": "owner",
      "outputs": [
        {
          "internalType": "address",
          "name": "",
          "type": "address"
        }
      ],
      "stateMutability": "view",
      "type": "function"
    },
    {
      "inputs": [
        {
          "internalType": "uint256",
          "name": "tokenId",
          "type": "uint256"
        }
      ],
      "name": "ownerOf",
      "outputs": [
        {
          "internalType": "address",
          "name": "",
          "type": "address"
        }
      ],
      "stateMutability": "view",
      "type": "function"
    },
    {
      "inputs": [],
      "name": "pause",
      "outputs": [],
      "stateMutability": "nonpayable",
      "type": "function"
    },
    {
      "inputs": [],
      "name": "paused",
      "outputs": [
        {
          "internalType": "bool",
          "name": "",
          "type": "bool"
        }
      ],
      "stateMutability": "view",
      "type": "function"
    },
    {
      "inputs": [
        {
          "internalType": "uint256",
          "name": "",
          "type": "uint256"
        }
      ],
      "name": "policies",
      "outputs": [
        {
          "internalType": "address",
          "name": "policyHolder",
          "type": "address"
        },
        {
          "internalType": "uint256",
          "name": "policyID",
          "type": "uint256"
        },
        {
          "internalType": "string",
          "name": "policyType",
          "type": "string"
        },
        {
          "internalType": "uint256",
          "name": "coverageAmount",
          "type": "uint256"
        },
        {
          "internalType": "string",
          "name": "merchant",
          "type": "string"
        },
        {
          "internalType": "int96",
          "name": "minFlowRate",
          "type": "int96"
        },
        {
          "internalType": "uint256",
          "name": "purchaseTime",
          "type": "uint256"
        },
        {
          "internalType": "bool",
          "name": "isActive",
          "type": "bool"
        },
        {
          "internalType": "bool",
          "name": "hasClaimed",
          "type": "bool"
        },
        {
          "internalType": "uint256",
          "name": "amountPaid",
          "type": "uint256"
        },
        {
          "internalType": "uint256",
          "name": "baseAmount",
          "type": "uint256"
        },
        {
          "internalType": "string",
          "name": "textHue",
          "type": "string"
        },
        {
          "internalType": "string",
          "name": "bgHue",
          "type": "string"
        }
      ],
      "stateMutability": "view",
      "type": "function"
    },
    {
      "inputs": [
        {
          "internalType": "uint256",
          "name": "_mod",
          "type": "uint256"
        },
        {
          "internalType": "uint256",
          "name": "_seed",
          "type": "uint256"
        },
        {
          "internalType": "uint256",
          "name": "_salt",
          "type": "uint256"
        }
      ],
      "name": "randomNum",
      "outputs": [
        {
          "internalType": "uint256",
          "name": "",
          "type": "uint256"
        }
      ],
      "stateMutability": "view",
      "type": "function"
    },
    {
      "inputs": [],
      "name": "renounceOwnership",
      "outputs": [],
      "stateMutability": "nonpayable",
      "type": "function"
    },
    {
      "inputs": [
        {
          "internalType": "address",
          "name": "from",
          "type": "address"
        },
        {
          "internalType": "address",
          "name": "to",
          "type": "address"
        },
        {
          "internalType": "uint256",
          "name": "tokenId",
          "type": "uint256"
        }
      ],
      "name": "safeTransferFrom",
      "outputs": [],
      "stateMutability": "nonpayable",
      "type": "function"
    },
    {
      "inputs": [
        {
          "internalType": "address",
          "name": "from",
          "type": "address"
        },
        {
          "internalType": "address",
          "name": "to",
          "type": "address"
        },
        {
          "internalType": "uint256",
          "name": "tokenId",
          "type": "uint256"
        },
        {
          "internalType": "bytes",
          "name": "_data",
          "type": "bytes"
        }
      ],
      "name": "safeTransferFrom",
      "outputs": [],
      "stateMutability": "nonpayable",
      "type": "function"
    },
    {
      "inputs": [
        {
          "internalType": "address",
          "name": "_receiver",
          "type": "address"
        },
        {
          "internalType": "uint256",
          "name": "_amount",
          "type": "uint256"
        }
      ],
      "name": "sendInsuranceClaim",
      "outputs": [],
      "stateMutability": "nonpayable",
      "type": "function"
    },
    {
      "inputs": [
        {
          "internalType": "address",
          "name": "operator",
          "type": "address"
        },
        {
          "internalType": "bool",
          "name": "approved",
          "type": "bool"
        }
      ],
      "name": "setApprovalForAll",
      "outputs": [],
      "stateMutability": "nonpayable",
      "type": "function"
    },
    {
      "inputs": [
        {
          "internalType": "bytes4",
          "name": "interfaceId",
          "type": "bytes4"
        }
      ],
      "name": "supportsInterface",
      "outputs": [
        {
          "internalType": "bool",
          "name": "",
          "type": "bool"
        }
      ],
      "stateMutability": "view",
      "type": "function"
    },
    {
      "inputs": [],
      "name": "symbol",
      "outputs": [
        {
          "internalType": "string",
          "name": "",
          "type": "string"
        }
      ],
      "stateMutability": "view",
      "type": "function"
    },
    {
      "inputs": [
        {
          "internalType": "uint256",
          "name": "index",
          "type": "uint256"
        }
      ],
      "name": "tokenByIndex",
      "outputs": [
        {
          "internalType": "uint256",
          "name": "",
          "type": "uint256"
        }
      ],
      "stateMutability": "view",
      "type": "function"
    },
    {
      "inputs": [
        {
          "internalType": "address",
          "name": "owner",
          "type": "address"
        },
        {
          "internalType": "uint256",
          "name": "index",
          "type": "uint256"
        }
      ],
      "name": "tokenOfOwnerByIndex",
      "outputs": [
        {
          "internalType": "uint256",
          "name": "",
          "type": "uint256"
        }
      ],
      "stateMutability": "view",
      "type": "function"
    },
    {
      "inputs": [
        {
          "internalType": "uint256",
          "name": "_tokenId",
          "type": "uint256"
        }
      ],
      "name": "tokenURI",
      "outputs": [
        {
          "internalType": "string",
          "name": "",
          "type": "string"
        }
      ],
      "stateMutability": "view",
      "type": "function"
    },
    {
      "inputs": [],
      "name": "totalSupply",
      "outputs": [
        {
          "internalType": "uint256",
          "name": "",
          "type": "uint256"
        }
      ],
      "stateMutability": "view",
      "type": "function"
    },
    {
      "inputs": [
        {
          "internalType": "address",
          "name": "from",
          "type": "address"
        },
        {
          "internalType": "address",
          "name": "to",
          "type": "address"
        },
        {
          "internalType": "uint256",
          "name": "tokenId",
          "type": "uint256"
        }
      ],
      "name": "transferFrom",
      "outputs": [],
      "stateMutability": "nonpayable",
      "type": "function"
    },
    {
      "inputs": [
        {
          "internalType": "address",
          "name": "newOwner",
          "type": "address"
        }
      ],
      "name": "transferOwnership",
      "outputs": [],
      "stateMutability": "nonpayable",
      "type": "function"
    },
    {
      "inputs": [],
      "name": "unpause",
      "outputs": [],
      "stateMutability": "nonpayable",
      "type": "function"
    }
  ],
  "transactionHash": "0x7b49a62db2704632044ef4ffbe440cfda6e22946dcf6be271ab39c42df730f22",
  "args": [
    "SafeZen",
    "SZ",
    "0xEB796bdb90fFA0f28255275e16936D25d3418603",
    "0x49e565Ed1bdc17F3d220f72DF0857C26FA83F873",
    "0x5D8B4C2554aeB7e86F387B4d6c00Ac33499Ed01f",
    "0xDDb77a2f3452E439E9B807419E4fAb3Be21DdBC3",
    "0x4C26c63baefCB798d2C090B710C8456ea008886E"
  ],
  "numDeployments": 3,
  "solcInputHash": "b06b9e1b9407c414ba1aec6adaa9ca64",
  "bytecode": "0x60806040523480156200001157600080fd5b5060405162004a2638038062004a2683398101604081905262000034916200032c565b8651879087906200004d906000906020850190620001a0565b50805162000063906001906020840190620001a0565b505050620000806200007a6200014a60201b60201c565b6200014e565b600a805460ff60a01b191690556001600b55600c80546001600160a01b038088166001600160a01b03199283168117909355600d8054888316908416179055600e805491871691909216179055620000dc57620000dc62000403565b600d546001600160a01b0316620000f757620000f762000403565b600e546001600160a01b031662000112576200011262000403565b601080546001600160a01b039384166001600160a01b0319918216179091556011805492909316911617905550620004569350505050565b3390565b600a80546001600160a01b038381166001600160a01b0319831681179093556040519116919082907f8be0079c531659141344cd1fd0a4f28419497f9722a3daafe3b4186f6b6457e090600090a35050565b828054620001ae9062000419565b90600052602060002090601f016020900481019282620001d257600085556200021d565b82601f10620001ed57805160ff19168380011785556200021d565b828001600101855582156200021d579182015b828111156200021d57825182559160200191906001019062000200565b506200022b9291506200022f565b5090565b5b808211156200022b576000815560010162000230565b634e487b7160e01b600052604160045260246000fd5b600082601f8301126200026e57600080fd5b81516001600160401b03808211156200028b576200028b62000246565b604051601f8301601f19908116603f01168101908282118183101715620002b657620002b662000246565b81604052838152602092508683858801011115620002d357600080fd5b600091505b83821015620002f75785820183015181830184015290820190620002d8565b83821115620003095760008385830101525b9695505050505050565b6001600160a01b03811681146200032957600080fd5b50565b600080600080600080600060e0888a0312156200034857600080fd5b87516001600160401b03808211156200036057600080fd5b6200036e8b838c016200025c565b985060208a01519150808211156200038557600080fd5b50620003948a828b016200025c565b9650506040880151620003a78162000313565b6060890151909550620003ba8162000313565b6080890151909450620003cd8162000313565b60a0890151909350620003e08162000313565b60c0890151909250620003f38162000313565b8091505092959891949750929550565b634e487b7160e01b600052600160045260246000fd5b600181811c908216806200042e57607f821691505b602082108114156200045057634e487b7160e01b600052602260045260246000fd5b50919050565b6145c080620004666000396000f3fe6080604052600436106101e35760003560e01c806370a0823111610102578063a22cb46511610095578063e8a96b4611610064578063e8a96b46146105d5578063e985e9c5146105f5578063edf877041461063e578063f2fde38b1461065e57600080fd5b8063a22cb4651461053c578063b88d4fde1461055c578063c87b56dd1461057c578063d3e894831461059c57600080fd5b80638456cb59116100d15780638456cb59146104745780638da5cb5b146104895780638faea73a146104a757806395d89b411461052757600080fd5b806370a08231146103ff578063715018a61461041f578063827724811461043457806382afd23b1461045457600080fd5b80633001e5df1161017a5780634e5b3c7c116101495780634e5b3c7c146103805780634f6ccce7146103a05780635c975abb146103c05780636352211e146103df57600080fd5b80633001e5df1461031857806336892fb2146103385780633f4ba83a1461034b57806342842e0e1461036057600080fd5b806318160ddd116101b657806318160ddd1461029957806323b872dd146102b857806328294640146102d85780632f745c59146102f857600080fd5b806301ffc9a7146101e857806306fdde031461021d578063081812fc1461023f578063095ea7b314610277575b600080fd5b3480156101f457600080fd5b5061020861020336600461310a565b61067e565b60405190151581526020015b60405180910390f35b34801561022957600080fd5b506102326106a9565b6040516102149190613186565b34801561024b57600080fd5b5061025f61025a366004613199565b61073b565b6040516001600160a01b039091168152602001610214565b34801561028357600080fd5b506102976102923660046131c9565b6107d5565b005b3480156102a557600080fd5b506008545b604051908152602001610214565b3480156102c457600080fd5b506102976102d33660046131f3565b6108eb565b3480156102e457600080fd5b506102aa6102f336600461322f565b61091c565b34801561030457600080fd5b506102aa6103133660046131c9565b610984565b34801561032457600080fd5b506102976103333660046131c9565b610a1a565b610297610346366004613316565b610b0a565b34801561035757600080fd5b50610297610d13565b34801561036c57600080fd5b5061029761037b3660046131f3565b610d47565b34801561038c57600080fd5b50600e5461025f906001600160a01b031681565b3480156103ac57600080fd5b506102aa6103bb366004613199565b610d62565b3480156103cc57600080fd5b50600a54600160a01b900460ff16610208565b3480156103eb57600080fd5b5061025f6103fa366004613199565b610df5565b34801561040b57600080fd5b506102aa61041a36600461339e565b610e6c565b34801561042b57600080fd5b50610297610ef3565b34801561044057600080fd5b5061023261044f366004613199565b610f27565b34801561046057600080fd5b5061020861046f366004613199565b6113a7565b34801561048057600080fd5b5061029761146c565b34801561049557600080fd5b50600a546001600160a01b031661025f565b3480156104b357600080fd5b506104fb6104c2366004613199565b600090815260126020526040902060068101546009820154600783015492546001600160a01b0316939192909161010090910460ff1690565b604080516001600160a01b03909516855260208501939093529183015215156060820152608001610214565b34801561053357600080fd5b5061023261149e565b34801561054857600080fd5b506102976105573660046133b9565b6114ad565b34801561056857600080fd5b506102976105773660046133f5565b6114bc565b34801561058857600080fd5b50610232610597366004613199565b6114f4565b3480156105a857600080fd5b506105bc6105b7366004613199565b61157c565b6040516102149d9c9b9a99989796959493929190613471565b3480156105e157600080fd5b5061025f6105f0366004613199565b611816565b34801561060157600080fd5b5061020861061036600461352c565b6001600160a01b03918216600090815260056020908152604080832093909416825291909152205460ff1690565b34801561064a57600080fd5b50610232610659366004613199565b611af9565b34801561066a57600080fd5b5061029761067936600461339e565b611f4e565b60006001600160e01b0319821663780e9d6360e01b14806106a357506106a382611fe9565b92915050565b6060600080546106b89061355f565b80601f01602080910402602001604051908101604052809291908181526020018280546106e49061355f565b80156107315780601f1061070657610100808354040283529160200191610731565b820191906000526020600020905b81548152906001019060200180831161071457829003601f168201915b5050505050905090565b6000818152600260205260408120546001600160a01b03166107b95760405162461bcd60e51b815260206004820152602c60248201527f4552433732313a20617070726f76656420717565727920666f72206e6f6e657860448201526b34b9ba32b73a103a37b5b2b760a11b60648201526084015b60405180910390fd5b506000908152600460205260409020546001600160a01b031690565b60006107e082610df5565b9050806001600160a01b0316836001600160a01b0316141561084e5760405162461bcd60e51b815260206004820152602160248201527f4552433732313a20617070726f76616c20746f2063757272656e74206f776e656044820152603960f91b60648201526084016107b0565b336001600160a01b038216148061086a575061086a8133610610565b6108dc5760405162461bcd60e51b815260206004820152603860248201527f4552433732313a20617070726f76652063616c6c6572206973206e6f74206f7760448201527f6e6572206e6f7220617070726f76656420666f7220616c6c000000000000000060648201526084016107b0565b6108e68383612039565b505050565b6108f533826120a7565b6109115760405162461bcd60e51b81526004016107b09061359a565b6108e683838361219e565b604080514260208201526bffffffffffffffffffffffff193360601b16918101919091526054810183905260748101829052600090819085906094016040516020818303038152906040528051906020012060001c61097b9190613601565b95945050505050565b600061098f83610e6c565b82106109f15760405162461bcd60e51b815260206004820152602b60248201527f455243373231456e756d657261626c653a206f776e657220696e646578206f7560448201526a74206f6620626f756e647360a81b60648201526084016107b0565b506001600160a01b03919091166000908152600660209081526040808320938352929052205490565b600f546001600160a01b03163314610a675760405162461bcd60e51b815260206004820152601060248201526f1393d50811d3d58810d3d395149050d560821b60448201526064016107b0565b6000826001600160a01b03168260405160006040518083038185875af1925050503d8060008114610ab4576040519150601f19603f3d011682016040523d82523d6000602084013e610ab9565b606091505b50509050806108e65760405162461bcd60e51b815260206004820152601f60248201527f494e535552414e434520434c41494d205452414e53464552204641494c45440060448201526064016107b0565b6000610b1560085490565b90506000604051806101a00160405280336001600160a01b03168152602001836001610b41919061362b565b815260200188815260200187815260200186815260200185600b0b815260200142815260200160001515815260200160001515815260200160008152602001848152602001610b9b610b96610169448761091c565b612345565b8152602001610bb0610b96610169428761091c565b905290508060126000610bc485600161362b565b81526020808201929092526040908101600020835181546001600160a01b0319166001600160a01b039091161781558383015160018201559083015180519192610c169260028501929091019061305b565b506060820151600382015560808201518051610c3c91600484019160209091019061305b565b5060a08201516005820180546001600160601b039092166bffffffffffffffffffffffff1990921691909117905560c0820151600682015560e08201516007820180546101008086015115150261ff00199315159390931661ffff1990911617919091179055610120820151600882015561014082015160098201556101608201518051610cd491600a84019160209091019061305b565b506101808201518051610cf191600b84019160209091019061305b565b50610d0a9150339050610d0584600161362b565b612443565b50505050505050565b600a546001600160a01b03163314610d3d5760405162461bcd60e51b81526004016107b090613643565b610d4561245d565b565b6108e6838383604051806020016040528060008152506114bc565b6000610d6d60085490565b8210610dd05760405162461bcd60e51b815260206004820152602c60248201527f455243373231456e756d657261626c653a20676c6f62616c20696e646578206f60448201526b7574206f6620626f756e647360a01b60648201526084016107b0565b60088281548110610de357610de3613678565b90600052602060002001549050919050565b6000818152600260205260408120546001600160a01b0316806106a35760405162461bcd60e51b815260206004820152602960248201527f4552433732313a206f776e657220717565727920666f72206e6f6e657869737460448201526832b73a103a37b5b2b760b91b60648201526084016107b0565b60006001600160a01b038216610ed75760405162461bcd60e51b815260206004820152602a60248201527f4552433732313a2062616c616e636520717565727920666f7220746865207a65604482015269726f206164647265737360b01b60648201526084016107b0565b506001600160a01b031660009081526003602052604090205490565b600a546001600160a01b03163314610f1d5760405162461bcd60e51b81526004016107b090613643565b610d4560006124fa565b600081815260126020908152604080832081516101a08101835281546001600160a01b03168152600182015493810193909352600281018054606095949384019190610f729061355f565b80601f0160208091040260200160405190810160405280929190818152602001828054610f9e9061355f565b8015610feb5780601f10610fc057610100808354040283529160200191610feb565b820191906000526020600020905b815481529060010190602001808311610fce57829003601f168201915b505050505081526020016003820154815260200160048201805461100e9061355f565b80601f016020809104026020016040519081016040528092919081815260200182805461103a9061355f565b80156110875780601f1061105c57610100808354040283529160200191611087565b820191906000526020600020905b81548152906001019060200180831161106a57829003601f168201915b50505091835250506005820154600b0b602082015260068201546040820152600782015460ff808216151560608401526101009091041615156080820152600882015460a0820152600982015460c0820152600a8201805460e0909201916110ee9061355f565b80601f016020809104026020016040519081016040528092919081815260200182805461111a9061355f565b80156111675780601f1061113c57610100808354040283529160200191611167565b820191906000526020600020905b81548152906001019060200180831161114a57829003601f168201915b50505050508152602001600b820180546111809061355f565b80601f01602080910402602001604051908101604052809291908181526020018280546111ac9061355f565b80156111f95780601f106111ce576101008083540402835291602001916111f9565b820191906000526020600020905b8154815290600101906020018083116111dc57829003601f168201915b505050505081525050905060008060006112168460c0015161254c565b9250925092506000611227876113a7565b61124e576040518060400160405280600581526020016446616c736560d81b81525061126c565b604051806040016040528060048152602001635472756560e01b8152505b905060008561018001516112838760000151612572565b876080015160405160200161129a939291906136aa565b604051602081830303815290604052905060006112ba8760200151612345565b87604001516112cc8960600151612345565b6040516020016112de939291906138cd565b604051602081830303815290604052905060006113078860a001516001600160601b0316612345565b61131086612345565b61131988612345565b6113228a612345565b6040516020016113359493929190613a6a565b60405160208183030381529060405290506000846040516020016113599190613b9a565b6040516020818303038152906040529050611398848484846040516020016113849493929190613c4e565b6040516020818303038152906040526126b9565b9b9a5050505050505050505050565b600d54600e5460009182916001600160a01b039182169163e6a1e88891166113ce86611816565b6040516001600160e01b031960e085901b1681526001600160a01b03928316600482015291166024820152306044820152606401608060405180830381865afa15801561141f573d6000803e3d6000fd5b505050506040513d601f19601f820116820180604052508101906114439190613ca5565b505060009485526012602052604090942060050154600b90810b94900b93909312159392505050565b600a546001600160a01b031633146114965760405162461bcd60e51b81526004016107b090613643565b610d45612821565b6060600180546106b89061355f565b6114b83383836128a9565b5050565b6114c633836120a7565b6114e25760405162461bcd60e51b81526004016107b09061359a565b6114ee84848484612978565b50505050565b6000818152600260205260409020546060906001600160a01b03166115735760405162461bcd60e51b815260206004820152602f60248201527f4552433732314d657461646174613a2055524920717565727920666f72206e6f60448201526e3732bc34b9ba32b73a103a37b5b2b760891b60648201526084016107b0565b6106a382611af9565b6012602052600090815260409020805460018201546002830180546001600160a01b039093169391926115ae9061355f565b80601f01602080910402602001604051908101604052809291908181526020018280546115da9061355f565b80156116275780601f106115fc57610100808354040283529160200191611627565b820191906000526020600020905b81548152906001019060200180831161160a57829003601f168201915b5050505050908060030154908060040180546116429061355f565b80601f016020809104026020016040519081016040528092919081815260200182805461166e9061355f565b80156116bb5780601f10611690576101008083540402835291602001916116bb565b820191906000526020600020905b81548152906001019060200180831161169e57829003601f168201915b5050505060058301546006840154600785015460088601546009870154600a880180549798600b9690960b9794965060ff808516966101009095041694929391926117059061355f565b80601f01602080910402602001604051908101604052809291908181526020018280546117319061355f565b801561177e5780601f106117535761010080835404028352916020019161177e565b820191906000526020600020905b81548152906001019060200180831161176157829003601f168201915b50505050509080600b0180546117939061355f565b80601f01602080910402602001604051908101604052809291908181526020018280546117bf9061355f565b801561180c5780601f106117e15761010080835404028352916020019161180c565b820191906000526020600020905b8154815290600101906020018083116117ef57829003601f168201915b505050505090508d565b600081815260126020908152604080832081516101a08101835281546001600160a01b031681526001820154938101939093526002810180548594938401919061185f9061355f565b80601f016020809104026020016040519081016040528092919081815260200182805461188b9061355f565b80156118d85780601f106118ad576101008083540402835291602001916118d8565b820191906000526020600020905b8154815290600101906020018083116118bb57829003601f168201915b50505050508152602001600382015481526020016004820180546118fb9061355f565b80601f01602080910402602001604051908101604052809291908181526020018280546119279061355f565b80156119745780601f1061194957610100808354040283529160200191611974565b820191906000526020600020905b81548152906001019060200180831161195757829003601f168201915b50505091835250506005820154600b0b602082015260068201546040820152600782015460ff808216151560608401526101009091041615156080820152600882015460a0820152600982015460c0820152600a8201805460e0909201916119db9061355f565b80601f0160208091040260200160405190810160405280929190818152602001828054611a079061355f565b8015611a545780601f10611a2957610100808354040283529160200191611a54565b820191906000526020600020905b815481529060010190602001808311611a3757829003601f168201915b50505050508152602001600b82018054611a6d9061355f565b80601f0160208091040260200160405190810160405280929190818152602001828054611a999061355f565b8015611ae65780601f10611abb57610100808354040283529160200191611ae6565b820191906000526020600020905b815481529060010190602001808311611ac957829003601f168201915b5050509190925250509051949350505050565b600081815260126020908152604080832081516101a08101835281546001600160a01b03168152600182015493810193909352600281018054606095949384019190611b449061355f565b80601f0160208091040260200160405190810160405280929190818152602001828054611b709061355f565b8015611bbd5780601f10611b9257610100808354040283529160200191611bbd565b820191906000526020600020905b815481529060010190602001808311611ba057829003601f168201915b5050505050815260200160038201548152602001600482018054611be09061355f565b80601f0160208091040260200160405190810160405280929190818152602001828054611c0c9061355f565b8015611c595780601f10611c2e57610100808354040283529160200191611c59565b820191906000526020600020905b815481529060010190602001808311611c3c57829003601f168201915b50505091835250506005820154600b0b602082015260068201546040820152600782015460ff808216151560608401526101009091041615156080820152600882015460a0820152600982015460c0820152600a8201805460e090920191611cc09061355f565b80601f0160208091040260200160405190810160405280929190818152602001828054611cec9061355f565b8015611d395780601f10611d0e57610100808354040283529160200191611d39565b820191906000526020600020905b815481529060010190602001808311611d1c57829003601f168201915b50505050508152602001600b82018054611d529061355f565b80601f0160208091040260200160405190810160405280929190818152602001828054611d7e9061355f565b8015611dcb5780601f10611da057610100808354040283529160200191611dcb565b820191906000526020600020905b815481529060010190602001808311611dae57829003601f168201915b50505050508152505090506000611de1846113a7565b611e08576040518060400160405280600581526020016446616c736560d81b815250611e26565b604051806040016040528060048152602001635472756560e01b8152505b905060008260400151611e3886610f27565b8451611e4390612572565b611e508660200151612345565b604051602001611e639493929190613ce3565b60405160208183030381529060405290506000611e838460600151612345565b611e998560a001516001600160601b0316612345565b611ea68660c00151612345565b604051602001611eb893929190613e8a565b6040516020818303038152906040529050600083611eda866101200151612345565b611ee8876101400151612345565b604051602001611efa93929190613f89565b6040516020818303038152906040529050611f2383838360405160200161138493929190614097565b604051602001611f3391906140da565b60405160208183030381529060405295505050505050919050565b600a546001600160a01b03163314611f785760405162461bcd60e51b81526004016107b090613643565b6001600160a01b038116611fdd5760405162461bcd60e51b815260206004820152602660248201527f4f776e61626c653a206e6577206f776e657220697320746865207a65726f206160448201526564647265737360d01b60648201526084016107b0565b611fe6816124fa565b50565b60006001600160e01b031982166380ac58cd60e01b148061201a57506001600160e01b03198216635b5e139f60e01b145b806106a357506301ffc9a760e01b6001600160e01b03198316146106a3565b600081815260046020526040902080546001600160a01b0319166001600160a01b038416908117909155819061206e82610df5565b6001600160a01b03167f8c5be1e5ebec7d5bd14f71427d1e84f3dd0314c0f7b2291e5b200ac8c7c3b92560405160405180910390a45050565b6000818152600260205260408120546001600160a01b03166121205760405162461bcd60e51b815260206004820152602c60248201527f4552433732313a206f70657261746f7220717565727920666f72206e6f6e657860448201526b34b9ba32b73a103a37b5b2b760a11b60648201526084016107b0565b600061212b83610df5565b9050806001600160a01b0316846001600160a01b0316148061217257506001600160a01b0380821660009081526005602090815260408083209388168352929052205460ff165b806121965750836001600160a01b031661218b8461073b565b6001600160a01b0316145b949350505050565b826001600160a01b03166121b182610df5565b6001600160a01b0316146122155760405162461bcd60e51b815260206004820152602560248201527f4552433732313a207472616e736665722066726f6d20696e636f72726563742060448201526437bbb732b960d91b60648201526084016107b0565b6001600160a01b0382166122775760405162461bcd60e51b8152602060048201526024808201527f4552433732313a207472616e7366657220746f20746865207a65726f206164646044820152637265737360e01b60648201526084016107b0565b6122828383836129ab565b61228d600082612039565b6001600160a01b03831660009081526003602052604081208054600192906122b690849061411f565b90915550506001600160a01b03821660009081526003602052604081208054600192906122e490849061362b565b909155505060008181526002602052604080822080546001600160a01b0319166001600160a01b0386811691821790925591518493918716917fddf252ad1be2c89b69c2b068fc378daa952ba7f163c4a11628f55a4df523b3ef91a4505050565b6060816123695750506040805180820190915260018152600360fc1b602082015290565b8160005b8115612393578061237d81614136565b915061238c9050600a83614151565b915061236d565b60008167ffffffffffffffff8111156123ae576123ae61325b565b6040519080825280601f01601f1916602001820160405280156123d8576020820181803683370190505b5090505b8415612196576123ed60018361411f565b91506123fa600a86613601565b61240590603061362b565b60f81b81838151811061241a5761241a613678565b60200101906001600160f81b031916908160001a90535061243c600a86614151565b94506123dc565b6114b88282604051806020016040528060008152506129e5565b600a54600160a01b900460ff166124ad5760405162461bcd60e51b815260206004820152601460248201527314185d5cd8589b194e881b9bdd081c185d5cd95960621b60448201526064016107b0565b600a805460ff60a01b191690557f5db9ee0a495bf2e6ff9c91a7834c1ba4fdd244a5e8aa4e537bd38aeae4b073aa335b6040516001600160a01b03909116815260200160405180910390a1565b600a80546001600160a01b038381166001600160a01b0319831681179093556040519116919082907f8be0079c531659141344cd1fd0a4f28419497f9722a3daafe3b4186f6b6457e090600090a35050565b600080806125656125606201518086614151565b612a18565b9196909550909350915050565b60408051602880825260608281019093526000919060208201818036833701905050905060005b60148110156126b25760006125af82601361411f565b6125ba906008614165565b6125c5906002614268565b6125d8906001600160a01b038716614151565b60f81b9050600060108260f81c6125ef9190614274565b60f81b905060008160f81c60106126069190614296565b8360f81c61261491906142b7565b60f81b905061262282612b8c565b8561262e866002614165565b8151811061263e5761263e613678565b60200101906001600160f81b031916908160001a90535061265e81612b8c565b8561266a866002614165565b61267590600161362b565b8151811061268557612685613678565b60200101906001600160f81b031916908160001a90535050505080806126aa90614136565b915050612599565b5092915050565b60608151600014156126d957505060408051602081019091526000815290565b600060405180606001604052806040815260200161452b6040913990506000600384516002612708919061362b565b6127129190614151565b61271d906004614165565b9050600061272c82602061362b565b67ffffffffffffffff8111156127445761274461325b565b6040519080825280601f01601f19166020018201604052801561276e576020820181803683370190505b509050818152600183018586518101602084015b818310156127dc5760039283018051603f601282901c811687015160f890811b8552600c83901c8216880151811b6001860152600683901c8216880151811b60028601529116860151901b93820193909352600401612782565b6003895106600181146127f6576002811461280757612813565b613d3d60f01b600119830152612813565b603d60f81b6000198301525b509398975050505050505050565b600a54600160a01b900460ff161561286e5760405162461bcd60e51b815260206004820152601060248201526f14185d5cd8589b194e881c185d5cd95960821b60448201526064016107b0565b600a805460ff60a01b1916600160a01b1790557f62e78cea01bee320cd4e420270b5ea74000d11b0c9f74754ebdbfc544b05a2586124dd3390565b816001600160a01b0316836001600160a01b0316141561290b5760405162461bcd60e51b815260206004820152601960248201527f4552433732313a20617070726f766520746f2063616c6c65720000000000000060448201526064016107b0565b6001600160a01b03838116600081815260056020908152604080832094871680845294825291829020805460ff191686151590811790915591519182527f17307eab39ab6107e8899845ad3d59bd9653f200f220920489ca2b5937696c31910160405180910390a3505050565b61298384848461219e565b61298f84848484612bc7565b6114ee5760405162461bcd60e51b81526004016107b0906142da565b6129b6838383612cc5565b600090815260126020526040902080546001600160a01b0319166001600160a01b039290921691909117905550565b6129ef8383612d7d565b6129fc6000848484612bc7565b6108e65760405162461bcd60e51b81526004016107b0906142da565b60008080838162253d8c612a2f8362010bd961432c565b612a39919061432c565b9050600062023ab1612a4c83600461436d565b612a5691906143f2565b90506004612a678262023ab161436d565b612a7290600361432c565b612a7c91906143f2565b612a869083614420565b9150600062164b09612a9984600161432c565b612aa590610fa061436d565b612aaf91906143f2565b90506004612abf826105b561436d565b612ac991906143f2565b612ad39084614420565b612ade90601f61432c565b9250600061098f612af085605061436d565b612afa91906143f2565b905060006050612b0c8361098f61436d565b612b1691906143f2565b612b209086614420565b9050612b2d600b836143f2565b9450612b3a85600c61436d565b612b4583600261432c565b612b4f9190614420565b91508483612b5e603187614420565b612b6990606461436d565b612b73919061432c565b612b7d919061432c565b9a919950975095505050505050565b6000600a60f883901c1015612bb357612baa60f883901c603061445f565b60f81b92915050565b612baa60f883901c605761445f565b919050565b60006001600160a01b0384163b15612cba57604051630a85bd0160e11b81526001600160a01b0385169063150b7a0290612c0b903390899088908890600401614484565b6020604051808303816000875af1925050508015612c46575060408051601f3d908101601f19168201909252612c43918101906144b7565b60015b612ca0573d808015612c74576040519150601f19603f3d011682016040523d82523d6000602084013e612c79565b606091505b508051612c985760405162461bcd60e51b81526004016107b0906142da565b805181602001fd5b6001600160e01b031916630a85bd0160e11b149050612196565b506001949350505050565b6001600160a01b038316612d2057612d1b81600880546000838152600960205260408120829055600182018355919091527ff3f7a9fe364faab93b216da50a3214154f22a0a2b415b23a84c8169e8b636ee30155565b612d43565b816001600160a01b0316836001600160a01b031614612d4357612d438382612ecb565b6001600160a01b038216612d5a576108e681612f68565b826001600160a01b0316826001600160a01b0316146108e6576108e68282613017565b6001600160a01b038216612dd35760405162461bcd60e51b815260206004820181905260248201527f4552433732313a206d696e7420746f20746865207a65726f206164647265737360448201526064016107b0565b6000818152600260205260409020546001600160a01b031615612e385760405162461bcd60e51b815260206004820152601c60248201527f4552433732313a20746f6b656e20616c7265616479206d696e7465640000000060448201526064016107b0565b612e44600083836129ab565b6001600160a01b0382166000908152600360205260408120805460019290612e6d90849061362b565b909155505060008181526002602052604080822080546001600160a01b0319166001600160a01b03861690811790915590518392907fddf252ad1be2c89b69c2b068fc378daa952ba7f163c4a11628f55a4df523b3ef908290a45050565b60006001612ed884610e6c565b612ee2919061411f565b600083815260076020526040902054909150808214612f35576001600160a01b03841660009081526006602090815260408083208584528252808320548484528184208190558352600790915290208190555b5060009182526007602090815260408084208490556001600160a01b039094168352600681528383209183525290812055565b600854600090612f7a9060019061411f565b60008381526009602052604081205460088054939450909284908110612fa257612fa2613678565b906000526020600020015490508060088381548110612fc357612fc3613678565b6000918252602080832090910192909255828152600990915260408082208490558582528120556008805480612ffb57612ffb6144d4565b6001900381819060005260206000200160009055905550505050565b600061302283610e6c565b6001600160a01b039093166000908152600660209081526040808320868452825280832085905593825260079052919091209190915550565b8280546130679061355f565b90600052602060002090601f01602090048101928261308957600085556130cf565b82601f106130a257805160ff19168380011785556130cf565b828001600101855582156130cf579182015b828111156130cf5782518255916020019190600101906130b4565b506130db9291506130df565b5090565b5b808211156130db57600081556001016130e0565b6001600160e01b031981168114611fe657600080fd5b60006020828403121561311c57600080fd5b8135613127816130f4565b9392505050565b60005b83811015613149578181015183820152602001613131565b838111156114ee5750506000910152565b6000815180845261317281602086016020860161312e565b601f01601f19169290920160200192915050565b602081526000613127602083018461315a565b6000602082840312156131ab57600080fd5b5035919050565b80356001600160a01b0381168114612bc257600080fd5b600080604083850312156131dc57600080fd5b6131e5836131b2565b946020939093013593505050565b60008060006060848603121561320857600080fd5b613211846131b2565b925061321f602085016131b2565b9150604084013590509250925092565b60008060006060848603121561324457600080fd5b505081359360208301359350604090920135919050565b634e487b7160e01b600052604160045260246000fd5b600067ffffffffffffffff8084111561328c5761328c61325b565b604051601f8501601f19908116603f011681019082821181831017156132b4576132b461325b565b816040528093508581528686860111156132cd57600080fd5b858560208301376000602087830101525050509392505050565b600082601f8301126132f857600080fd5b61312783833560208501613271565b80600b0b8114611fe657600080fd5b600080600080600060a0868803121561332e57600080fd5b853567ffffffffffffffff8082111561334657600080fd5b61335289838a016132e7565b965060208801359550604088013591508082111561336f57600080fd5b5061337c888289016132e7565b935050606086013561338d81613307565b949793965091946080013592915050565b6000602082840312156133b057600080fd5b613127826131b2565b600080604083850312156133cc57600080fd5b6133d5836131b2565b9150602083013580151581146133ea57600080fd5b809150509250929050565b6000806000806080858703121561340b57600080fd5b613414856131b2565b9350613422602086016131b2565b925060408501359150606085013567ffffffffffffffff81111561344557600080fd5b8501601f8101871361345657600080fd5b61346587823560208401613271565b91505092959194509250565b6001600160a01b038e1681528c60208201526101a06040820152600061349b6101a083018e61315a565b8c606084015282810360808401526134b3818d61315a565b90506134c460a084018c600b0b9052565b8960c08401526134d860e084018a15159052565b8715156101008401528661012084015285610140840152828103610160840152613502818661315a565b9050828103610180840152613517818561315a565b9150509e9d5050505050505050505050505050565b6000806040838503121561353f57600080fd5b613548836131b2565b9150613556602084016131b2565b90509250929050565b600181811c9082168061357357607f821691505b6020821081141561359457634e487b7160e01b600052602260045260246000fd5b50919050565b60208082526031908201527f4552433732313a207472616e736665722063616c6c6572206973206e6f74206f6040820152701ddb995c881b9bdc88185c1c1c9bdd9959607a1b606082015260800190565b634e487b7160e01b600052601260045260246000fd5b600082613610576136106135eb565b500690565b634e487b7160e01b600052601160045260246000fd5b6000821982111561363e5761363e613615565b500190565b6020808252818101527f4f776e61626c653a2063616c6c6572206973206e6f7420746865206f776e6572604082015260600190565b634e487b7160e01b600052603260045260246000fd5b600081516136a081856020860161312e565b9290920192915050565b7f3c7376672077696474683d2235303022206865696768743d223530302220786d81527f6c6e733d22687474703a2f2f7777772e77332e6f72672f323030302f737667226020820152601f60f91b604082015275078e4cac6e840f27a44604440ccd2d8d87a44d0e6d8560531b60418201526000845161373181605785016020890161312e565b7f2c313030252c3830252922207374726f6b653d22233030302220783d222d302e6057918401918201527f35222077696474683d2235303022206865696768743d22353030222f3e00000060778201526000805160206144eb833981519152609482015260008051602061456b83398151915260b48201527f793d224e6f746f2053616e73204a502220666f6e742d73697a653d223134222060d48201527f793d2235302220783d22353025222066696c6c3d2223303030303030223e000060f48201526138c361382f6138bd6138a76138428361382961011288016f0a0ded8d2c6f290ded8c8cae4744060f60831b815260100190565b8b61368e565b661e17ba32bc3a1f60c91b815260070190565b6000805160206144eb833981519152815260008051602061456b833981519152602082015260008051602061450b83398151915260408201527f793d223130302220783d22353025222066696c6c3d2223303030303030223e006060820152607f0190565b690283937bb34b232b91d160b51b8152600a0190565b8661368e565b9695505050505050565b60006000805160206144eb83398151915280835260008051602061456b83398151915280602085015260008051602061450b8339815191528060408601527f793d223135302220783d22353025222066696c6c3d2223303030303030223e0060608601526902837b634b1bca4a21d160b51b607f8601528751613957816089880160208c0161312e565b8086019050661e17ba32bc3a1f60c91b60898201528360908201528260b08201528160d08201527f793d223230302220783d22353025222066696c6c3d2223303030303030223e0060f0820152613a5d61382f613a57613a416139dc61382f6139d661010f88016b02837b634b1bcaa3cb8329d160a51b8152600c0190565b8e61368e565b6000805160206144eb833981519152815260008051602061456b833981519152602082015260008051602061450b83398151915260408201527f793d223235302220783d22353025222066696c6c3d2223303030303030223e006060820152607f0190565b69021b7bb32b930b3b29d160b51b8152600a0190565b8961368e565b9998505050505050505050565b60006000805160206144eb83398151915280835260008051602061456b83398151915280602085015260008051602061450b8339815191528060408601527f793d223330302220783d22353025222066696c6c3d2223303030303030223e006060860152660283934b1b29d160cd1b607f8601528851613af1816086880160208d0161312e565b8086019050661e17ba32bc3a1f60c91b608682015283608d8201528260ad8201528160cd8201527f793d223335302220783d22353025222066696c6c3d2223303030303030223e0060ed820152613b8c61382f613a57613b79613b86613b79613b7361010c88016e0283ab931b430b9b2902230ba329d1608d1b8152600f0190565b8f61368e565b602f60f81b815260010190565b8c61368e565b9a9950505050505050505050565b6000805160206144eb833981519152815260008051602061456b833981519152602082015260008051602061450b83398151915260408201527f793d223430302220783d22353025222066696c6c3d2223303030303030223e00606082015269034b9a0b1ba34bb329d160b51b607f82015260008251613c2181608985016020870161312e565b661e17ba32bc3a1f60c91b6089939091019283015250651e17b9bb339f60d11b6090820152609601919050565b60008551613c60818460208a0161312e565b855190830190613c74818360208a0161312e565b8551910190613c8781836020890161312e565b8451910190613c9a81836020880161312e565b019695505050505050565b60008060008060808587031215613cbb57600080fd5b845193506020850151613ccd81613307565b6040860151606090960151949790965092505050565b683d913730b6b2911d1160b91b81528451600090613d08816009850160208a0161312e565b71111610113232b9b1b934b83a34b7b7111d1160711b6009918401918201527f496e737572616e636520706f6c696379207075726368617365642066726f6d20601b8201527f536166655a656e2c2050617920617320796f7520476f21000000000000000000603b8201526c1116101134b6b0b3b2911d101160991b60528201527f646174613a696d6167652f7376672b786d6c3b6261736536342c000000000000605f8201528551613dc2816079840160208a0161312e565b7f222c202261747472696275746573223a205b7b2274726169745f74797065223a910160798101919091526e08941bdb1a58de521bdb19195c888b608a1b60998201526a044ecc2d8eaca44744460f60ab1b60a8820152613e7f613e326138bd613e6a613e418360b38701613829565b62089f4b60ea1b815260030190565b7f7b2274726169745f74797065223a22506f6c6963794944222c00000000000000815260190190565b68113b30b63ab2911d1160b91b815260090190565b979650505050505050565b7f7b2274726169745f74797065223a22436f766572616765416d6f756e74222c008152600068113b30b63ab2911d1160b91b80601f8401528551613ed5816028860160208a0161312e565b62089f4b60ea1b60289185019182018190527f7b2274726169745f74797065223a224d696e466c6f7752617465222c00000000602b830152604782018390528651613f27816050850160208b0161312e565b60509201918201527f7b2274726169745f74797065223a22507572636861736554696d65222c00000060538201526070810191909152835190613f7182607983016020880161312e565b613e7f60798383010162089f4b60ea1b815260030190565b7f7b2274726169745f74797065223a22416374697665222c0000000000000000008152600068113b30b63ab2911d1160b91b8060178401528551613fd4816020860160208a0161312e565b808401905062089f4b60ea1b8060208301527f7b2274726169745f74797065223a22416d6f756e7450616964222c0000000000602383015282603e8301528651614025816047850160208b0161312e565b60479201918201527f7b2274726169745f74797065223a2242617365416d6f756e74222c0000000000604a820152606581019190915283519061406f82606e83016020880161312e565b613e7f614089606e8484010161227d60f01b815260020190565b615d7d60f01b815260020190565b600084516140a981846020890161312e565b8451908301906140bd81836020890161312e565b84519101906140d081836020880161312e565b0195945050505050565b7f646174613a6170706c69636174696f6e2f6a736f6e3b6261736536342c00000081526000825161411281601d85016020870161312e565b91909101601d0192915050565b60008282101561413157614131613615565b500390565b600060001982141561414a5761414a613615565b5060010190565b600082614160576141606135eb565b500490565b600081600019048311821515161561417f5761417f613615565b500290565b600181815b808511156141bf5781600019048211156141a5576141a5613615565b808516156141b257918102915b93841c9390800290614189565b509250929050565b6000826141d6575060016106a3565b816141e3575060006106a3565b81600181146141f957600281146142035761421f565b60019150506106a3565b60ff84111561421457614214613615565b50506001821b6106a3565b5060208310610133831016604e8410600b8410161715614242575081810a6106a3565b61424c8383614184565b806000190482111561426057614260613615565b029392505050565b600061312783836141c7565b600060ff831680614287576142876135eb565b8060ff84160491505092915050565b600060ff821660ff84168160ff048111821515161561426057614260613615565b600060ff821660ff8416808210156142d1576142d1613615565b90039392505050565b60208082526032908201527f4552433732313a207472616e7366657220746f206e6f6e20455243373231526560408201527131b2b4bb32b91034b6b83632b6b2b73a32b960711b606082015260800190565b600080821280156001600160ff1b038490038513161561434e5761434e613615565b600160ff1b839003841281161561436757614367613615565b50500190565b60006001600160ff1b038184138284138082168684048611161561439357614393613615565b600160ff1b60008712828116878305891216156143b2576143b2613615565b600087129250878205871284841616156143ce576143ce613615565b878505871281841616156143e4576143e4613615565b505050929093029392505050565b600082614401576144016135eb565b600160ff1b82146000198414161561441b5761441b613615565b500590565b60008083128015600160ff1b85018412161561443e5761443e613615565b6001600160ff1b038401831381161561445957614459613615565b50500390565b600060ff821660ff84168060ff0382111561447c5761447c613615565b019392505050565b6001600160a01b03858116825284166020820152604081018390526080606082018190526000906138c39083018461315a565b6000602082840312156144c957600080fd5b8151613127816130f4565b634e487b7160e01b600052603160045260246000fdfe3c7465787420646f6d696e616e742d626173656c696e653d226d6964646c6522793d224e6f746f2053616e73204a502220666f6e742d73697a653d22323022204142434445464748494a4b4c4d4e4f505152535455565758595a6162636465666768696a6b6c6d6e6f707172737475767778797a303132333435363738392b2f20746578742d616e63686f723d226d6964646c652220666f6e742d66616d696ca264697066735822122004700fa60ac07acabfba33bd06f9928287f9fa7109b61363bb482360e3bb13ff64736f6c634300080a0033",
  "devdoc": {
    "author": "Sean (@theLewBei)",
    "details": "Only possible for a single policy for each wallet right now",
    "kind": "dev",
    "methods": {
      "approve(address,uint256)": {
        "details": "See {IERC721-approve}."
      },
      "balanceOf(address)": {
        "details": "See {IERC721-balanceOf}."
      },
      "buildMetadata(uint256)": {
        "details": "Can change public to internal",
        "params": {
          "_tokenId": "Policy ID which will also be the NFT token ID"
        }
      },
      "buildPolicy(uint256)": {
        "details": "can change this to internal ",
        "params": {
          "_tokenId": "Policy ID which will also be the NFT token ID"
        }
      },
      "constructor": {
        "params": {
          "_name": "Name of the ERC721 token",
          "_symbol": "Symbol of the ERC721 token",
          "acceptedToken": "superToken that is accepted for stream ( reference from Superfluid Docs )",
          "cfa": "Superfluid Central Flow Agreement Contract ( reference from Superfluid Docs )",
          "govCA": "contract address of the governance contract that handles the claim submission",
          "host": "Superfluid host contract ( reference from Superfluid Docs )",
          "stakingCA": "contract address of the staking contract that handles yield"
        }
      },
      "getApproved(uint256)": {
        "details": "See {IERC721-getApproved}."
      },
      "getHolder(uint256)": {
        "params": {
          "_policyId": "Policy ID which will also be the NFT token ID"
        }
      },
      "isActive(uint256)": {
        "details": "We are only able to handle 1 policy per holder, transfers will not terminate stream if the user did not manually delete flow but once the holder changes it should be reflected as non-active since there is no flow from the new holder",
        "params": {
          "_policyId": "Policy ID which will also be the NFT token ID"
        }
      },
      "isApprovedForAll(address,address)": {
        "details": "See {IERC721-isApprovedForAll}."
      },
      "mint(string,uint256,string,int96,uint256)": {
        "params": {
          "_baseAmount": "Min fee that nuser needs to pay to own the policy (varies with coverage)",
          "_coverageAmount": "Amount that user wants to be insured",
          "_merchant": "Provider for the insurance package ",
          "_minFlowRate": "Min charges per second calculated from per day on the frontend",
          "_policyType": "A combination of the category + specific type (e.g. VEHICLE-CAR)"
        }
      },
      "name()": {
        "details": "See {IERC721Metadata-name}."
      },
      "owner()": {
        "details": "Returns the address of the current owner."
      },
      "ownerOf(uint256)": {
        "details": "See {IERC721-ownerOf}."
      },
      "paused()": {
        "details": "Returns true if the contract is paused, and false otherwise."
      },
      "renounceOwnership()": {
        "details": "Leaves the contract without owner. It will not be possible to call `onlyOwner` functions anymore. Can only be called by the current owner. NOTE: Renouncing ownership will leave the contract without an owner, thereby removing any functionality that is only available to the owner."
      },
      "safeTransferFrom(address,address,uint256)": {
        "details": "See {IERC721-safeTransferFrom}."
      },
      "safeTransferFrom(address,address,uint256,bytes)": {
        "details": "See {IERC721-safeTransferFrom}."
      },
      "setApprovalForAll(address,bool)": {
        "details": "See {IERC721-setApprovalForAll}."
      },
      "supportsInterface(bytes4)": {
        "details": "See {IERC165-supportsInterface}."
      },
      "symbol()": {
        "details": "See {IERC721Metadata-symbol}."
      },
      "tokenByIndex(uint256)": {
        "details": "See {IERC721Enumerable-tokenByIndex}."
      },
      "tokenOfOwnerByIndex(address,uint256)": {
        "details": "See {IERC721Enumerable-tokenOfOwnerByIndex}."
      },
      "tokenURI(uint256)": {
        "params": {
          "_tokenId": "Policy ID which will also be the NFT token ID"
        }
      },
      "totalSupply()": {
        "details": "See {IERC721Enumerable-totalSupply}."
      },
      "transferFrom(address,address,uint256)": {
        "details": "See {IERC721-transferFrom}."
      },
      "transferOwnership(address)": {
        "details": "Transfers ownership of the contract to a new account (`newOwner`). Can only be called by the current owner."
      }
    },
    "title": "SafeZen NFT contract with Superfluid",
    "version": 1
  },
  "userdoc": {
    "kind": "user",
    "methods": {
      "buildMetadata(uint256)": {
        "notice": "Builds the metadata required in accordance ot Opensea requirements"
      },
      "buildPolicy(uint256)": {
        "notice": "Builds the on-chain SVG for the specific policy"
      },
      "constructor": {
        "notice": "Constructor for ERC721"
      },
      "getHolder(uint256)": {
        "notice": "Retrieves the wallet address of the policy holder"
      },
      "isActive(uint256)": {
        "notice": "Retrieves the active state of the policy based on incoming flowRate from holder "
      },
      "mint(string,uint256,string,int96,uint256)": {
        "notice": "Constructor for ERC721"
      },
      "tokenURI(uint256)": {
        "notice": "Calls on BuildMetadata -> BuildPolicy and return required format "
      }
    },
    "notice": "The project allows users to be able to mint a specific policy that they need and stream only when they need to. An aggregated insurance provider platform, each Insurance policy requires a baseAmount and also a minFlowRate. The baseAmount is automatically staked when the user buys a policy through us and it generates our own  ERC20 Utility Token. This token can then be redeemed by the user (different % depending on whether they have claimed the insurance): Token can be used to subsidize future policy purchases",
    "version": 1
  },
  "storageLayout": {
    "storage": [
      {
        "astId": 951,
        "contract": "contracts/SafeZen.sol:SafeZen",
        "label": "_name",
        "offset": 0,
        "slot": "0",
        "type": "t_string_storage"
      },
      {
        "astId": 953,
        "contract": "contracts/SafeZen.sol:SafeZen",
        "label": "_symbol",
        "offset": 0,
        "slot": "1",
        "type": "t_string_storage"
      },
      {
        "astId": 957,
        "contract": "contracts/SafeZen.sol:SafeZen",
        "label": "_owners",
        "offset": 0,
        "slot": "2",
        "type": "t_mapping(t_uint256,t_address)"
      },
      {
        "astId": 961,
        "contract": "contracts/SafeZen.sol:SafeZen",
        "label": "_balances",
        "offset": 0,
        "slot": "3",
        "type": "t_mapping(t_address,t_uint256)"
      },
      {
        "astId": 965,
        "contract": "contracts/SafeZen.sol:SafeZen",
        "label": "_tokenApprovals",
        "offset": 0,
        "slot": "4",
        "type": "t_mapping(t_uint256,t_address)"
      },
      {
        "astId": 971,
        "contract": "contracts/SafeZen.sol:SafeZen",
        "label": "_operatorApprovals",
        "offset": 0,
        "slot": "5",
        "type": "t_mapping(t_address,t_mapping(t_address,t_bool))"
      },
      {
        "astId": 1940,
        "contract": "contracts/SafeZen.sol:SafeZen",
        "label": "_ownedTokens",
        "offset": 0,
        "slot": "6",
        "type": "t_mapping(t_address,t_mapping(t_uint256,t_uint256))"
      },
      {
        "astId": 1944,
        "contract": "contracts/SafeZen.sol:SafeZen",
        "label": "_ownedTokensIndex",
        "offset": 0,
        "slot": "7",
        "type": "t_mapping(t_uint256,t_uint256)"
      },
      {
        "astId": 1947,
        "contract": "contracts/SafeZen.sol:SafeZen",
        "label": "_allTokens",
        "offset": 0,
        "slot": "8",
        "type": "t_array(t_uint256)dyn_storage"
      },
      {
        "astId": 1951,
        "contract": "contracts/SafeZen.sol:SafeZen",
        "label": "_allTokensIndex",
        "offset": 0,
        "slot": "9",
        "type": "t_mapping(t_uint256,t_uint256)"
      },
      {
        "astId": 7,
        "contract": "contracts/SafeZen.sol:SafeZen",
        "label": "_owner",
        "offset": 0,
        "slot": "10",
        "type": "t_address"
      },
      {
        "astId": 122,
        "contract": "contracts/SafeZen.sol:SafeZen",
        "label": "_paused",
        "offset": 20,
        "slot": "10",
        "type": "t_bool"
      },
      {
        "astId": 207,
        "contract": "contracts/SafeZen.sol:SafeZen",
        "label": "_status",
        "offset": 0,
        "slot": "11",
        "type": "t_uint256"
      },
      {
        "astId": 7287,
        "contract": "contracts/SafeZen.sol:SafeZen",
        "label": "_host",
        "offset": 0,
        "slot": "12",
        "type": "t_contract(ISuperfluid)4923"
      },
      {
        "astId": 7290,
        "contract": "contracts/SafeZen.sol:SafeZen",
        "label": "_cfa",
        "offset": 0,
        "slot": "13",
        "type": "t_contract(IConstantFlowAgreementV1)3380"
      },
      {
        "astId": 7293,
        "contract": "contracts/SafeZen.sol:SafeZen",
        "label": "_acceptedToken",
        "offset": 0,
        "slot": "14",
        "type": "t_contract(ISuperToken)4360"
      },
      {
        "astId": 7295,
        "contract": "contracts/SafeZen.sol:SafeZen",
        "label": "govContractCA",
        "offset": 0,
        "slot": "15",
        "type": "t_address"
      },
      {
        "astId": 7298,
        "contract": "contracts/SafeZen.sol:SafeZen",
        "label": "stakingContract",
        "offset": 0,
        "slot": "16",
        "type": "t_contract(StakingContract)8366"
      },
      {
        "astId": 7301,
        "contract": "contracts/SafeZen.sol:SafeZen",
        "label": "govContract",
        "offset": 0,
        "slot": "17",
        "type": "t_contract(Governance)7254"
      },
      {
        "astId": 7306,
        "contract": "contracts/SafeZen.sol:SafeZen",
        "label": "policies",
        "offset": 0,
        "slot": "18",
        "type": "t_mapping(t_uint256,t_struct(Policy)7333_storage)"
      }
    ],
    "types": {
      "t_address": {
        "encoding": "inplace",
        "label": "address",
        "numberOfBytes": "20"
      },
      "t_array(t_uint256)dyn_storage": {
        "base": "t_uint256",
        "encoding": "dynamic_array",
        "label": "uint256[]",
        "numberOfBytes": "32"
      },
      "t_bool": {
        "encoding": "inplace",
        "label": "bool",
        "numberOfBytes": "1"
      },
      "t_contract(Governance)7254": {
        "encoding": "inplace",
        "label": "contract Governance",
        "numberOfBytes": "20"
      },
      "t_contract(IConstantFlowAgreementV1)3380": {
        "encoding": "inplace",
        "label": "contract IConstantFlowAgreementV1",
        "numberOfBytes": "20"
      },
      "t_contract(ISuperToken)4360": {
        "encoding": "inplace",
        "label": "contract ISuperToken",
        "numberOfBytes": "20"
      },
      "t_contract(ISuperfluid)4923": {
        "encoding": "inplace",
        "label": "contract ISuperfluid",
        "numberOfBytes": "20"
      },
      "t_contract(StakingContract)8366": {
        "encoding": "inplace",
        "label": "contract StakingContract",
        "numberOfBytes": "20"
      },
      "t_int96": {
        "encoding": "inplace",
        "label": "int96",
        "numberOfBytes": "12"
      },
      "t_mapping(t_address,t_bool)": {
        "encoding": "mapping",
        "key": "t_address",
        "label": "mapping(address => bool)",
        "numberOfBytes": "32",
        "value": "t_bool"
      },
      "t_mapping(t_address,t_mapping(t_address,t_bool))": {
        "encoding": "mapping",
        "key": "t_address",
        "label": "mapping(address => mapping(address => bool))",
        "numberOfBytes": "32",
        "value": "t_mapping(t_address,t_bool)"
      },
      "t_mapping(t_address,t_mapping(t_uint256,t_uint256))": {
        "encoding": "mapping",
        "key": "t_address",
        "label": "mapping(address => mapping(uint256 => uint256))",
        "numberOfBytes": "32",
        "value": "t_mapping(t_uint256,t_uint256)"
      },
      "t_mapping(t_address,t_uint256)": {
        "encoding": "mapping",
        "key": "t_address",
        "label": "mapping(address => uint256)",
        "numberOfBytes": "32",
        "value": "t_uint256"
      },
      "t_mapping(t_uint256,t_address)": {
        "encoding": "mapping",
        "key": "t_uint256",
        "label": "mapping(uint256 => address)",
        "numberOfBytes": "32",
        "value": "t_address"
      },
      "t_mapping(t_uint256,t_struct(Policy)7333_storage)": {
        "encoding": "mapping",
        "key": "t_uint256",
        "label": "mapping(uint256 => struct SafeZen.Policy)",
        "numberOfBytes": "32",
        "value": "t_struct(Policy)7333_storage"
      },
      "t_mapping(t_uint256,t_uint256)": {
        "encoding": "mapping",
        "key": "t_uint256",
        "label": "mapping(uint256 => uint256)",
        "numberOfBytes": "32",
        "value": "t_uint256"
      },
      "t_string_storage": {
        "encoding": "bytes",
        "label": "string",
        "numberOfBytes": "32"
      },
      "t_struct(Policy)7333_storage": {
        "encoding": "inplace",
        "label": "struct SafeZen.Policy",
        "members": [
          {
            "astId": 7308,
            "contract": "contracts/SafeZen.sol:SafeZen",
            "label": "policyHolder",
            "offset": 0,
            "slot": "0",
            "type": "t_address"
          },
          {
            "astId": 7310,
            "contract": "contracts/SafeZen.sol:SafeZen",
            "label": "policyID",
            "offset": 0,
            "slot": "1",
            "type": "t_uint256"
          },
          {
            "astId": 7312,
            "contract": "contracts/SafeZen.sol:SafeZen",
            "label": "policyType",
            "offset": 0,
            "slot": "2",
            "type": "t_string_storage"
          },
          {
            "astId": 7314,
            "contract": "contracts/SafeZen.sol:SafeZen",
            "label": "coverageAmount",
            "offset": 0,
            "slot": "3",
            "type": "t_uint256"
          },
          {
            "astId": 7316,
            "contract": "contracts/SafeZen.sol:SafeZen",
            "label": "merchant",
            "offset": 0,
            "slot": "4",
            "type": "t_string_storage"
          },
          {
            "astId": 7318,
            "contract": "contracts/SafeZen.sol:SafeZen",
            "label": "minFlowRate",
            "offset": 0,
            "slot": "5",
            "type": "t_int96"
          },
          {
            "astId": 7320,
            "contract": "contracts/SafeZen.sol:SafeZen",
            "label": "purchaseTime",
            "offset": 0,
            "slot": "6",
            "type": "t_uint256"
          },
          {
            "astId": 7322,
            "contract": "contracts/SafeZen.sol:SafeZen",
            "label": "isActive",
            "offset": 0,
            "slot": "7",
            "type": "t_bool"
          },
          {
            "astId": 7324,
            "contract": "contracts/SafeZen.sol:SafeZen",
            "label": "hasClaimed",
            "offset": 1,
            "slot": "7",
            "type": "t_bool"
          },
          {
            "astId": 7326,
            "contract": "contracts/SafeZen.sol:SafeZen",
            "label": "amountPaid",
            "offset": 0,
            "slot": "8",
            "type": "t_uint256"
          },
          {
            "astId": 7328,
            "contract": "contracts/SafeZen.sol:SafeZen",
            "label": "baseAmount",
            "offset": 0,
            "slot": "9",
            "type": "t_uint256"
          },
          {
            "astId": 7330,
            "contract": "contracts/SafeZen.sol:SafeZen",
            "label": "textHue",
            "offset": 0,
            "slot": "10",
            "type": "t_string_storage"
          },
          {
            "astId": 7332,
            "contract": "contracts/SafeZen.sol:SafeZen",
            "label": "bgHue",
            "offset": 0,
            "slot": "11",
            "type": "t_string_storage"
          }
        ],
        "numberOfBytes": "384"
      },
      "t_uint256": {
        "encoding": "inplace",
        "label": "uint256",
        "numberOfBytes": "32"
      }
    }
  }
}